{
  "_format": "hh-sol-artifact-1",
  "contractName": "FakeCoprocessorAdapter",
  "sourceName": "contracts/FakeCoprocessorAdapter.sol",
  "abi": [
    {
      "anonymous": false,
      "inputs": [
        {
          "indexed": false,
          "internalType": "bytes32",
          "name": "payloadHash",
          "type": "bytes32"
        },
        {
          "indexed": false,
          "internalType": "bytes",
          "name": "output",
          "type": "bytes"
        }
      ],
      "name": "ResultReceived",
      "type": "event"
    },
    {
      "inputs": [
        {
          "internalType": "bytes32",
          "name": "payloadHash",
          "type": "bytes32"
        },
        {
          "internalType": "bytes",
          "name": "notice",
          "type": "bytes"
        }
      ],
      "name": "handleNotice",
      "outputs": [],
      "stateMutability": "nonpayable",
      "type": "function"
    },
    {
      "inputs": [],
      "name": "nftContract",
      "outputs": [
        {
          "internalType": "contract INFTPlayers",
          "name": "",
          "type": "address"
        }
      ],
      "stateMutability": "view",
      "type": "function"
    },
    {
      "inputs": [
        {
          "internalType": "address",
          "name": "nftAddress",
          "type": "address"
        }
      ],
      "name": "setNFTPlayersContract",
      "outputs": [],
      "stateMutability": "nonpayable",
      "type": "function"
    }
  ],
  "bytecode": "0x608060405234801561001057600080fd5b50610877806100206000396000f3fe608060405234801561001057600080fd5b50600436106100415760003560e01c806306553cf314610046578063a3bc946614610062578063d56d229d1461007e575b600080fd5b610060600480360381019061005b91906102b0565b61009c565b005b61007c60048036038101906100779190610459565b6100df565b005b61008661021a565b6040516100939190610514565b60405180910390f35b806000806101000a81548173ffffffffffffffffffffffffffffffffffffffff021916908373ffffffffffffffffffffffffffffffffffffffff16021790555050565b600080828060200190518101906100f6919061062d565b9150915060005b82518110156101da5760008054906101000a900473ffffffffffffffffffffffffffffffffffffffff1673ffffffffffffffffffffffffffffffffffffffff1663dc0ab925848381518110610155576101546106a5565b5b60200260200101518484815181106101705761016f6106a5565b5b60200260200101516040518363ffffffff1660e01b81526004016101959291906106e3565b600060405180830381600087803b1580156101af57600080fd5b505af11580156101c3573d6000803e3d6000fd5b5050505080806101d29061073b565b9150506100fd565b507f11ee75453d1327abdfe4f7a8ad4821587837391f365bef110620811d7a2fa591848460405161020c929190610811565b60405180910390a150505050565b60008054906101000a900473ffffffffffffffffffffffffffffffffffffffff1681565b6000604051905090565b600080fd5b600080fd5b600073ffffffffffffffffffffffffffffffffffffffff82169050919050565b600061027d82610252565b9050919050565b61028d81610272565b811461029857600080fd5b50565b6000813590506102aa81610284565b92915050565b6000602082840312156102c6576102c5610248565b5b60006102d48482850161029b565b91505092915050565b6000819050919050565b6102f0816102dd565b81146102fb57600080fd5b50565b60008135905061030d816102e7565b92915050565b600080fd5b600080fd5b6000601f19601f8301169050919050565b7f4e487b7100000000000000000000000000000000000000000000000000000000600052604160045260246000fd5b6103668261031d565b810181811067ffffffffffffffff821117156103855761038461032e565b5b80604052505050565b600061039861023e565b90506103a4828261035d565b919050565b600067ffffffffffffffff8211156103c4576103c361032e565b5b6103cd8261031d565b9050602081019050919050565b82818337600083830152505050565b60006103fc6103f7846103a9565b61038e565b90508281526020810184848401111561041857610417610318565b5b6104238482856103da565b509392505050565b600082601f8301126104405761043f610313565b5b81356104508482602086016103e9565b91505092915050565b600080604083850312156104705761046f610248565b5b600061047e858286016102fe565b925050602083013567ffffffffffffffff81111561049f5761049e61024d565b5b6104ab8582860161042b565b9150509250929050565b6000819050919050565b60006104da6104d56104d084610252565b6104b5565b610252565b9050919050565b60006104ec826104bf565b9050919050565b60006104fe826104e1565b9050919050565b61050e816104f3565b82525050565b60006020820190506105296000830184610505565b92915050565b600067ffffffffffffffff82111561054a5761054961032e565b5b602082029050602081019050919050565b600080fd5b6000819050919050565b61057381610560565b811461057e57600080fd5b50565b6000815190506105908161056a565b92915050565b60006105a96105a48461052f565b61038e565b905080838252602082019050602084028301858111156105cc576105cb61055b565b5b835b818110156105f557806105e18882610581565b8452602084019350506020810190506105ce565b5050509392505050565b600082601f83011261061457610613610313565b5b8151610624848260208601610596565b91505092915050565b6000806040838503121561064457610643610248565b5b600083015167ffffffffffffffff8111156106625761066161024d565b5b61066e858286016105ff565b925050602083015167ffffffffffffffff81111561068f5761068e61024d565b5b61069b858286016105ff565b9150509250929050565b7f4e487b7100000000000000000000000000000000000000000000000000000000600052603260045260246000fd5b6106dd81610560565b82525050565b60006040820190506106f860008301856106d4565b61070560208301846106d4565b9392505050565b7f4e487b7100000000000000000000000000000000000000000000000000000000600052601160045260246000fd5b600061074682610560565b91507fffffffffffffffffffffffffffffffffffffffffffffffffffffffffffffffff82036107785761077761070c565b5b600182019050919050565b61078c816102dd565b82525050565b600081519050919050565b600082825260208201905092915050565b60005b838110156107cc5780820151818401526020810190506107b1565b60008484015250505050565b60006107e382610792565b6107ed818561079d565b93506107fd8185602086016107ae565b6108068161031d565b840191505092915050565b60006040820190506108266000830185610783565b818103602083015261083881846107d8565b9050939250505056fea2646970667358221220fd26ed810609e3989df26d2030174dfa94c80ff266993e3318ee90c55d7b2d5664736f6c63430008110033",
  "linkReferences": {},
  "deployedLinkReferences": {}
}