{
  "_format": "hh-sol-artifact-1",
  "contractName": "FakeCoprocessorAdapter",
  "sourceName": "contracts/FakeCoprocessorAdapter.sol",
  "abi": [
    {
      "anonymous": false,
      "inputs": [
        {
          "indexed": false,
          "internalType": "bytes32",
          "name": "payloadHash",
          "type": "bytes32"
        },
        {
          "indexed": false,
          "internalType": "bytes",
          "name": "output",
          "type": "bytes"
        }
      ],
      "name": "ResultReceived",
      "type": "event"
    },
    {
      "inputs": [
        {
          "internalType": "bytes32",
          "name": "payloadHash",
          "type": "bytes32"
        },
        {
          "internalType": "bytes",
          "name": "notice",
          "type": "bytes"
        }
      ],
      "name": "handleNotice",
      "outputs": [],
      "stateMutability": "nonpayable",
      "type": "function"
    },
    {
      "inputs": [],
      "name": "nftContract",
      "outputs": [
        {
          "internalType": "contract INFTPlayers",
          "name": "",
          "type": "address"
        }
      ],
      "stateMutability": "view",
      "type": "function"
    },
    {
      "inputs": [
        {
          "internalType": "bytes32",
          "name": "payloadHash",
          "type": "bytes32"
        },
        {
          "internalType": "bytes",
          "name": "notice",
          "type": "bytes"
        }
      ],
      "name": "nonodoHandleNotice",
      "outputs": [],
      "stateMutability": "nonpayable",
      "type": "function"
    },
    {
      "inputs": [
        {
          "internalType": "address",
          "name": "nftAddress",
          "type": "address"
        }
      ],
      "name": "setNFTPlayersContract",
      "outputs": [],
      "stateMutability": "nonpayable",
      "type": "function"
    }
  ],
  "bytecode": "0x608060405234801561001057600080fd5b506108ac806100206000396000f3fe608060405234801561001057600080fd5b506004361061004c5760003560e01c806306553cf314610051578063a3bc94661461006d578063a77d99c814610089578063d56d229d146100a5575b600080fd5b61006b600480360381019061006691906102e5565b6100c3565b005b6100876004803603810190610082919061048e565b610106565b005b6100a3600480360381019061009e919061048e565b610241565b005b6100ad61024f565b6040516100ba9190610549565b60405180910390f35b806000806101000a81548173ffffffffffffffffffffffffffffffffffffffff021916908373ffffffffffffffffffffffffffffffffffffffff16021790555050565b6000808280602001905181019061011d9190610662565b9150915060005b82518110156102015760008054906101000a900473ffffffffffffffffffffffffffffffffffffffff1673ffffffffffffffffffffffffffffffffffffffff1663dc0ab92584838151811061017c5761017b6106da565b5b6020026020010151848481518110610197576101966106da565b5b60200260200101516040518363ffffffff1660e01b81526004016101bc929190610718565b600060405180830381600087803b1580156101d657600080fd5b505af11580156101ea573d6000803e3d6000fd5b5050505080806101f990610770565b915050610124565b507f11ee75453d1327abdfe4f7a8ad4821587837391f365bef110620811d7a2fa5918484604051610233929190610846565b60405180910390a150505050565b61024b8282610106565b5050565b60008054906101000a900473ffffffffffffffffffffffffffffffffffffffff1681565b6000604051905090565b600080fd5b600080fd5b600073ffffffffffffffffffffffffffffffffffffffff82169050919050565b60006102b282610287565b9050919050565b6102c2816102a7565b81146102cd57600080fd5b50565b6000813590506102df816102b9565b92915050565b6000602082840312156102fb576102fa61027d565b5b6000610309848285016102d0565b91505092915050565b6000819050919050565b61032581610312565b811461033057600080fd5b50565b6000813590506103428161031c565b92915050565b600080fd5b600080fd5b6000601f19601f8301169050919050565b7f4e487b7100000000000000000000000000000000000000000000000000000000600052604160045260246000fd5b61039b82610352565b810181811067ffffffffffffffff821117156103ba576103b9610363565b5b80604052505050565b60006103cd610273565b90506103d98282610392565b919050565b600067ffffffffffffffff8211156103f9576103f8610363565b5b61040282610352565b9050602081019050919050565b82818337600083830152505050565b600061043161042c846103de565b6103c3565b90508281526020810184848401111561044d5761044c61034d565b5b61045884828561040f565b509392505050565b600082601f83011261047557610474610348565b5b813561048584826020860161041e565b91505092915050565b600080604083850312156104a5576104a461027d565b5b60006104b385828601610333565b925050602083013567ffffffffffffffff8111156104d4576104d3610282565b5b6104e085828601610460565b9150509250929050565b6000819050919050565b600061050f61050a61050584610287565b6104ea565b610287565b9050919050565b6000610521826104f4565b9050919050565b600061053382610516565b9050919050565b61054381610528565b82525050565b600060208201905061055e600083018461053a565b92915050565b600067ffffffffffffffff82111561057f5761057e610363565b5b602082029050602081019050919050565b600080fd5b6000819050919050565b6105a881610595565b81146105b357600080fd5b50565b6000815190506105c58161059f565b92915050565b60006105de6105d984610564565b6103c3565b9050808382526020820190506020840283018581111561060157610600610590565b5b835b8181101561062a578061061688826105b6565b845260208401935050602081019050610603565b5050509392505050565b600082601f83011261064957610648610348565b5b81516106598482602086016105cb565b91505092915050565b600080604083850312156106795761067861027d565b5b600083015167ffffffffffffffff81111561069757610696610282565b5b6106a385828601610634565b925050602083015167ffffffffffffffff8111156106c4576106c3610282565b5b6106d085828601610634565b9150509250929050565b7f4e487b7100000000000000000000000000000000000000000000000000000000600052603260045260246000fd5b61071281610595565b82525050565b600060408201905061072d6000830185610709565b61073a6020830184610709565b9392505050565b7f4e487b7100000000000000000000000000000000000000000000000000000000600052601160045260246000fd5b600061077b82610595565b91507fffffffffffffffffffffffffffffffffffffffffffffffffffffffffffffffff82036107ad576107ac610741565b5b600182019050919050565b6107c181610312565b82525050565b600081519050919050565b600082825260208201905092915050565b60005b838110156108015780820151818401526020810190506107e6565b60008484015250505050565b6000610818826107c7565b61082281856107d2565b93506108328185602086016107e3565b61083b81610352565b840191505092915050565b600060408201905061085b60008301856107b8565b818103602083015261086d818461080d565b9050939250505056fea2646970667358221220438518b1c4a7d4606a53c2566cfb2297c75df78c99b2f79685563ab15068572864736f6c63430008110033",
  "linkReferences": {},
  "deployedLinkReferences": {}
}