{
  "_format": "hh-sol-artifact-1",
  "contractName": "NFTPlayers",
  "sourceName": "contracts/NFTPlayers.sol",
  "abi": [
    {
      "inputs": [],
      "stateMutability": "nonpayable",
      "type": "constructor"
    },
    {
      "anonymous": false,
      "inputs": [
        {
          "indexed": true,
          "internalType": "address",
          "name": "owner",
          "type": "address"
        },
        {
          "indexed": true,
          "internalType": "address",
          "name": "approved",
          "type": "address"
        },
        {
          "indexed": true,
          "internalType": "uint256",
          "name": "tokenId",
          "type": "uint256"
        }
      ],
      "name": "Approval",
      "type": "event"
    },
    {
      "anonymous": false,
      "inputs": [
        {
          "indexed": true,
          "internalType": "address",
          "name": "owner",
          "type": "address"
        },
        {
          "indexed": true,
          "internalType": "address",
          "name": "operator",
          "type": "address"
        },
        {
          "indexed": false,
          "internalType": "bool",
          "name": "approved",
          "type": "bool"
        }
      ],
      "name": "ApprovalForAll",
      "type": "event"
    },
    {
      "anonymous": false,
      "inputs": [
        {
          "indexed": true,
          "internalType": "address",
          "name": "previousOwner",
          "type": "address"
        },
        {
          "indexed": true,
          "internalType": "address",
          "name": "newOwner",
          "type": "address"
        }
      ],
      "name": "OwnershipTransferred",
      "type": "event"
    },
    {
      "anonymous": false,
      "inputs": [
        {
          "indexed": true,
          "internalType": "address",
          "name": "from",
          "type": "address"
        },
        {
          "indexed": true,
          "internalType": "address",
          "name": "to",
          "type": "address"
        },
        {
          "indexed": true,
          "internalType": "uint256",
          "name": "tokenId",
          "type": "uint256"
        }
      ],
      "name": "Transfer",
      "type": "event"
    },
    {
      "inputs": [
        {
          "internalType": "address",
          "name": "to",
          "type": "address"
        },
        {
          "internalType": "uint256",
          "name": "tokenId",
          "type": "uint256"
        }
      ],
      "name": "approve",
      "outputs": [],
      "stateMutability": "nonpayable",
      "type": "function"
    },
    {
      "inputs": [
        {
          "internalType": "address",
          "name": "owner",
          "type": "address"
        }
      ],
      "name": "balanceOf",
      "outputs": [
        {
          "internalType": "uint256",
          "name": "",
          "type": "uint256"
        }
      ],
      "stateMutability": "view",
      "type": "function"
    },
    {
      "inputs": [
        {
          "internalType": "uint256",
          "name": "tokenId",
          "type": "uint256"
        }
      ],
      "name": "getApproved",
      "outputs": [
        {
          "internalType": "address",
          "name": "",
          "type": "address"
        }
      ],
      "stateMutability": "view",
      "type": "function"
    },
    {
      "inputs": [],
      "name": "getAuthority",
      "outputs": [
        {
          "internalType": "address",
          "name": "",
          "type": "address"
        }
      ],
      "stateMutability": "view",
      "type": "function"
    },
    {
      "inputs": [
        {
          "internalType": "uint256",
          "name": "tokenId",
          "type": "uint256"
        }
      ],
      "name": "getLevel",
      "outputs": [
        {
          "internalType": "uint8",
          "name": "",
          "type": "uint8"
        }
      ],
      "stateMutability": "view",
      "type": "function"
    },
    {
      "inputs": [
        {
          "internalType": "uint256",
          "name": "tokenId",
          "type": "uint256"
        }
      ],
      "name": "getName",
      "outputs": [
        {
          "internalType": "string",
          "name": "",
          "type": "string"
        }
      ],
      "stateMutability": "view",
      "type": "function"
    },
    {
      "inputs": [
        {
          "internalType": "uint256",
          "name": "tokenId",
          "type": "uint256"
        }
      ],
      "name": "getRandomNumber",
      "outputs": [
        {
          "internalType": "uint8",
          "name": "",
          "type": "uint8"
        }
      ],
      "stateMutability": "view",
      "type": "function"
    },
    {
      "inputs": [
        {
          "internalType": "address",
          "name": "owner",
          "type": "address"
        },
        {
          "internalType": "address",
          "name": "operator",
          "type": "address"
        }
      ],
      "name": "isApprovedForAll",
      "outputs": [
        {
          "internalType": "bool",
          "name": "",
          "type": "bool"
        }
      ],
      "stateMutability": "view",
      "type": "function"
    },
    {
      "inputs": [
        {
          "internalType": "address",
          "name": "collector",
          "type": "address"
        },
        {
          "internalType": "uint256",
          "name": "tokenId",
          "type": "uint256"
        },
        {
          "internalType": "string",
          "name": "_tokenURI",
          "type": "string"
        },
        {
          "internalType": "string",
          "name": "name",
          "type": "string"
        }
      ],
      "name": "mintNFT",
      "outputs": [],
      "stateMutability": "nonpayable",
      "type": "function"
    },
    {
      "inputs": [],
      "name": "name",
      "outputs": [
        {
          "internalType": "string",
          "name": "",
          "type": "string"
        }
      ],
      "stateMutability": "view",
      "type": "function"
    },
    {
      "inputs": [],
      "name": "owner",
      "outputs": [
        {
          "internalType": "address",
          "name": "",
          "type": "address"
        }
      ],
      "stateMutability": "view",
      "type": "function"
    },
    {
      "inputs": [
        {
          "internalType": "uint256",
          "name": "tokenId",
          "type": "uint256"
        }
      ],
      "name": "ownerOf",
      "outputs": [
        {
          "internalType": "address",
          "name": "",
          "type": "address"
        }
      ],
      "stateMutability": "view",
      "type": "function"
    },
    {
      "inputs": [],
      "name": "renounceOwnership",
      "outputs": [],
      "stateMutability": "nonpayable",
      "type": "function"
    },
    {
      "inputs": [
        {
          "internalType": "address",
          "name": "from",
          "type": "address"
        },
        {
          "internalType": "address",
          "name": "to",
          "type": "address"
        },
        {
          "internalType": "uint256",
          "name": "tokenId",
          "type": "uint256"
        }
      ],
      "name": "safeTransferFrom",
      "outputs": [],
      "stateMutability": "nonpayable",
      "type": "function"
    },
    {
      "inputs": [
        {
          "internalType": "address",
          "name": "from",
          "type": "address"
        },
        {
          "internalType": "address",
          "name": "to",
          "type": "address"
        },
        {
          "internalType": "uint256",
          "name": "tokenId",
          "type": "uint256"
        },
        {
          "internalType": "bytes",
          "name": "data",
          "type": "bytes"
        }
      ],
      "name": "safeTransferFrom",
      "outputs": [],
      "stateMutability": "nonpayable",
      "type": "function"
    },
    {
      "inputs": [
        {
          "internalType": "address",
          "name": "operator",
          "type": "address"
        },
        {
          "internalType": "bool",
          "name": "approved",
          "type": "bool"
        }
      ],
      "name": "setApprovalForAll",
      "outputs": [],
      "stateMutability": "nonpayable",
      "type": "function"
    },
    {
      "inputs": [
        {
          "internalType": "address",
          "name": "_authority",
          "type": "address"
        }
      ],
      "name": "setAuthority",
      "outputs": [],
      "stateMutability": "nonpayable",
      "type": "function"
    },
    {
      "inputs": [
        {
          "internalType": "bytes4",
          "name": "interfaceId",
          "type": "bytes4"
        }
      ],
      "name": "supportsInterface",
      "outputs": [
        {
          "internalType": "bool",
          "name": "",
          "type": "bool"
        }
      ],
      "stateMutability": "view",
      "type": "function"
    },
    {
      "inputs": [],
      "name": "symbol",
      "outputs": [
        {
          "internalType": "string",
          "name": "",
          "type": "string"
        }
      ],
      "stateMutability": "view",
      "type": "function"
    },
    {
      "inputs": [
        {
          "internalType": "uint256",
          "name": "tokenId",
          "type": "uint256"
        }
      ],
      "name": "tokenURI",
      "outputs": [
        {
          "internalType": "string",
          "name": "",
          "type": "string"
        }
      ],
      "stateMutability": "view",
      "type": "function"
    },
    {
      "inputs": [
        {
          "internalType": "address",
          "name": "from",
          "type": "address"
        },
        {
          "internalType": "address",
          "name": "to",
          "type": "address"
        },
        {
          "internalType": "uint256",
          "name": "tokenId",
          "type": "uint256"
        }
      ],
      "name": "transferFrom",
      "outputs": [],
      "stateMutability": "nonpayable",
      "type": "function"
    },
    {
      "inputs": [
        {
          "internalType": "address",
          "name": "newOwner",
          "type": "address"
        }
      ],
      "name": "transferOwnership",
      "outputs": [],
      "stateMutability": "nonpayable",
      "type": "function"
    }
  ],
  "bytecode": "0x60806040523480156200001157600080fd5b506040518060400160405280600a81526020017f4e4654506c6179657273000000000000000000000000000000000000000000008152506040518060400160405280600681526020017f4e4f4e46554e000000000000000000000000000000000000000000000000000081525081600090816200008f919062000412565b508060019081620000a1919062000412565b505050620000c4620000b8620000ca60201b60201c565b620000d260201b60201c565b620004f9565b600033905090565b6000600660009054906101000a900473ffffffffffffffffffffffffffffffffffffffff16905081600660006101000a81548173ffffffffffffffffffffffffffffffffffffffff021916908373ffffffffffffffffffffffffffffffffffffffff1602179055508173ffffffffffffffffffffffffffffffffffffffff168173ffffffffffffffffffffffffffffffffffffffff167f8be0079c531659141344cd1fd0a4f28419497f9722a3daafe3b4186f6b6457e060405160405180910390a35050565b600081519050919050565b7f4e487b7100000000000000000000000000000000000000000000000000000000600052604160045260246000fd5b7f4e487b7100000000000000000000000000000000000000000000000000000000600052602260045260246000fd5b600060028204905060018216806200021a57607f821691505b60208210810362000230576200022f620001d2565b5b50919050565b60008190508160005260206000209050919050565b60006020601f8301049050919050565b600082821b905092915050565b6000600883026200029a7fffffffffffffffffffffffffffffffffffffffffffffffffffffffffffffffff826200025b565b620002a686836200025b565b95508019841693508086168417925050509392505050565b6000819050919050565b6000819050919050565b6000620002f3620002ed620002e784620002be565b620002c8565b620002be565b9050919050565b6000819050919050565b6200030f83620002d2565b620003276200031e82620002fa565b84845462000268565b825550505050565b600090565b6200033e6200032f565b6200034b81848462000304565b505050565b5b8181101562000373576200036760008262000334565b60018101905062000351565b5050565b601f821115620003c2576200038c8162000236565b62000397846200024b565b81016020851015620003a7578190505b620003bf620003b6856200024b565b83018262000350565b50505b505050565b600082821c905092915050565b6000620003e760001984600802620003c7565b1980831691505092915050565b6000620004028383620003d4565b9150826002028217905092915050565b6200041d8262000198565b67ffffffffffffffff811115620004395762000438620001a3565b5b62000445825462000201565b6200045282828562000377565b600060209050601f8311600181146200048a576000841562000475578287015190505b620004818582620003f4565b865550620004f1565b601f1984166200049a8662000236565b60005b82811015620004c4578489015182556001820191506020850194506020810190506200049d565b86831015620004e45784890151620004e0601f891682620003d4565b8355505b6001600288020188555050505b505050505050565b61332880620005096000396000f3fe608060405234801561001057600080fd5b50600436106101425760003560e01c806386481d40116100b8578063b37217a41161007c578063b37217a414610373578063b88d4fde146103a3578063c87b56dd146103bf578063e2b178a0146103ef578063e985e9c51461040d578063f2fde38b1461043d57610142565b806386481d40146102cf5780638da5cb5b146102ff57806395d89b411461031d5780639d615ae51461033b578063a22cb4651461035757610142565b806342842e0e1161010a57806342842e0e146101fd5780636352211e146102195780636b8ff5741461024957806370a0823114610279578063715018a6146102a95780637a9e5e4b146102b357610142565b806301ffc9a71461014757806306fdde0314610177578063081812fc14610195578063095ea7b3146101c557806323b872dd146101e1575b600080fd5b610161600480360381019061015c9190611e58565b610459565b60405161016e9190611ea0565b60405180910390f35b61017f61053b565b60405161018c9190611f4b565b60405180910390f35b6101af60048036038101906101aa9190611fa3565b6105cd565b6040516101bc9190612011565b60405180910390f35b6101df60048036038101906101da9190612058565b610613565b005b6101fb60048036038101906101f69190612098565b61072a565b005b61021760048036038101906102129190612098565b61078a565b005b610233600480360381019061022e9190611fa3565b6107aa565b6040516102409190612011565b60405180910390f35b610263600480360381019061025e9190611fa3565b610830565b6040516102709190611f4b565b60405180910390f35b610293600480360381019061028e91906120eb565b6108d5565b6040516102a09190612127565b60405180910390f35b6102b161098c565b005b6102cd60048036038101906102c891906120eb565b6109a0565b005b6102e960048036038101906102e49190611fa3565b6109ec565b6040516102f6919061215e565b60405180910390f35b610307610a16565b6040516103149190612011565b60405180910390f35b610325610a40565b6040516103329190611f4b565b60405180910390f35b610355600480360381019061035091906122ae565b610ad2565b005b610371600480360381019061036c9190612379565b610c96565b005b61038d60048036038101906103889190611fa3565b610cac565b60405161039a919061215e565b60405180910390f35b6103bd60048036038101906103b8919061245a565b610d00565b005b6103d960048036038101906103d49190611fa3565b610d62565b6040516103e69190611f4b565b60405180910390f35b6103f7610db0565b6040516104049190612011565b60405180910390f35b610427600480360381019061042291906124dd565b610dda565b6040516104349190611ea0565b60405180910390f35b610457600480360381019061045291906120eb565b610e6e565b005b60007f80ac58cd000000000000000000000000000000000000000000000000000000007bffffffffffffffffffffffffffffffffffffffffffffffffffffffff1916827bffffffffffffffffffffffffffffffffffffffffffffffffffffffff1916148061052457507f5b5e139f000000000000000000000000000000000000000000000000000000007bffffffffffffffffffffffffffffffffffffffffffffffffffffffff1916827bffffffffffffffffffffffffffffffffffffffffffffffffffffffff1916145b80610534575061053382610ef1565b5b9050919050565b60606000805461054a9061254c565b80601f01602080910402602001604051908101604052809291908181526020018280546105769061254c565b80156105c35780601f10610598576101008083540402835291602001916105c3565b820191906000526020600020905b8154815290600101906020018083116105a657829003601f168201915b5050505050905090565b60006105d882610f5b565b6004600083815260200190815260200160002060009054906101000a900473ffffffffffffffffffffffffffffffffffffffff169050919050565b600061061e826107aa565b90508073ffffffffffffffffffffffffffffffffffffffff168373ffffffffffffffffffffffffffffffffffffffff160361068e576040517f08c379a0000000000000000000000000000000000000000000000000000000008152600401610685906125ef565b60405180910390fd5b8073ffffffffffffffffffffffffffffffffffffffff166106ad610fa6565b73ffffffffffffffffffffffffffffffffffffffff1614806106dc57506106db816106d6610fa6565b610dda565b5b61071b576040517f08c379a000000000000000000000000000000000000000000000000000000000815260040161071290612681565b60405180910390fd5b6107258383610fae565b505050565b61073b610735610fa6565b82611067565b61077a576040517f08c379a000000000000000000000000000000000000000000000000000000000815260040161077190612713565b60405180910390fd5b6107858383836110fc565b505050565b6107a583838360405180602001604052806000815250610d00565b505050565b6000806107b6836113f5565b9050600073ffffffffffffffffffffffffffffffffffffffff168173ffffffffffffffffffffffffffffffffffffffff1603610827576040517f08c379a000000000000000000000000000000000000000000000000000000000815260040161081e9061277f565b60405180910390fd5b80915050919050565b6060600a600083815260200190815260200160002080546108509061254c565b80601f016020809104026020016040519081016040528092919081815260200182805461087c9061254c565b80156108c95780601f1061089e576101008083540402835291602001916108c9565b820191906000526020600020905b8154815290600101906020018083116108ac57829003601f168201915b50505050509050919050565b60008073ffffffffffffffffffffffffffffffffffffffff168273ffffffffffffffffffffffffffffffffffffffff1603610945576040517f08c379a000000000000000000000000000000000000000000000000000000000815260040161093c90612811565b60405180910390fd5b600360008373ffffffffffffffffffffffffffffffffffffffff1673ffffffffffffffffffffffffffffffffffffffff168152602001908152602001600020549050919050565b610994611432565b61099e60006114b0565b565b6109a8611432565b80600760006101000a81548173ffffffffffffffffffffffffffffffffffffffff021916908373ffffffffffffffffffffffffffffffffffffffff16021790555050565b60006009600083815260200190815260200160002060009054906101000a900460ff169050919050565b6000600660009054906101000a900473ffffffffffffffffffffffffffffffffffffffff16905090565b606060018054610a4f9061254c565b80601f0160208091040260200160405190810160405280929190818152602001828054610a7b9061254c565b8015610ac85780601f10610a9d57610100808354040283529160200191610ac8565b820191906000526020600020905b815481529060010190602001808311610aab57829003601f168201915b5050505050905090565b3373ffffffffffffffffffffffffffffffffffffffff16600760009054906101000a900473ffffffffffffffffffffffffffffffffffffffff1673ffffffffffffffffffffffffffffffffffffffff161480610b6057503373ffffffffffffffffffffffffffffffffffffffff16610b48610a16565b73ffffffffffffffffffffffffffffffffffffffff16145b610b9f576040517f08c379a0000000000000000000000000000000000000000000000000000000008152600401610b969061287d565b60405180910390fd5b610ba98484611576565b81600860008581526020019081526020016000209081610bc99190612a49565b503073ffffffffffffffffffffffffffffffffffffffff1663b37217a4846040518263ffffffff1660e01b8152600401610c039190612127565b602060405180830381865afa158015610c20573d6000803e3d6000fd5b505050506040513d601f19601f82011682018060405250810190610c449190612b47565b6009600085815260200190815260200160002060006101000a81548160ff021916908360ff16021790555080600a60008581526020019081526020016000209081610c8f9190612a49565b5050505050565b610ca8610ca1610fa6565b8383611594565b5050565b600080824333604051602001610cc493929190612bdd565b6040516020818303038152906040528051906020012060001c90506001600582610cee9190612c49565b610cf89190612ca9565b915050919050565b610d11610d0b610fa6565b83611067565b610d50576040517f08c379a0000000000000000000000000000000000000000000000000000000008152600401610d4790612713565b60405180910390fd5b610d5c84848484611700565b50505050565b6060610d6d82610f5b565b60086000838152602001908152602001600020610d898361175c565b604051602001610d9a929190612de8565b6040516020818303038152906040529050919050565b6000600760009054906101000a900473ffffffffffffffffffffffffffffffffffffffff16905090565b6000600560008473ffffffffffffffffffffffffffffffffffffffff1673ffffffffffffffffffffffffffffffffffffffff16815260200190815260200160002060008373ffffffffffffffffffffffffffffffffffffffff1673ffffffffffffffffffffffffffffffffffffffff16815260200190815260200160002060009054906101000a900460ff16905092915050565b610e76611432565b600073ffffffffffffffffffffffffffffffffffffffff168173ffffffffffffffffffffffffffffffffffffffff1603610ee5576040517f08c379a0000000000000000000000000000000000000000000000000000000008152600401610edc90612e89565b60405180910390fd5b610eee816114b0565b50565b60007f01ffc9a7000000000000000000000000000000000000000000000000000000007bffffffffffffffffffffffffffffffffffffffffffffffffffffffff1916827bffffffffffffffffffffffffffffffffffffffffffffffffffffffff1916149050919050565b610f648161182a565b610fa3576040517f08c379a0000000000000000000000000000000000000000000000000000000008152600401610f9a9061277f565b60405180910390fd5b50565b600033905090565b816004600083815260200190815260200160002060006101000a81548173ffffffffffffffffffffffffffffffffffffffff021916908373ffffffffffffffffffffffffffffffffffffffff160217905550808273ffffffffffffffffffffffffffffffffffffffff16611021836107aa565b73ffffffffffffffffffffffffffffffffffffffff167f8c5be1e5ebec7d5bd14f71427d1e84f3dd0314c0f7b2291e5b200ac8c7c3b92560405160405180910390a45050565b600080611073836107aa565b90508073ffffffffffffffffffffffffffffffffffffffff168473ffffffffffffffffffffffffffffffffffffffff1614806110b557506110b48185610dda565b5b806110f357508373ffffffffffffffffffffffffffffffffffffffff166110db846105cd565b73ffffffffffffffffffffffffffffffffffffffff16145b91505092915050565b8273ffffffffffffffffffffffffffffffffffffffff1661111c826107aa565b73ffffffffffffffffffffffffffffffffffffffff1614611172576040517f08c379a000000000000000000000000000000000000000000000000000000000815260040161116990612f1b565b60405180910390fd5b600073ffffffffffffffffffffffffffffffffffffffff168273ffffffffffffffffffffffffffffffffffffffff16036111e1576040517f08c379a00000000000000000000000000000000000000000000000000000000081526004016111d890612fad565b60405180910390fd5b6111ee838383600161186b565b8273ffffffffffffffffffffffffffffffffffffffff1661120e826107aa565b73ffffffffffffffffffffffffffffffffffffffff1614611264576040517f08c379a000000000000000000000000000000000000000000000000000000000815260040161125b90612f1b565b60405180910390fd5b6004600082815260200190815260200160002060006101000a81549073ffffffffffffffffffffffffffffffffffffffff02191690556001600360008573ffffffffffffffffffffffffffffffffffffffff1673ffffffffffffffffffffffffffffffffffffffff168152602001908152602001600020600082825403925050819055506001600360008473ffffffffffffffffffffffffffffffffffffffff1673ffffffffffffffffffffffffffffffffffffffff16815260200190815260200160002060008282540192505081905550816002600083815260200190815260200160002060006101000a81548173ffffffffffffffffffffffffffffffffffffffff021916908373ffffffffffffffffffffffffffffffffffffffff160217905550808273ffffffffffffffffffffffffffffffffffffffff168473ffffffffffffffffffffffffffffffffffffffff167fddf252ad1be2c89b69c2b068fc378daa952ba7f163c4a11628f55a4df523b3ef60405160405180910390a46113f08383836001611871565b505050565b60006002600083815260200190815260200160002060009054906101000a900473ffffffffffffffffffffffffffffffffffffffff169050919050565b61143a610fa6565b73ffffffffffffffffffffffffffffffffffffffff16611458610a16565b73ffffffffffffffffffffffffffffffffffffffff16146114ae576040517f08c379a00000000000000000000000000000000000000000000000000000000081526004016114a590613019565b60405180910390fd5b565b6000600660009054906101000a900473ffffffffffffffffffffffffffffffffffffffff16905081600660006101000a81548173ffffffffffffffffffffffffffffffffffffffff021916908373ffffffffffffffffffffffffffffffffffffffff1602179055508173ffffffffffffffffffffffffffffffffffffffff168173ffffffffffffffffffffffffffffffffffffffff167f8be0079c531659141344cd1fd0a4f28419497f9722a3daafe3b4186f6b6457e060405160405180910390a35050565b611590828260405180602001604052806000815250611877565b5050565b8173ffffffffffffffffffffffffffffffffffffffff168373ffffffffffffffffffffffffffffffffffffffff1603611602576040517f08c379a00000000000000000000000000000000000000000000000000000000081526004016115f990613085565b60405180910390fd5b80600560008573ffffffffffffffffffffffffffffffffffffffff1673ffffffffffffffffffffffffffffffffffffffff16815260200190815260200160002060008473ffffffffffffffffffffffffffffffffffffffff1673ffffffffffffffffffffffffffffffffffffffff16815260200190815260200160002060006101000a81548160ff0219169083151502179055508173ffffffffffffffffffffffffffffffffffffffff168373ffffffffffffffffffffffffffffffffffffffff167f17307eab39ab6107e8899845ad3d59bd9653f200f220920489ca2b5937696c31836040516116f39190611ea0565b60405180910390a3505050565b61170b8484846110fc565b611717848484846118d2565b611756576040517f08c379a000000000000000000000000000000000000000000000000000000000815260040161174d90613117565b60405180910390fd5b50505050565b60606000600161176b84611a59565b01905060008167ffffffffffffffff81111561178a57611789612183565b5b6040519080825280601f01601f1916602001820160405280156117bc5781602001600182028036833780820191505090505b509050600082602001820190505b60011561181f578080600190039150507f3031323334353637383961626364656600000000000000000000000000000000600a86061a8153600a858161181357611812612c1a565b5b049450600085036117ca575b819350505050919050565b60008073ffffffffffffffffffffffffffffffffffffffff1661184c836113f5565b73ffffffffffffffffffffffffffffffffffffffff1614159050919050565b50505050565b50505050565b6118818383611bac565b61188e60008484846118d2565b6118cd576040517f08c379a00000000000000000000000000000000000000000000000000000000081526004016118c490613117565b60405180910390fd5b505050565b60006118f38473ffffffffffffffffffffffffffffffffffffffff16611dc9565b15611a4c578373ffffffffffffffffffffffffffffffffffffffff1663150b7a0261191c610fa6565b8786866040518563ffffffff1660e01b815260040161193e949392919061318c565b6020604051808303816000875af192505050801561197a57506040513d601f19601f8201168201806040525081019061197791906131ed565b60015b6119fc573d80600081146119aa576040519150601f19603f3d011682016040523d82523d6000602084013e6119af565b606091505b5060008151036119f4576040517f08c379a00000000000000000000000000000000000000000000000000000000081526004016119eb90613117565b60405180910390fd5b805181602001fd5b63150b7a0260e01b7bffffffffffffffffffffffffffffffffffffffffffffffffffffffff1916817bffffffffffffffffffffffffffffffffffffffffffffffffffffffff191614915050611a51565b600190505b949350505050565b600080600090507a184f03e93ff9f4daa797ed6e38ed64bf6a1f0100000000000000008310611ab7577a184f03e93ff9f4daa797ed6e38ed64bf6a1f0100000000000000008381611aad57611aac612c1a565b5b0492506040810190505b6d04ee2d6d415b85acef81000000008310611af4576d04ee2d6d415b85acef81000000008381611aea57611ae9612c1a565b5b0492506020810190505b662386f26fc100008310611b2357662386f26fc100008381611b1957611b18612c1a565b5b0492506010810190505b6305f5e1008310611b4c576305f5e1008381611b4257611b41612c1a565b5b0492506008810190505b6127108310611b71576127108381611b6757611b66612c1a565b5b0492506004810190505b60648310611b945760648381611b8a57611b89612c1a565b5b0492506002810190505b600a8310611ba3576001810190505b80915050919050565b600073ffffffffffffffffffffffffffffffffffffffff168273ffffffffffffffffffffffffffffffffffffffff1603611c1b576040517f08c379a0000000000000000000000000000000000000000000000000000000008152600401611c1290613266565b60405180910390fd5b611c248161182a565b15611c64576040517f08c379a0000000000000000000000000000000000000000000000000000000008152600401611c5b906132d2565b60405180910390fd5b611c7260008383600161186b565b611c7b8161182a565b15611cbb576040517f08c379a0000000000000000000000000000000000000000000000000000000008152600401611cb2906132d2565b60405180910390fd5b6001600360008473ffffffffffffffffffffffffffffffffffffffff1673ffffffffffffffffffffffffffffffffffffffff16815260200190815260200160002060008282540192505081905550816002600083815260200190815260200160002060006101000a81548173ffffffffffffffffffffffffffffffffffffffff021916908373ffffffffffffffffffffffffffffffffffffffff160217905550808273ffffffffffffffffffffffffffffffffffffffff16600073ffffffffffffffffffffffffffffffffffffffff167fddf252ad1be2c89b69c2b068fc378daa952ba7f163c4a11628f55a4df523b3ef60405160405180910390a4611dc5600083836001611871565b5050565b6000808273ffffffffffffffffffffffffffffffffffffffff163b119050919050565b6000604051905090565b600080fd5b600080fd5b60007fffffffff0000000000000000000000000000000000000000000000000000000082169050919050565b611e3581611e00565b8114611e4057600080fd5b50565b600081359050611e5281611e2c565b92915050565b600060208284031215611e6e57611e6d611df6565b5b6000611e7c84828501611e43565b91505092915050565b60008115159050919050565b611e9a81611e85565b82525050565b6000602082019050611eb56000830184611e91565b92915050565b600081519050919050565b600082825260208201905092915050565b60005b83811015611ef5578082015181840152602081019050611eda565b60008484015250505050565b6000601f19601f8301169050919050565b6000611f1d82611ebb565b611f278185611ec6565b9350611f37818560208601611ed7565b611f4081611f01565b840191505092915050565b60006020820190508181036000830152611f658184611f12565b905092915050565b6000819050919050565b611f8081611f6d565b8114611f8b57600080fd5b50565b600081359050611f9d81611f77565b92915050565b600060208284031215611fb957611fb8611df6565b5b6000611fc784828501611f8e565b91505092915050565b600073ffffffffffffffffffffffffffffffffffffffff82169050919050565b6000611ffb82611fd0565b9050919050565b61200b81611ff0565b82525050565b60006020820190506120266000830184612002565b92915050565b61203581611ff0565b811461204057600080fd5b50565b6000813590506120528161202c565b92915050565b6000806040838503121561206f5761206e611df6565b5b600061207d85828601612043565b925050602061208e85828601611f8e565b9150509250929050565b6000806000606084860312156120b1576120b0611df6565b5b60006120bf86828701612043565b93505060206120d086828701612043565b92505060406120e186828701611f8e565b9150509250925092565b60006020828403121561210157612100611df6565b5b600061210f84828501612043565b91505092915050565b61212181611f6d565b82525050565b600060208201905061213c6000830184612118565b92915050565b600060ff82169050919050565b61215881612142565b82525050565b6000602082019050612173600083018461214f565b92915050565b600080fd5b600080fd5b7f4e487b7100000000000000000000000000000000000000000000000000000000600052604160045260246000fd5b6121bb82611f01565b810181811067ffffffffffffffff821117156121da576121d9612183565b5b80604052505050565b60006121ed611dec565b90506121f982826121b2565b919050565b600067ffffffffffffffff82111561221957612218612183565b5b61222282611f01565b9050602081019050919050565b82818337600083830152505050565b600061225161224c846121fe565b6121e3565b90508281526020810184848401111561226d5761226c61217e565b5b61227884828561222f565b509392505050565b600082601f83011261229557612294612179565b5b81356122a584826020860161223e565b91505092915050565b600080600080608085870312156122c8576122c7611df6565b5b60006122d687828801612043565b94505060206122e787828801611f8e565b935050604085013567ffffffffffffffff81111561230857612307611dfb565b5b61231487828801612280565b925050606085013567ffffffffffffffff81111561233557612334611dfb565b5b61234187828801612280565b91505092959194509250565b61235681611e85565b811461236157600080fd5b50565b6000813590506123738161234d565b92915050565b600080604083850312156123905761238f611df6565b5b600061239e85828601612043565b92505060206123af85828601612364565b9150509250929050565b600067ffffffffffffffff8211156123d4576123d3612183565b5b6123dd82611f01565b9050602081019050919050565b60006123fd6123f8846123b9565b6121e3565b9050828152602081018484840111156124195761241861217e565b5b61242484828561222f565b509392505050565b600082601f83011261244157612440612179565b5b81356124518482602086016123ea565b91505092915050565b6000806000806080858703121561247457612473611df6565b5b600061248287828801612043565b945050602061249387828801612043565b93505060406124a487828801611f8e565b925050606085013567ffffffffffffffff8111156124c5576124c4611dfb565b5b6124d18782880161242c565b91505092959194509250565b600080604083850312156124f4576124f3611df6565b5b600061250285828601612043565b925050602061251385828601612043565b9150509250929050565b7f4e487b7100000000000000000000000000000000000000000000000000000000600052602260045260246000fd5b6000600282049050600182168061256457607f821691505b6020821081036125775761257661251d565b5b50919050565b7f4552433732313a20617070726f76616c20746f2063757272656e74206f776e6560008201527f7200000000000000000000000000000000000000000000000000000000000000602082015250565b60006125d9602183611ec6565b91506125e48261257d565b604082019050919050565b60006020820190508181036000830152612608816125cc565b9050919050565b7f4552433732313a20617070726f76652063616c6c6572206973206e6f7420746f60008201527f6b656e206f776e6572206f7220617070726f76656420666f7220616c6c000000602082015250565b600061266b603d83611ec6565b91506126768261260f565b604082019050919050565b6000602082019050818103600083015261269a8161265e565b9050919050565b7f4552433732313a2063616c6c6572206973206e6f7420746f6b656e206f776e6560008201527f72206f7220617070726f76656400000000000000000000000000000000000000602082015250565b60006126fd602d83611ec6565b9150612708826126a1565b604082019050919050565b6000602082019050818103600083015261272c816126f0565b9050919050565b7f4552433732313a20696e76616c696420746f6b656e2049440000000000000000600082015250565b6000612769601883611ec6565b915061277482612733565b602082019050919050565b600060208201905081810360008301526127988161275c565b9050919050565b7f4552433732313a2061646472657373207a65726f206973206e6f74206120766160008201527f6c6964206f776e65720000000000000000000000000000000000000000000000602082015250565b60006127fb602983611ec6565b91506128068261279f565b604082019050919050565b6000602082019050818103600083015261282a816127ee565b9050919050565b7f4f6e6c792074686520617574686f726974792063616e206d696e74204e465473600082015250565b6000612867602083611ec6565b915061287282612831565b602082019050919050565b600060208201905081810360008301526128968161285a565b9050919050565b60008190508160005260206000209050919050565b60006020601f8301049050919050565b600082821b905092915050565b6000600883026128ff7fffffffffffffffffffffffffffffffffffffffffffffffffffffffffffffffff826128c2565b61290986836128c2565b95508019841693508086168417925050509392505050565b6000819050919050565b600061294661294161293c84611f6d565b612921565b611f6d565b9050919050565b6000819050919050565b6129608361292b565b61297461296c8261294d565b8484546128cf565b825550505050565b600090565b61298961297c565b612994818484612957565b505050565b5b818110156129b8576129ad600082612981565b60018101905061299a565b5050565b601f8211156129fd576129ce8161289d565b6129d7846128b2565b810160208510156129e6578190505b6129fa6129f2856128b2565b830182612999565b50505b505050565b600082821c905092915050565b6000612a2060001984600802612a02565b1980831691505092915050565b6000612a398383612a0f565b9150826002028217905092915050565b612a5282611ebb565b67ffffffffffffffff811115612a6b57612a6a612183565b5b612a75825461254c565b612a808282856129bc565b600060209050601f831160018114612ab35760008415612aa1578287015190505b612aab8582612a2d565b865550612b13565b601f198416612ac18661289d565b60005b82811015612ae957848901518255600182019150602085019450602081019050612ac4565b86831015612b065784890151612b02601f891682612a0f565b8355505b6001600288020188555050505b505050505050565b612b2481612142565b8114612b2f57600080fd5b50565b600081519050612b4181612b1b565b92915050565b600060208284031215612b5d57612b5c611df6565b5b6000612b6b84828501612b32565b91505092915050565b6000819050919050565b612b8f612b8a82611f6d565b612b74565b82525050565b60008160601b9050919050565b6000612bad82612b95565b9050919050565b6000612bbf82612ba2565b9050919050565b612bd7612bd282611ff0565b612bb4565b82525050565b6000612be98286612b7e565b602082019150612bf98285612b7e565b602082019150612c098284612bc6565b601482019150819050949350505050565b7f4e487b7100000000000000000000000000000000000000000000000000000000600052601260045260246000fd5b6000612c5482611f6d565b9150612c5f83611f6d565b925082612c6f57612c6e612c1a565b5b828206905092915050565b7f4e487b7100000000000000000000000000000000000000000000000000000000600052601160045260246000fd5b6000612cb482611f6d565b9150612cbf83611f6d565b9250828201905080821115612cd757612cd6612c7a565b5b92915050565b600081905092915050565b60008154612cf58161254c565b612cff8186612cdd565b94506001821660008114612d1a5760018114612d2f57612d62565b60ff1983168652811515820286019350612d62565b612d388561289d565b60005b83811015612d5a57815481890152600182019150602081019050612d3b565b838801955050505b50505092915050565b6000612d7682611ebb565b612d808185612cdd565b9350612d90818560208601611ed7565b80840191505092915050565b7f2e6a736f6e000000000000000000000000000000000000000000000000000000600082015250565b6000612dd2600583612cdd565b9150612ddd82612d9c565b600582019050919050565b6000612df48285612ce8565b9150612e008284612d6b565b9150612e0b82612dc5565b91508190509392505050565b7f4f776e61626c653a206e6577206f776e657220697320746865207a65726f206160008201527f6464726573730000000000000000000000000000000000000000000000000000602082015250565b6000612e73602683611ec6565b9150612e7e82612e17565b604082019050919050565b60006020820190508181036000830152612ea281612e66565b9050919050565b7f4552433732313a207472616e736665722066726f6d20696e636f72726563742060008201527f6f776e6572000000000000000000000000000000000000000000000000000000602082015250565b6000612f05602583611ec6565b9150612f1082612ea9565b604082019050919050565b60006020820190508181036000830152612f3481612ef8565b9050919050565b7f4552433732313a207472616e7366657220746f20746865207a65726f2061646460008201527f7265737300000000000000000000000000000000000000000000000000000000602082015250565b6000612f97602483611ec6565b9150612fa282612f3b565b604082019050919050565b60006020820190508181036000830152612fc681612f8a565b9050919050565b7f4f776e61626c653a2063616c6c6572206973206e6f7420746865206f776e6572600082015250565b6000613003602083611ec6565b915061300e82612fcd565b602082019050919050565b6000602082019050818103600083015261303281612ff6565b9050919050565b7f4552433732313a20617070726f766520746f2063616c6c657200000000000000600082015250565b600061306f601983611ec6565b915061307a82613039565b602082019050919050565b6000602082019050818103600083015261309e81613062565b9050919050565b7f4552433732313a207472616e7366657220746f206e6f6e20455243373231526560008201527f63656976657220696d706c656d656e7465720000000000000000000000000000602082015250565b6000613101603283611ec6565b915061310c826130a5565b604082019050919050565b60006020820190508181036000830152613130816130f4565b9050919050565b600081519050919050565b600082825260208201905092915050565b600061315e82613137565b6131688185613142565b9350613178818560208601611ed7565b61318181611f01565b840191505092915050565b60006080820190506131a16000830187612002565b6131ae6020830186612002565b6131bb6040830185612118565b81810360608301526131cd8184613153565b905095945050505050565b6000815190506131e781611e2c565b92915050565b60006020828403121561320357613202611df6565b5b6000613211848285016131d8565b91505092915050565b7f4552433732313a206d696e7420746f20746865207a65726f2061646472657373600082015250565b6000613250602083611ec6565b915061325b8261321a565b602082019050919050565b6000602082019050818103600083015261327f81613243565b9050919050565b7f4552433732313a20746f6b656e20616c7265616479206d696e74656400000000600082015250565b60006132bc601c83611ec6565b91506132c782613286565b602082019050919050565b600060208201905081810360008301526132eb816132af565b905091905056fea26469706673582212205f99015e8b7b74f105cdab8a8716673898040b7021381e49e84fe06bb24401a164736f6c63430008110033",
  "linkReferences": {},
  "deployedLinkReferences": {}
}