{
  "_format": "hh-sol-artifact-1",
  "contractName": "NFTPlayers",
  "sourceName": "contracts/NFTPlayers.sol",
  "abi": [
    {
      "inputs": [],
      "stateMutability": "nonpayable",
      "type": "constructor"
    },
    {
      "anonymous": false,
      "inputs": [
        {
          "indexed": true,
          "internalType": "address",
          "name": "owner",
          "type": "address"
        },
        {
          "indexed": true,
          "internalType": "address",
          "name": "approved",
          "type": "address"
        },
        {
          "indexed": true,
          "internalType": "uint256",
          "name": "tokenId",
          "type": "uint256"
        }
      ],
      "name": "Approval",
      "type": "event"
    },
    {
      "anonymous": false,
      "inputs": [
        {
          "indexed": true,
          "internalType": "address",
          "name": "owner",
          "type": "address"
        },
        {
          "indexed": true,
          "internalType": "address",
          "name": "operator",
          "type": "address"
        },
        {
          "indexed": false,
          "internalType": "bool",
          "name": "approved",
          "type": "bool"
        }
      ],
      "name": "ApprovalForAll",
      "type": "event"
    },
    {
      "anonymous": false,
      "inputs": [
        {
          "indexed": true,
          "internalType": "address",
          "name": "previousOwner",
          "type": "address"
        },
        {
          "indexed": true,
          "internalType": "address",
          "name": "newOwner",
          "type": "address"
        }
      ],
      "name": "OwnershipTransferred",
      "type": "event"
    },
    {
      "anonymous": false,
      "inputs": [
        {
          "indexed": true,
          "internalType": "address",
          "name": "from",
          "type": "address"
        },
        {
          "indexed": true,
          "internalType": "address",
          "name": "to",
          "type": "address"
        },
        {
          "indexed": true,
          "internalType": "uint256",
          "name": "tokenId",
          "type": "uint256"
        }
      ],
      "name": "Transfer",
      "type": "event"
    },
    {
      "inputs": [
        {
          "internalType": "address",
          "name": "to",
          "type": "address"
        },
        {
          "internalType": "uint256",
          "name": "tokenId",
          "type": "uint256"
        }
      ],
      "name": "approve",
      "outputs": [],
      "stateMutability": "nonpayable",
      "type": "function"
    },
    {
      "inputs": [
        {
          "internalType": "address",
          "name": "owner",
          "type": "address"
        }
      ],
      "name": "balanceOf",
      "outputs": [
        {
          "internalType": "uint256",
          "name": "",
          "type": "uint256"
        }
      ],
      "stateMutability": "view",
      "type": "function"
    },
    {
      "inputs": [
        {
          "internalType": "address",
          "name": "owner",
          "type": "address"
        }
      ],
      "name": "getAllTokens",
      "outputs": [
        {
          "internalType": "uint256[]",
          "name": "",
          "type": "uint256[]"
        }
      ],
      "stateMutability": "view",
      "type": "function"
    },
    {
      "inputs": [
        {
          "internalType": "uint256",
          "name": "tokenId",
          "type": "uint256"
        }
      ],
      "name": "getApproved",
      "outputs": [
        {
          "internalType": "address",
          "name": "",
          "type": "address"
        }
      ],
      "stateMutability": "view",
      "type": "function"
    },
    {
      "inputs": [],
      "name": "getAuthority",
      "outputs": [
        {
          "internalType": "address",
          "name": "",
          "type": "address"
        }
      ],
      "stateMutability": "view",
      "type": "function"
    },
    {
      "inputs": [],
      "name": "getLastTokenId",
      "outputs": [
        {
          "internalType": "uint256",
          "name": "",
          "type": "uint256"
        }
      ],
      "stateMutability": "view",
      "type": "function"
    },
    {
      "inputs": [
        {
          "internalType": "uint256",
          "name": "tokenId",
          "type": "uint256"
        }
      ],
      "name": "getLevel",
      "outputs": [
        {
          "internalType": "uint8",
          "name": "",
          "type": "uint8"
        }
      ],
      "stateMutability": "view",
      "type": "function"
    },
    {
      "inputs": [
        {
          "internalType": "uint256",
          "name": "tokenId",
          "type": "uint256"
        }
      ],
      "name": "getName",
      "outputs": [
        {
          "internalType": "string",
          "name": "",
          "type": "string"
        }
      ],
      "stateMutability": "view",
      "type": "function"
    },
    {
      "inputs": [
        {
          "internalType": "uint256",
          "name": "tokenId",
          "type": "uint256"
        }
      ],
      "name": "getRandomNumber",
      "outputs": [
        {
          "internalType": "uint8",
          "name": "",
          "type": "uint8"
        }
      ],
      "stateMutability": "view",
      "type": "function"
    },
    {
      "inputs": [
        {
          "internalType": "address",
          "name": "owner",
          "type": "address"
        },
        {
          "internalType": "address",
          "name": "operator",
          "type": "address"
        }
      ],
      "name": "isApprovedForAll",
      "outputs": [
        {
          "internalType": "bool",
          "name": "",
          "type": "bool"
        }
      ],
      "stateMutability": "view",
      "type": "function"
    },
    {
      "inputs": [
        {
          "internalType": "address",
          "name": "collector",
          "type": "address"
        },
        {
          "internalType": "string",
          "name": "_tokenURI",
          "type": "string"
        },
        {
          "internalType": "string",
          "name": "name",
          "type": "string"
        }
      ],
      "name": "mintNFT",
      "outputs": [
        {
          "internalType": "uint256",
          "name": "",
          "type": "uint256"
        }
      ],
      "stateMutability": "nonpayable",
      "type": "function"
    },
    {
      "inputs": [
        {
          "internalType": "address",
          "name": "collector",
          "type": "address"
        },
        {
          "internalType": "string[]",
          "name": "names",
          "type": "string[]"
        },
        {
          "internalType": "string",
          "name": "baseTokenURI",
          "type": "string"
        }
      ],
      "name": "mintNFTs",
      "outputs": [],
      "stateMutability": "nonpayable",
      "type": "function"
    },
    {
      "inputs": [],
      "name": "name",
      "outputs": [
        {
          "internalType": "string",
          "name": "",
          "type": "string"
        }
      ],
      "stateMutability": "view",
      "type": "function"
    },
    {
      "inputs": [],
      "name": "owner",
      "outputs": [
        {
          "internalType": "address",
          "name": "",
          "type": "address"
        }
      ],
      "stateMutability": "view",
      "type": "function"
    },
    {
      "inputs": [
        {
          "internalType": "uint256",
          "name": "tokenId",
          "type": "uint256"
        }
      ],
      "name": "ownerOf",
      "outputs": [
        {
          "internalType": "address",
          "name": "",
          "type": "address"
        }
      ],
      "stateMutability": "view",
      "type": "function"
    },
    {
      "inputs": [],
      "name": "renounceOwnership",
      "outputs": [],
      "stateMutability": "nonpayable",
      "type": "function"
    },
    {
      "inputs": [
        {
          "internalType": "address",
          "name": "from",
          "type": "address"
        },
        {
          "internalType": "address",
          "name": "to",
          "type": "address"
        },
        {
          "internalType": "uint256",
          "name": "tokenId",
          "type": "uint256"
        }
      ],
      "name": "safeTransferFrom",
      "outputs": [],
      "stateMutability": "nonpayable",
      "type": "function"
    },
    {
      "inputs": [
        {
          "internalType": "address",
          "name": "from",
          "type": "address"
        },
        {
          "internalType": "address",
          "name": "to",
          "type": "address"
        },
        {
          "internalType": "uint256",
          "name": "tokenId",
          "type": "uint256"
        },
        {
          "internalType": "bytes",
          "name": "data",
          "type": "bytes"
        }
      ],
      "name": "safeTransferFrom",
      "outputs": [],
      "stateMutability": "nonpayable",
      "type": "function"
    },
    {
      "inputs": [
        {
          "internalType": "address",
          "name": "operator",
          "type": "address"
        },
        {
          "internalType": "bool",
          "name": "approved",
          "type": "bool"
        }
      ],
      "name": "setApprovalForAll",
      "outputs": [],
      "stateMutability": "nonpayable",
      "type": "function"
    },
    {
      "inputs": [
        {
          "internalType": "address",
          "name": "_authority",
          "type": "address"
        }
      ],
      "name": "setAuthority",
      "outputs": [],
      "stateMutability": "nonpayable",
      "type": "function"
    },
    {
      "inputs": [
        {
          "internalType": "bytes4",
          "name": "interfaceId",
          "type": "bytes4"
        }
      ],
      "name": "supportsInterface",
      "outputs": [
        {
          "internalType": "bool",
          "name": "",
          "type": "bool"
        }
      ],
      "stateMutability": "view",
      "type": "function"
    },
    {
      "inputs": [],
      "name": "symbol",
      "outputs": [
        {
          "internalType": "string",
          "name": "",
          "type": "string"
        }
      ],
      "stateMutability": "view",
      "type": "function"
    },
    {
      "inputs": [
        {
          "internalType": "uint256",
          "name": "index",
          "type": "uint256"
        }
      ],
      "name": "tokenByIndex",
      "outputs": [
        {
          "internalType": "uint256",
          "name": "",
          "type": "uint256"
        }
      ],
      "stateMutability": "view",
      "type": "function"
    },
    {
      "inputs": [
        {
          "internalType": "address",
          "name": "owner",
          "type": "address"
        },
        {
          "internalType": "uint256",
          "name": "index",
          "type": "uint256"
        }
      ],
      "name": "tokenOfOwnerByIndex",
      "outputs": [
        {
          "internalType": "uint256",
          "name": "",
          "type": "uint256"
        }
      ],
      "stateMutability": "view",
      "type": "function"
    },
    {
      "inputs": [
        {
          "internalType": "uint256",
          "name": "tokenId",
          "type": "uint256"
        }
      ],
      "name": "tokenURI",
      "outputs": [
        {
          "internalType": "string",
          "name": "",
          "type": "string"
        }
      ],
      "stateMutability": "view",
      "type": "function"
    },
    {
      "inputs": [],
      "name": "totalSupply",
      "outputs": [
        {
          "internalType": "uint256",
          "name": "",
          "type": "uint256"
        }
      ],
      "stateMutability": "view",
      "type": "function"
    },
    {
      "inputs": [
        {
          "internalType": "address",
          "name": "from",
          "type": "address"
        },
        {
          "internalType": "address",
          "name": "to",
          "type": "address"
        },
        {
          "internalType": "uint256",
          "name": "tokenId",
          "type": "uint256"
        }
      ],
      "name": "transferFrom",
      "outputs": [],
      "stateMutability": "nonpayable",
      "type": "function"
    },
    {
      "inputs": [
        {
          "internalType": "address",
          "name": "newOwner",
          "type": "address"
        }
      ],
      "name": "transferOwnership",
      "outputs": [],
      "stateMutability": "nonpayable",
      "type": "function"
    }
  ],
  "bytecode": "0x60806040523480156200001157600080fd5b506040518060400160405280600a81526020017f4e4654506c6179657273000000000000000000000000000000000000000000008152506040518060400160405280600681526020017f4e4f4e46554e000000000000000000000000000000000000000000000000000081525081600090816200008f919062000412565b508060019081620000a1919062000412565b505050620000c4620000b8620000ca60201b60201c565b620000d260201b60201c565b620004f9565b600033905090565b6000600a60009054906101000a900473ffffffffffffffffffffffffffffffffffffffff16905081600a60006101000a81548173ffffffffffffffffffffffffffffffffffffffff021916908373ffffffffffffffffffffffffffffffffffffffff1602179055508173ffffffffffffffffffffffffffffffffffffffff168173ffffffffffffffffffffffffffffffffffffffff167f8be0079c531659141344cd1fd0a4f28419497f9722a3daafe3b4186f6b6457e060405160405180910390a35050565b600081519050919050565b7f4e487b7100000000000000000000000000000000000000000000000000000000600052604160045260246000fd5b7f4e487b7100000000000000000000000000000000000000000000000000000000600052602260045260246000fd5b600060028204905060018216806200021a57607f821691505b60208210810362000230576200022f620001d2565b5b50919050565b60008190508160005260206000209050919050565b60006020601f8301049050919050565b600082821b905092915050565b6000600883026200029a7fffffffffffffffffffffffffffffffffffffffffffffffffffffffffffffffff826200025b565b620002a686836200025b565b95508019841693508086168417925050509392505050565b6000819050919050565b6000819050919050565b6000620002f3620002ed620002e784620002be565b620002c8565b620002be565b9050919050565b6000819050919050565b6200030f83620002d2565b620003276200031e82620002fa565b84845462000268565b825550505050565b600090565b6200033e6200032f565b6200034b81848462000304565b505050565b5b8181101562000373576200036760008262000334565b60018101905062000351565b5050565b601f821115620003c2576200038c8162000236565b62000397846200024b565b81016020851015620003a7578190505b620003bf620003b6856200024b565b83018262000350565b50505b505050565b600082821c905092915050565b6000620003e760001984600802620003c7565b1980831691505092915050565b6000620004028383620003d4565b9150826002028217905092915050565b6200041d8262000198565b67ffffffffffffffff811115620004395762000438620001a3565b5b62000445825462000201565b6200045282828562000377565b600060209050601f8311600181146200048a576000841562000475578287015190505b620004818582620003f4565b865550620004f1565b601f1984166200049a8662000236565b60005b82811015620004c4578489015182556001820191506020850194506020810190506200049d565b86831015620004e45784890151620004e0601f891682620003d4565b8355505b6001600288020188555050505b505050505050565b61407d80620005096000396000f3fe608060405234801561001057600080fd5b50600436106101c45760003560e01c80637a9e5e4b116100f9578063a3ee38ae11610097578063c87b56dd11610071578063c87b56dd1461053d578063e2b178a01461056d578063e985e9c51461058b578063f2fde38b146105bb576101c4565b8063a3ee38ae146104c1578063b37217a4146104f1578063b88d4fde14610521576101c4565b80638da5cb5b116100d35780638da5cb5b1461044d57806395d89b411461046b578063a13e57e914610489578063a22cb465146104a5576101c4565b80637a9e5e4b146103e357806383c4c00d146103ff57806386481d401461041d576101c4565b80632f745c59116101665780636352211e116101405780636352211e146103495780636b8ff5741461037957806370a08231146103a9578063715018a6146103d9576101c4565b80632f745c59146102cd57806342842e0e146102fd5780634f6ccce714610319576101c4565b8063095ea7b3116101a2578063095ea7b314610247578063178b6de61461026357806318160ddd1461029357806323b872dd146102b1576101c4565b806301ffc9a7146101c957806306fdde03146101f9578063081812fc14610217575b600080fd5b6101e360048036038101906101de919061274c565b6105d7565b6040516101f09190612794565b60405180910390f35b6102016105e9565b60405161020e919061283f565b60405180910390f35b610231600480360381019061022c9190612897565b61067b565b60405161023e9190612905565b60405180910390f35b610261600480360381019061025c919061294c565b6106c1565b005b61027d6004803603810190610278919061298c565b6107d8565b60405161028a9190612a77565b60405180910390f35b61029b610886565b6040516102a89190612aa8565b60405180910390f35b6102cb60048036038101906102c69190612ac3565b610893565b005b6102e760048036038101906102e2919061294c565b6108f3565b6040516102f49190612aa8565b60405180910390f35b61031760048036038101906103129190612ac3565b610998565b005b610333600480360381019061032e9190612897565b6109b8565b6040516103409190612aa8565b60405180910390f35b610363600480360381019061035e9190612897565b610a29565b6040516103709190612905565b60405180910390f35b610393600480360381019061038e9190612897565b610aaf565b6040516103a0919061283f565b60405180910390f35b6103c360048036038101906103be919061298c565b610b54565b6040516103d09190612aa8565b60405180910390f35b6103e1610c0b565b005b6103fd60048036038101906103f8919061298c565b610c1f565b005b610407610c6b565b6040516104149190612aa8565b60405180910390f35b61043760048036038101906104329190612897565b610c75565b6040516104449190612b32565b60405180910390f35b610455610c9f565b6040516104629190612905565b60405180910390f35b610473610cc9565b604051610480919061283f565b60405180910390f35b6104a3600480360381019061049e9190612d68565b610d5b565b005b6104bf60048036038101906104ba9190612e1f565b610e9b565b005b6104db60048036038101906104d69190612e5f565b610eb1565b6040516104e89190612aa8565b60405180910390f35b61050b60048036038101906105069190612897565b610fce565b6040516105189190612b32565b60405180910390f35b61053b60048036038101906105369190612f8b565b611022565b005b61055760048036038101906105529190612897565b611084565b604051610564919061283f565b60405180910390f35b6105756110d2565b6040516105829190612905565b60405180910390f35b6105a560048036038101906105a0919061300e565b6110fc565b6040516105b29190612794565b60405180910390f35b6105d560048036038101906105d0919061298c565b611190565b005b60006105e282611213565b9050919050565b6060600080546105f89061307d565b80601f01602080910402602001604051908101604052809291908181526020018280546106249061307d565b80156106715780601f1061064657610100808354040283529160200191610671565b820191906000526020600020905b81548152906001019060200180831161065457829003601f168201915b5050505050905090565b60006106868261128d565b6004600083815260200190815260200160002060009054906101000a900473ffffffffffffffffffffffffffffffffffffffff169050919050565b60006106cc82610a29565b90508073ffffffffffffffffffffffffffffffffffffffff168373ffffffffffffffffffffffffffffffffffffffff160361073c576040517f08c379a000000000000000000000000000000000000000000000000000000000815260040161073390613120565b60405180910390fd5b8073ffffffffffffffffffffffffffffffffffffffff1661075b6112d8565b73ffffffffffffffffffffffffffffffffffffffff16148061078a5750610789816107846112d8565b6110fc565b5b6107c9576040517f08c379a00000000000000000000000000000000000000000000000000000000081526004016107c0906131b2565b60405180910390fd5b6107d383836112e0565b505050565b606060006107e583610b54565b905060008167ffffffffffffffff81111561080357610802612b52565b5b6040519080825280602002602001820160405280156108315781602001602082028036833780820191505090505b50905060005b8281101561087b5761084985826108f3565b82828151811061085c5761085b6131d2565b5b602002602001018181525050808061087390613230565b915050610837565b508092505050919050565b6000600880549050905090565b6108a461089e6112d8565b82611399565b6108e3576040517f08c379a00000000000000000000000000000000000000000000000000000000081526004016108da906132ea565b60405180910390fd5b6108ee83838361142e565b505050565b60006108fe83610b54565b821061093f576040517f08c379a00000000000000000000000000000000000000000000000000000000081526004016109369061337c565b60405180910390fd5b600660008473ffffffffffffffffffffffffffffffffffffffff1673ffffffffffffffffffffffffffffffffffffffff168152602001908152602001600020600083815260200190815260200160002054905092915050565b6109b383838360405180602001604052806000815250611022565b505050565b60006109c2610886565b8210610a03576040517f08c379a00000000000000000000000000000000000000000000000000000000081526004016109fa9061340e565b60405180910390fd5b60088281548110610a1757610a166131d2565b5b90600052602060002001549050919050565b600080610a3583611727565b9050600073ffffffffffffffffffffffffffffffffffffffff168173ffffffffffffffffffffffffffffffffffffffff1603610aa6576040517f08c379a0000000000000000000000000000000000000000000000000000000008152600401610a9d9061347a565b60405180910390fd5b80915050919050565b6060600e60008381526020019081526020016000208054610acf9061307d565b80601f0160208091040260200160405190810160405280929190818152602001828054610afb9061307d565b8015610b485780601f10610b1d57610100808354040283529160200191610b48565b820191906000526020600020905b815481529060010190602001808311610b2b57829003601f168201915b50505050509050919050565b60008073ffffffffffffffffffffffffffffffffffffffff168273ffffffffffffffffffffffffffffffffffffffff1603610bc4576040517f08c379a0000000000000000000000000000000000000000000000000000000008152600401610bbb9061350c565b60405180910390fd5b600360008373ffffffffffffffffffffffffffffffffffffffff1673ffffffffffffffffffffffffffffffffffffffff168152602001908152602001600020549050919050565b610c13611764565b610c1d60006117e2565b565b610c27611764565b80600b60006101000a81548173ffffffffffffffffffffffffffffffffffffffff021916908373ffffffffffffffffffffffffffffffffffffffff16021790555050565b6000600f54905090565b6000600d600083815260200190815260200160002060009054906101000a900460ff169050919050565b6000600a60009054906101000a900473ffffffffffffffffffffffffffffffffffffffff16905090565b606060018054610cd89061307d565b80601f0160208091040260200160405190810160405280929190818152602001828054610d049061307d565b8015610d515780601f10610d2657610100808354040283529160200191610d51565b820191906000526020600020905b815481529060010190602001808311610d3457829003601f168201915b5050505050905090565b600080600090505b8351811015610e9457610d74610886565b9150610d8085836118a8565b82600c60008481526020019081526020016000209081610da091906136d8565b503073ffffffffffffffffffffffffffffffffffffffff1663b37217a4836040518263ffffffff1660e01b8152600401610dda9190612aa8565b602060405180830381865afa158015610df7573d6000803e3d6000fd5b505050506040513d601f19601f82011682018060405250810190610e1b91906137d6565b600d600084815260200190815260200160002060006101000a81548160ff021916908360ff160217905550838181518110610e5957610e586131d2565b5b6020026020010151600e60008481526020019081526020016000209081610e8091906136d8565b508080610e8c90613230565b915050610d63565b5050505050565b610ead610ea66112d8565b83836118c6565b5050565b6000600f6000815480929190610ec690613230565b91905055506000600f549050610edc85826118a8565b83600c60008381526020019081526020016000209081610efc91906136d8565b503073ffffffffffffffffffffffffffffffffffffffff1663b37217a4826040518263ffffffff1660e01b8152600401610f369190612aa8565b602060405180830381865afa158015610f53573d6000803e3d6000fd5b505050506040513d601f19601f82011682018060405250810190610f7791906137d6565b600d600083815260200190815260200160002060006101000a81548160ff021916908360ff16021790555082600e60008381526020019081526020016000209081610fc291906136d8565b50809150509392505050565b600080824333604051602001610fe69392919061386c565b6040516020818303038152906040528051906020012060001c9050600160058261101091906138d8565b61101a9190613909565b915050919050565b61103361102d6112d8565b83611399565b611072576040517f08c379a0000000000000000000000000000000000000000000000000000000008152600401611069906132ea565b60405180910390fd5b61107e84848484611a32565b50505050565b606061108f8261128d565b600c60008381526020019081526020016000206110ab83611a8e565b6040516020016110bc929190613a48565b6040516020818303038152906040529050919050565b6000600b60009054906101000a900473ffffffffffffffffffffffffffffffffffffffff16905090565b6000600560008473ffffffffffffffffffffffffffffffffffffffff1673ffffffffffffffffffffffffffffffffffffffff16815260200190815260200160002060008373ffffffffffffffffffffffffffffffffffffffff1673ffffffffffffffffffffffffffffffffffffffff16815260200190815260200160002060009054906101000a900460ff16905092915050565b611198611764565b600073ffffffffffffffffffffffffffffffffffffffff168173ffffffffffffffffffffffffffffffffffffffff1603611207576040517f08c379a00000000000000000000000000000000000000000000000000000000081526004016111fe90613ae9565b60405180910390fd5b611210816117e2565b50565b60007f780e9d63000000000000000000000000000000000000000000000000000000007bffffffffffffffffffffffffffffffffffffffffffffffffffffffff1916827bffffffffffffffffffffffffffffffffffffffffffffffffffffffff19161480611286575061128582611b5c565b5b9050919050565b61129681611c3e565b6112d5576040517f08c379a00000000000000000000000000000000000000000000000000000000081526004016112cc9061347a565b60405180910390fd5b50565b600033905090565b816004600083815260200190815260200160002060006101000a81548173ffffffffffffffffffffffffffffffffffffffff021916908373ffffffffffffffffffffffffffffffffffffffff160217905550808273ffffffffffffffffffffffffffffffffffffffff1661135383610a29565b73ffffffffffffffffffffffffffffffffffffffff167f8c5be1e5ebec7d5bd14f71427d1e84f3dd0314c0f7b2291e5b200ac8c7c3b92560405160405180910390a45050565b6000806113a583610a29565b90508073ffffffffffffffffffffffffffffffffffffffff168473ffffffffffffffffffffffffffffffffffffffff1614806113e757506113e681856110fc565b5b8061142557508373ffffffffffffffffffffffffffffffffffffffff1661140d8461067b565b73ffffffffffffffffffffffffffffffffffffffff16145b91505092915050565b8273ffffffffffffffffffffffffffffffffffffffff1661144e82610a29565b73ffffffffffffffffffffffffffffffffffffffff16146114a4576040517f08c379a000000000000000000000000000000000000000000000000000000000815260040161149b90613b7b565b60405180910390fd5b600073ffffffffffffffffffffffffffffffffffffffff168273ffffffffffffffffffffffffffffffffffffffff1603611513576040517f08c379a000000000000000000000000000000000000000000000000000000000815260040161150a90613c0d565b60405180910390fd5b6115208383836001611c7f565b8273ffffffffffffffffffffffffffffffffffffffff1661154082610a29565b73ffffffffffffffffffffffffffffffffffffffff1614611596576040517f08c379a000000000000000000000000000000000000000000000000000000000815260040161158d90613b7b565b60405180910390fd5b6004600082815260200190815260200160002060006101000a81549073ffffffffffffffffffffffffffffffffffffffff02191690556001600360008573ffffffffffffffffffffffffffffffffffffffff1673ffffffffffffffffffffffffffffffffffffffff168152602001908152602001600020600082825403925050819055506001600360008473ffffffffffffffffffffffffffffffffffffffff1673ffffffffffffffffffffffffffffffffffffffff16815260200190815260200160002060008282540192505081905550816002600083815260200190815260200160002060006101000a81548173ffffffffffffffffffffffffffffffffffffffff021916908373ffffffffffffffffffffffffffffffffffffffff160217905550808273ffffffffffffffffffffffffffffffffffffffff168473ffffffffffffffffffffffffffffffffffffffff167fddf252ad1be2c89b69c2b068fc378daa952ba7f163c4a11628f55a4df523b3ef60405160405180910390a46117228383836001611c91565b505050565b60006002600083815260200190815260200160002060009054906101000a900473ffffffffffffffffffffffffffffffffffffffff169050919050565b61176c6112d8565b73ffffffffffffffffffffffffffffffffffffffff1661178a610c9f565b73ffffffffffffffffffffffffffffffffffffffff16146117e0576040517f08c379a00000000000000000000000000000000000000000000000000000000081526004016117d790613c79565b60405180910390fd5b565b6000600a60009054906101000a900473ffffffffffffffffffffffffffffffffffffffff16905081600a60006101000a81548173ffffffffffffffffffffffffffffffffffffffff021916908373ffffffffffffffffffffffffffffffffffffffff1602179055508173ffffffffffffffffffffffffffffffffffffffff168173ffffffffffffffffffffffffffffffffffffffff167f8be0079c531659141344cd1fd0a4f28419497f9722a3daafe3b4186f6b6457e060405160405180910390a35050565b6118c2828260405180602001604052806000815250611c97565b5050565b8173ffffffffffffffffffffffffffffffffffffffff168373ffffffffffffffffffffffffffffffffffffffff1603611934576040517f08c379a000000000000000000000000000000000000000000000000000000000815260040161192b90613ce5565b60405180910390fd5b80600560008573ffffffffffffffffffffffffffffffffffffffff1673ffffffffffffffffffffffffffffffffffffffff16815260200190815260200160002060008473ffffffffffffffffffffffffffffffffffffffff1673ffffffffffffffffffffffffffffffffffffffff16815260200190815260200160002060006101000a81548160ff0219169083151502179055508173ffffffffffffffffffffffffffffffffffffffff168373ffffffffffffffffffffffffffffffffffffffff167f17307eab39ab6107e8899845ad3d59bd9653f200f220920489ca2b5937696c3183604051611a259190612794565b60405180910390a3505050565b611a3d84848461142e565b611a4984848484611cf2565b611a88576040517f08c379a0000000000000000000000000000000000000000000000000000000008152600401611a7f90613d77565b60405180910390fd5b50505050565b606060006001611a9d84611e79565b01905060008167ffffffffffffffff811115611abc57611abb612b52565b5b6040519080825280601f01601f191660200182016040528015611aee5781602001600182028036833780820191505090505b509050600082602001820190505b600115611b51578080600190039150507f3031323334353637383961626364656600000000000000000000000000000000600a86061a8153600a8581611b4557611b446138a9565b5b04945060008503611afc575b819350505050919050565b60007f80ac58cd000000000000000000000000000000000000000000000000000000007bffffffffffffffffffffffffffffffffffffffffffffffffffffffff1916827bffffffffffffffffffffffffffffffffffffffffffffffffffffffff19161480611c2757507f5b5e139f000000000000000000000000000000000000000000000000000000007bffffffffffffffffffffffffffffffffffffffffffffffffffffffff1916827bffffffffffffffffffffffffffffffffffffffffffffffffffffffff1916145b80611c375750611c3682611fcc565b5b9050919050565b60008073ffffffffffffffffffffffffffffffffffffffff16611c6083611727565b73ffffffffffffffffffffffffffffffffffffffff1614159050919050565b611c8b84848484612036565b50505050565b50505050565b611ca18383612194565b611cae6000848484611cf2565b611ced576040517f08c379a0000000000000000000000000000000000000000000000000000000008152600401611ce490613d77565b60405180910390fd5b505050565b6000611d138473ffffffffffffffffffffffffffffffffffffffff166123b1565b15611e6c578373ffffffffffffffffffffffffffffffffffffffff1663150b7a02611d3c6112d8565b8786866040518563ffffffff1660e01b8152600401611d5e9493929190613dec565b6020604051808303816000875af1925050508015611d9a57506040513d601f19601f82011682018060405250810190611d979190613e4d565b60015b611e1c573d8060008114611dca576040519150601f19603f3d011682016040523d82523d6000602084013e611dcf565b606091505b506000815103611e14576040517f08c379a0000000000000000000000000000000000000000000000000000000008152600401611e0b90613d77565b60405180910390fd5b805181602001fd5b63150b7a0260e01b7bffffffffffffffffffffffffffffffffffffffffffffffffffffffff1916817bffffffffffffffffffffffffffffffffffffffffffffffffffffffff191614915050611e71565b600190505b949350505050565b600080600090507a184f03e93ff9f4daa797ed6e38ed64bf6a1f0100000000000000008310611ed7577a184f03e93ff9f4daa797ed6e38ed64bf6a1f0100000000000000008381611ecd57611ecc6138a9565b5b0492506040810190505b6d04ee2d6d415b85acef81000000008310611f14576d04ee2d6d415b85acef81000000008381611f0a57611f096138a9565b5b0492506020810190505b662386f26fc100008310611f4357662386f26fc100008381611f3957611f386138a9565b5b0492506010810190505b6305f5e1008310611f6c576305f5e1008381611f6257611f616138a9565b5b0492506008810190505b6127108310611f91576127108381611f8757611f866138a9565b5b0492506004810190505b60648310611fb45760648381611faa57611fa96138a9565b5b0492506002810190505b600a8310611fc3576001810190505b80915050919050565b60007f01ffc9a7000000000000000000000000000000000000000000000000000000007bffffffffffffffffffffffffffffffffffffffffffffffffffffffff1916827bffffffffffffffffffffffffffffffffffffffffffffffffffffffff1916149050919050565b612042848484846123d4565b6001811115612086576040517f08c379a000000000000000000000000000000000000000000000000000000000815260040161207d90613eec565b60405180910390fd5b6000829050600073ffffffffffffffffffffffffffffffffffffffff168573ffffffffffffffffffffffffffffffffffffffff16036120cd576120c8816123da565b61210c565b8373ffffffffffffffffffffffffffffffffffffffff168573ffffffffffffffffffffffffffffffffffffffff161461210b5761210a8582612423565b5b5b600073ffffffffffffffffffffffffffffffffffffffff168473ffffffffffffffffffffffffffffffffffffffff160361214e5761214981612590565b61218d565b8473ffffffffffffffffffffffffffffffffffffffff168473ffffffffffffffffffffffffffffffffffffffff161461218c5761218b8482612661565b5b5b5050505050565b600073ffffffffffffffffffffffffffffffffffffffff168273ffffffffffffffffffffffffffffffffffffffff1603612203576040517f08c379a00000000000000000000000000000000000000000000000000000000081526004016121fa90613f58565b60405180910390fd5b61220c81611c3e565b1561224c576040517f08c379a000000000000000000000000000000000000000000000000000000000815260040161224390613fc4565b60405180910390fd5b61225a600083836001611c7f565b61226381611c3e565b156122a3576040517f08c379a000000000000000000000000000000000000000000000000000000000815260040161229a90613fc4565b60405180910390fd5b6001600360008473ffffffffffffffffffffffffffffffffffffffff1673ffffffffffffffffffffffffffffffffffffffff16815260200190815260200160002060008282540192505081905550816002600083815260200190815260200160002060006101000a81548173ffffffffffffffffffffffffffffffffffffffff021916908373ffffffffffffffffffffffffffffffffffffffff160217905550808273ffffffffffffffffffffffffffffffffffffffff16600073ffffffffffffffffffffffffffffffffffffffff167fddf252ad1be2c89b69c2b068fc378daa952ba7f163c4a11628f55a4df523b3ef60405160405180910390a46123ad600083836001611c91565b5050565b6000808273ffffffffffffffffffffffffffffffffffffffff163b119050919050565b50505050565b6008805490506009600083815260200190815260200160002081905550600881908060018154018082558091505060019003906000526020600020016000909190919091505550565b6000600161243084610b54565b61243a9190613fe4565b905060006007600084815260200190815260200160002054905081811461251f576000600660008673ffffffffffffffffffffffffffffffffffffffff1673ffffffffffffffffffffffffffffffffffffffff168152602001908152602001600020600084815260200190815260200160002054905080600660008773ffffffffffffffffffffffffffffffffffffffff1673ffffffffffffffffffffffffffffffffffffffff168152602001908152602001600020600084815260200190815260200160002081905550816007600083815260200190815260200160002081905550505b6007600084815260200190815260200160002060009055600660008573ffffffffffffffffffffffffffffffffffffffff1673ffffffffffffffffffffffffffffffffffffffff16815260200190815260200160002060008381526020019081526020016000206000905550505050565b600060016008805490506125a49190613fe4565b90506000600960008481526020019081526020016000205490506000600883815481106125d4576125d36131d2565b5b9060005260206000200154905080600883815481106125f6576125f56131d2565b5b90600052602060002001819055508160096000838152602001908152602001600020819055506009600085815260200190815260200160002060009055600880548061264557612644614018565b5b6001900381819060005260206000200160009055905550505050565b600061266c83610b54565b905081600660008573ffffffffffffffffffffffffffffffffffffffff1673ffffffffffffffffffffffffffffffffffffffff168152602001908152602001600020600083815260200190815260200160002081905550806007600084815260200190815260200160002081905550505050565b6000604051905090565b600080fd5b600080fd5b60007fffffffff0000000000000000000000000000000000000000000000000000000082169050919050565b612729816126f4565b811461273457600080fd5b50565b60008135905061274681612720565b92915050565b600060208284031215612762576127616126ea565b5b600061277084828501612737565b91505092915050565b60008115159050919050565b61278e81612779565b82525050565b60006020820190506127a96000830184612785565b92915050565b600081519050919050565b600082825260208201905092915050565b60005b838110156127e95780820151818401526020810190506127ce565b60008484015250505050565b6000601f19601f8301169050919050565b6000612811826127af565b61281b81856127ba565b935061282b8185602086016127cb565b612834816127f5565b840191505092915050565b600060208201905081810360008301526128598184612806565b905092915050565b6000819050919050565b61287481612861565b811461287f57600080fd5b50565b6000813590506128918161286b565b92915050565b6000602082840312156128ad576128ac6126ea565b5b60006128bb84828501612882565b91505092915050565b600073ffffffffffffffffffffffffffffffffffffffff82169050919050565b60006128ef826128c4565b9050919050565b6128ff816128e4565b82525050565b600060208201905061291a60008301846128f6565b92915050565b612929816128e4565b811461293457600080fd5b50565b60008135905061294681612920565b92915050565b60008060408385031215612963576129626126ea565b5b600061297185828601612937565b925050602061298285828601612882565b9150509250929050565b6000602082840312156129a2576129a16126ea565b5b60006129b084828501612937565b91505092915050565b600081519050919050565b600082825260208201905092915050565b6000819050602082019050919050565b6129ee81612861565b82525050565b6000612a0083836129e5565b60208301905092915050565b6000602082019050919050565b6000612a24826129b9565b612a2e81856129c4565b9350612a39836129d5565b8060005b83811015612a6a578151612a5188826129f4565b9750612a5c83612a0c565b925050600181019050612a3d565b5085935050505092915050565b60006020820190508181036000830152612a918184612a19565b905092915050565b612aa281612861565b82525050565b6000602082019050612abd6000830184612a99565b92915050565b600080600060608486031215612adc57612adb6126ea565b5b6000612aea86828701612937565b9350506020612afb86828701612937565b9250506040612b0c86828701612882565b9150509250925092565b600060ff82169050919050565b612b2c81612b16565b82525050565b6000602082019050612b476000830184612b23565b92915050565b600080fd5b7f4e487b7100000000000000000000000000000000000000000000000000000000600052604160045260246000fd5b612b8a826127f5565b810181811067ffffffffffffffff82111715612ba957612ba8612b52565b5b80604052505050565b6000612bbc6126e0565b9050612bc88282612b81565b919050565b600067ffffffffffffffff821115612be857612be7612b52565b5b602082029050602081019050919050565b600080fd5b600080fd5b600067ffffffffffffffff821115612c1e57612c1d612b52565b5b612c27826127f5565b9050602081019050919050565b82818337600083830152505050565b6000612c56612c5184612c03565b612bb2565b905082815260208101848484011115612c7257612c71612bfe565b5b612c7d848285612c34565b509392505050565b600082601f830112612c9a57612c99612b4d565b5b8135612caa848260208601612c43565b91505092915050565b6000612cc6612cc184612bcd565b612bb2565b90508083825260208201905060208402830185811115612ce957612ce8612bf9565b5b835b81811015612d3057803567ffffffffffffffff811115612d0e57612d0d612b4d565b5b808601612d1b8982612c85565b85526020850194505050602081019050612ceb565b5050509392505050565b600082601f830112612d4f57612d4e612b4d565b5b8135612d5f848260208601612cb3565b91505092915050565b600080600060608486031215612d8157612d806126ea565b5b6000612d8f86828701612937565b935050602084013567ffffffffffffffff811115612db057612daf6126ef565b5b612dbc86828701612d3a565b925050604084013567ffffffffffffffff811115612ddd57612ddc6126ef565b5b612de986828701612c85565b9150509250925092565b612dfc81612779565b8114612e0757600080fd5b50565b600081359050612e1981612df3565b92915050565b60008060408385031215612e3657612e356126ea565b5b6000612e4485828601612937565b9250506020612e5585828601612e0a565b9150509250929050565b600080600060608486031215612e7857612e776126ea565b5b6000612e8686828701612937565b935050602084013567ffffffffffffffff811115612ea757612ea66126ef565b5b612eb386828701612c85565b925050604084013567ffffffffffffffff811115612ed457612ed36126ef565b5b612ee086828701612c85565b9150509250925092565b600067ffffffffffffffff821115612f0557612f04612b52565b5b612f0e826127f5565b9050602081019050919050565b6000612f2e612f2984612eea565b612bb2565b905082815260208101848484011115612f4a57612f49612bfe565b5b612f55848285612c34565b509392505050565b600082601f830112612f7257612f71612b4d565b5b8135612f82848260208601612f1b565b91505092915050565b60008060008060808587031215612fa557612fa46126ea565b5b6000612fb387828801612937565b9450506020612fc487828801612937565b9350506040612fd587828801612882565b925050606085013567ffffffffffffffff811115612ff657612ff56126ef565b5b61300287828801612f5d565b91505092959194509250565b60008060408385031215613025576130246126ea565b5b600061303385828601612937565b925050602061304485828601612937565b9150509250929050565b7f4e487b7100000000000000000000000000000000000000000000000000000000600052602260045260246000fd5b6000600282049050600182168061309557607f821691505b6020821081036130a8576130a761304e565b5b50919050565b7f4552433732313a20617070726f76616c20746f2063757272656e74206f776e6560008201527f7200000000000000000000000000000000000000000000000000000000000000602082015250565b600061310a6021836127ba565b9150613115826130ae565b604082019050919050565b60006020820190508181036000830152613139816130fd565b9050919050565b7f4552433732313a20617070726f76652063616c6c6572206973206e6f7420746f60008201527f6b656e206f776e6572206f7220617070726f76656420666f7220616c6c000000602082015250565b600061319c603d836127ba565b91506131a782613140565b604082019050919050565b600060208201905081810360008301526131cb8161318f565b9050919050565b7f4e487b7100000000000000000000000000000000000000000000000000000000600052603260045260246000fd5b7f4e487b7100000000000000000000000000000000000000000000000000000000600052601160045260246000fd5b600061323b82612861565b91507fffffffffffffffffffffffffffffffffffffffffffffffffffffffffffffffff820361326d5761326c613201565b5b600182019050919050565b7f4552433732313a2063616c6c6572206973206e6f7420746f6b656e206f776e6560008201527f72206f7220617070726f76656400000000000000000000000000000000000000602082015250565b60006132d4602d836127ba565b91506132df82613278565b604082019050919050565b60006020820190508181036000830152613303816132c7565b9050919050565b7f455243373231456e756d657261626c653a206f776e657220696e646578206f7560008201527f74206f6620626f756e6473000000000000000000000000000000000000000000602082015250565b6000613366602b836127ba565b91506133718261330a565b604082019050919050565b6000602082019050818103600083015261339581613359565b9050919050565b7f455243373231456e756d657261626c653a20676c6f62616c20696e646578206f60008201527f7574206f6620626f756e64730000000000000000000000000000000000000000602082015250565b60006133f8602c836127ba565b91506134038261339c565b604082019050919050565b60006020820190508181036000830152613427816133eb565b9050919050565b7f4552433732313a20696e76616c696420746f6b656e2049440000000000000000600082015250565b60006134646018836127ba565b915061346f8261342e565b602082019050919050565b6000602082019050818103600083015261349381613457565b9050919050565b7f4552433732313a2061646472657373207a65726f206973206e6f74206120766160008201527f6c6964206f776e65720000000000000000000000000000000000000000000000602082015250565b60006134f66029836127ba565b91506135018261349a565b604082019050919050565b60006020820190508181036000830152613525816134e9565b9050919050565b60008190508160005260206000209050919050565b60006020601f8301049050919050565b600082821b905092915050565b60006008830261358e7fffffffffffffffffffffffffffffffffffffffffffffffffffffffffffffffff82613551565b6135988683613551565b95508019841693508086168417925050509392505050565b6000819050919050565b60006135d56135d06135cb84612861565b6135b0565b612861565b9050919050565b6000819050919050565b6135ef836135ba565b6136036135fb826135dc565b84845461355e565b825550505050565b600090565b61361861360b565b6136238184846135e6565b505050565b5b818110156136475761363c600082613610565b600181019050613629565b5050565b601f82111561368c5761365d8161352c565b61366684613541565b81016020851015613675578190505b61368961368185613541565b830182613628565b50505b505050565b600082821c905092915050565b60006136af60001984600802613691565b1980831691505092915050565b60006136c8838361369e565b9150826002028217905092915050565b6136e1826127af565b67ffffffffffffffff8111156136fa576136f9612b52565b5b613704825461307d565b61370f82828561364b565b600060209050601f8311600181146137425760008415613730578287015190505b61373a85826136bc565b8655506137a2565b601f1984166137508661352c565b60005b8281101561377857848901518255600182019150602085019450602081019050613753565b868310156137955784890151613791601f89168261369e565b8355505b6001600288020188555050505b505050505050565b6137b381612b16565b81146137be57600080fd5b50565b6000815190506137d0816137aa565b92915050565b6000602082840312156137ec576137eb6126ea565b5b60006137fa848285016137c1565b91505092915050565b6000819050919050565b61381e61381982612861565b613803565b82525050565b60008160601b9050919050565b600061383c82613824565b9050919050565b600061384e82613831565b9050919050565b613866613861826128e4565b613843565b82525050565b6000613878828661380d565b602082019150613888828561380d565b6020820191506138988284613855565b601482019150819050949350505050565b7f4e487b7100000000000000000000000000000000000000000000000000000000600052601260045260246000fd5b60006138e382612861565b91506138ee83612861565b9250826138fe576138fd6138a9565b5b828206905092915050565b600061391482612861565b915061391f83612861565b925082820190508082111561393757613936613201565b5b92915050565b600081905092915050565b600081546139558161307d565b61395f818661393d565b9450600182166000811461397a576001811461398f576139c2565b60ff19831686528115158202860193506139c2565b6139988561352c565b60005b838110156139ba5781548189015260018201915060208101905061399b565b838801955050505b50505092915050565b60006139d6826127af565b6139e0818561393d565b93506139f08185602086016127cb565b80840191505092915050565b7f2e6a736f6e000000000000000000000000000000000000000000000000000000600082015250565b6000613a3260058361393d565b9150613a3d826139fc565b600582019050919050565b6000613a548285613948565b9150613a6082846139cb565b9150613a6b82613a25565b91508190509392505050565b7f4f776e61626c653a206e6577206f776e657220697320746865207a65726f206160008201527f6464726573730000000000000000000000000000000000000000000000000000602082015250565b6000613ad36026836127ba565b9150613ade82613a77565b604082019050919050565b60006020820190508181036000830152613b0281613ac6565b9050919050565b7f4552433732313a207472616e736665722066726f6d20696e636f72726563742060008201527f6f776e6572000000000000000000000000000000000000000000000000000000602082015250565b6000613b656025836127ba565b9150613b7082613b09565b604082019050919050565b60006020820190508181036000830152613b9481613b58565b9050919050565b7f4552433732313a207472616e7366657220746f20746865207a65726f2061646460008201527f7265737300000000000000000000000000000000000000000000000000000000602082015250565b6000613bf76024836127ba565b9150613c0282613b9b565b604082019050919050565b60006020820190508181036000830152613c2681613bea565b9050919050565b7f4f776e61626c653a2063616c6c6572206973206e6f7420746865206f776e6572600082015250565b6000613c636020836127ba565b9150613c6e82613c2d565b602082019050919050565b60006020820190508181036000830152613c9281613c56565b9050919050565b7f4552433732313a20617070726f766520746f2063616c6c657200000000000000600082015250565b6000613ccf6019836127ba565b9150613cda82613c99565b602082019050919050565b60006020820190508181036000830152613cfe81613cc2565b9050919050565b7f4552433732313a207472616e7366657220746f206e6f6e20455243373231526560008201527f63656976657220696d706c656d656e7465720000000000000000000000000000602082015250565b6000613d616032836127ba565b9150613d6c82613d05565b604082019050919050565b60006020820190508181036000830152613d9081613d54565b9050919050565b600081519050919050565b600082825260208201905092915050565b6000613dbe82613d97565b613dc88185613da2565b9350613dd88185602086016127cb565b613de1816127f5565b840191505092915050565b6000608082019050613e0160008301876128f6565b613e0e60208301866128f6565b613e1b6040830185612a99565b8181036060830152613e2d8184613db3565b905095945050505050565b600081519050613e4781612720565b92915050565b600060208284031215613e6357613e626126ea565b5b6000613e7184828501613e38565b91505092915050565b7f455243373231456e756d657261626c653a20636f6e736563757469766520747260008201527f616e7366657273206e6f7420737570706f727465640000000000000000000000602082015250565b6000613ed66035836127ba565b9150613ee182613e7a565b604082019050919050565b60006020820190508181036000830152613f0581613ec9565b9050919050565b7f4552433732313a206d696e7420746f20746865207a65726f2061646472657373600082015250565b6000613f426020836127ba565b9150613f4d82613f0c565b602082019050919050565b60006020820190508181036000830152613f7181613f35565b9050919050565b7f4552433732313a20746f6b656e20616c7265616479206d696e74656400000000600082015250565b6000613fae601c836127ba565b9150613fb982613f78565b602082019050919050565b60006020820190508181036000830152613fdd81613fa1565b9050919050565b6000613fef82612861565b9150613ffa83612861565b925082820390508181111561401257614011613201565b5b92915050565b7f4e487b7100000000000000000000000000000000000000000000000000000000600052603160045260246000fdfea26469706673582212200993220c0a7aef3b9bb9b7483c364037828870f033416187e8ad7ed6527c858464736f6c63430008110033",
  "linkReferences": {},
  "deployedLinkReferences": {}
}