{
  "_format": "hh-sol-artifact-1",
  "contractName": "NFTPlayers",
  "sourceName": "contracts/NFTPlayers.sol",
  "abi": [
    {
      "inputs": [],
      "stateMutability": "nonpayable",
      "type": "constructor"
    },
    {
      "anonymous": false,
      "inputs": [
        {
          "indexed": true,
          "internalType": "address",
          "name": "owner",
          "type": "address"
        },
        {
          "indexed": true,
          "internalType": "address",
          "name": "approved",
          "type": "address"
        },
        {
          "indexed": true,
          "internalType": "uint256",
          "name": "tokenId",
          "type": "uint256"
        }
      ],
      "name": "Approval",
      "type": "event"
    },
    {
      "anonymous": false,
      "inputs": [
        {
          "indexed": true,
          "internalType": "address",
          "name": "owner",
          "type": "address"
        },
        {
          "indexed": true,
          "internalType": "address",
          "name": "operator",
          "type": "address"
        },
        {
          "indexed": false,
          "internalType": "bool",
          "name": "approved",
          "type": "bool"
        }
      ],
      "name": "ApprovalForAll",
      "type": "event"
    },
    {
      "anonymous": false,
      "inputs": [
        {
          "indexed": true,
          "internalType": "address",
          "name": "previousOwner",
          "type": "address"
        },
        {
          "indexed": true,
          "internalType": "address",
          "name": "newOwner",
          "type": "address"
        }
      ],
      "name": "OwnershipTransferred",
      "type": "event"
    },
    {
      "anonymous": false,
      "inputs": [
        {
          "indexed": true,
          "internalType": "address",
          "name": "from",
          "type": "address"
        },
        {
          "indexed": true,
          "internalType": "address",
          "name": "to",
          "type": "address"
        },
        {
          "indexed": true,
          "internalType": "uint256",
          "name": "tokenId",
          "type": "uint256"
        }
      ],
      "name": "Transfer",
      "type": "event"
    },
    {
      "inputs": [
        {
          "internalType": "address",
          "name": "to",
          "type": "address"
        },
        {
          "internalType": "uint256",
          "name": "tokenId",
          "type": "uint256"
        }
      ],
      "name": "approve",
      "outputs": [],
      "stateMutability": "nonpayable",
      "type": "function"
    },
    {
      "inputs": [
        {
          "internalType": "address",
          "name": "owner",
          "type": "address"
        }
      ],
      "name": "balanceOf",
      "outputs": [
        {
          "internalType": "uint256",
          "name": "",
          "type": "uint256"
        }
      ],
      "stateMutability": "view",
      "type": "function"
    },
    {
      "inputs": [
        {
          "internalType": "address",
          "name": "owner",
          "type": "address"
        }
      ],
      "name": "getAllTokens",
      "outputs": [
        {
          "internalType": "uint256[]",
          "name": "",
          "type": "uint256[]"
        }
      ],
      "stateMutability": "view",
      "type": "function"
    },
    {
      "inputs": [
        {
          "internalType": "uint256",
          "name": "tokenId",
          "type": "uint256"
        }
      ],
      "name": "getApproved",
      "outputs": [
        {
          "internalType": "address",
          "name": "",
          "type": "address"
        }
      ],
      "stateMutability": "view",
      "type": "function"
    },
    {
      "inputs": [],
      "name": "getAuthority",
      "outputs": [
        {
          "internalType": "address",
          "name": "",
          "type": "address"
        }
      ],
      "stateMutability": "view",
      "type": "function"
    },
    {
      "inputs": [],
      "name": "getLastTokenId",
      "outputs": [
        {
          "internalType": "uint256",
          "name": "",
          "type": "uint256"
        }
      ],
      "stateMutability": "view",
      "type": "function"
    },
    {
      "inputs": [
        {
          "internalType": "uint256",
          "name": "tokenId",
          "type": "uint256"
        }
      ],
      "name": "getLevel",
      "outputs": [
        {
          "internalType": "uint8",
          "name": "",
          "type": "uint8"
        }
      ],
      "stateMutability": "view",
      "type": "function"
    },
    {
      "inputs": [
        {
          "internalType": "uint256",
          "name": "tokenId",
          "type": "uint256"
        }
      ],
      "name": "getName",
      "outputs": [
        {
          "internalType": "string",
          "name": "",
          "type": "string"
        }
      ],
      "stateMutability": "view",
      "type": "function"
    },
    {
      "inputs": [
        {
          "internalType": "uint256",
          "name": "tokenId",
          "type": "uint256"
        }
      ],
      "name": "getRandomNumber",
      "outputs": [
        {
          "internalType": "uint8",
          "name": "",
          "type": "uint8"
        }
      ],
      "stateMutability": "view",
      "type": "function"
    },
    {
      "inputs": [
        {
          "internalType": "address",
          "name": "owner",
          "type": "address"
        },
        {
          "internalType": "address",
          "name": "operator",
          "type": "address"
        }
      ],
      "name": "isApprovedForAll",
      "outputs": [
        {
          "internalType": "bool",
          "name": "",
          "type": "bool"
        }
      ],
      "stateMutability": "view",
      "type": "function"
    },
    {
      "inputs": [
        {
          "internalType": "address",
          "name": "collector",
          "type": "address"
        },
        {
          "internalType": "string",
          "name": "_tokenURI",
          "type": "string"
        },
        {
          "internalType": "string",
          "name": "name",
          "type": "string"
        }
      ],
      "name": "mintNFT",
      "outputs": [
        {
          "internalType": "uint256",
          "name": "",
          "type": "uint256"
        }
      ],
      "stateMutability": "nonpayable",
      "type": "function"
    },
    {
      "inputs": [],
      "name": "name",
      "outputs": [
        {
          "internalType": "string",
          "name": "",
          "type": "string"
        }
      ],
      "stateMutability": "view",
      "type": "function"
    },
    {
      "inputs": [],
      "name": "owner",
      "outputs": [
        {
          "internalType": "address",
          "name": "",
          "type": "address"
        }
      ],
      "stateMutability": "view",
      "type": "function"
    },
    {
      "inputs": [
        {
          "internalType": "uint256",
          "name": "tokenId",
          "type": "uint256"
        }
      ],
      "name": "ownerOf",
      "outputs": [
        {
          "internalType": "address",
          "name": "",
          "type": "address"
        }
      ],
      "stateMutability": "view",
      "type": "function"
    },
    {
      "inputs": [],
      "name": "renounceOwnership",
      "outputs": [],
      "stateMutability": "nonpayable",
      "type": "function"
    },
    {
      "inputs": [
        {
          "internalType": "address",
          "name": "from",
          "type": "address"
        },
        {
          "internalType": "address",
          "name": "to",
          "type": "address"
        },
        {
          "internalType": "uint256",
          "name": "tokenId",
          "type": "uint256"
        }
      ],
      "name": "safeTransferFrom",
      "outputs": [],
      "stateMutability": "nonpayable",
      "type": "function"
    },
    {
      "inputs": [
        {
          "internalType": "address",
          "name": "from",
          "type": "address"
        },
        {
          "internalType": "address",
          "name": "to",
          "type": "address"
        },
        {
          "internalType": "uint256",
          "name": "tokenId",
          "type": "uint256"
        },
        {
          "internalType": "bytes",
          "name": "data",
          "type": "bytes"
        }
      ],
      "name": "safeTransferFrom",
      "outputs": [],
      "stateMutability": "nonpayable",
      "type": "function"
    },
    {
      "inputs": [
        {
          "internalType": "address",
          "name": "operator",
          "type": "address"
        },
        {
          "internalType": "bool",
          "name": "approved",
          "type": "bool"
        }
      ],
      "name": "setApprovalForAll",
      "outputs": [],
      "stateMutability": "nonpayable",
      "type": "function"
    },
    {
      "inputs": [
        {
          "internalType": "address",
          "name": "_authority",
          "type": "address"
        }
      ],
      "name": "setAuthority",
      "outputs": [],
      "stateMutability": "nonpayable",
      "type": "function"
    },
    {
      "inputs": [
        {
          "internalType": "bytes4",
          "name": "interfaceId",
          "type": "bytes4"
        }
      ],
      "name": "supportsInterface",
      "outputs": [
        {
          "internalType": "bool",
          "name": "",
          "type": "bool"
        }
      ],
      "stateMutability": "view",
      "type": "function"
    },
    {
      "inputs": [],
      "name": "symbol",
      "outputs": [
        {
          "internalType": "string",
          "name": "",
          "type": "string"
        }
      ],
      "stateMutability": "view",
      "type": "function"
    },
    {
      "inputs": [
        {
          "internalType": "uint256",
          "name": "index",
          "type": "uint256"
        }
      ],
      "name": "tokenByIndex",
      "outputs": [
        {
          "internalType": "uint256",
          "name": "",
          "type": "uint256"
        }
      ],
      "stateMutability": "view",
      "type": "function"
    },
    {
      "inputs": [
        {
          "internalType": "address",
          "name": "owner",
          "type": "address"
        },
        {
          "internalType": "uint256",
          "name": "index",
          "type": "uint256"
        }
      ],
      "name": "tokenOfOwnerByIndex",
      "outputs": [
        {
          "internalType": "uint256",
          "name": "",
          "type": "uint256"
        }
      ],
      "stateMutability": "view",
      "type": "function"
    },
    {
      "inputs": [
        {
          "internalType": "uint256",
          "name": "tokenId",
          "type": "uint256"
        }
      ],
      "name": "tokenURI",
      "outputs": [
        {
          "internalType": "string",
          "name": "",
          "type": "string"
        }
      ],
      "stateMutability": "view",
      "type": "function"
    },
    {
      "inputs": [],
      "name": "totalSupply",
      "outputs": [
        {
          "internalType": "uint256",
          "name": "",
          "type": "uint256"
        }
      ],
      "stateMutability": "view",
      "type": "function"
    },
    {
      "inputs": [
        {
          "internalType": "address",
          "name": "from",
          "type": "address"
        },
        {
          "internalType": "address",
          "name": "to",
          "type": "address"
        },
        {
          "internalType": "uint256",
          "name": "tokenId",
          "type": "uint256"
        }
      ],
      "name": "transferFrom",
      "outputs": [],
      "stateMutability": "nonpayable",
      "type": "function"
    },
    {
      "inputs": [
        {
          "internalType": "address",
          "name": "newOwner",
          "type": "address"
        }
      ],
      "name": "transferOwnership",
      "outputs": [],
      "stateMutability": "nonpayable",
      "type": "function"
    }
  ],
  "bytecode": "0x60806040523480156200001157600080fd5b506040518060400160405280600a81526020017f4e4654506c6179657273000000000000000000000000000000000000000000008152506040518060400160405280600681526020017f4e4f4e46554e000000000000000000000000000000000000000000000000000081525081600090816200008f919062000412565b508060019081620000a1919062000412565b505050620000c4620000b8620000ca60201b60201c565b620000d260201b60201c565b620004f9565b600033905090565b6000600a60009054906101000a900473ffffffffffffffffffffffffffffffffffffffff16905081600a60006101000a81548173ffffffffffffffffffffffffffffffffffffffff021916908373ffffffffffffffffffffffffffffffffffffffff1602179055508173ffffffffffffffffffffffffffffffffffffffff168173ffffffffffffffffffffffffffffffffffffffff167f8be0079c531659141344cd1fd0a4f28419497f9722a3daafe3b4186f6b6457e060405160405180910390a35050565b600081519050919050565b7f4e487b7100000000000000000000000000000000000000000000000000000000600052604160045260246000fd5b7f4e487b7100000000000000000000000000000000000000000000000000000000600052602260045260246000fd5b600060028204905060018216806200021a57607f821691505b60208210810362000230576200022f620001d2565b5b50919050565b60008190508160005260206000209050919050565b60006020601f8301049050919050565b600082821b905092915050565b6000600883026200029a7fffffffffffffffffffffffffffffffffffffffffffffffffffffffffffffffff826200025b565b620002a686836200025b565b95508019841693508086168417925050509392505050565b6000819050919050565b6000819050919050565b6000620002f3620002ed620002e784620002be565b620002c8565b620002be565b9050919050565b6000819050919050565b6200030f83620002d2565b620003276200031e82620002fa565b84845462000268565b825550505050565b600090565b6200033e6200032f565b6200034b81848462000304565b505050565b5b8181101562000373576200036760008262000334565b60018101905062000351565b5050565b601f821115620003c2576200038c8162000236565b62000397846200024b565b81016020851015620003a7578190505b620003bf620003b6856200024b565b83018262000350565b50505b505050565b600082821c905092915050565b6000620003e760001984600802620003c7565b1980831691505092915050565b6000620004028383620003d4565b9150826002028217905092915050565b6200041d8262000198565b67ffffffffffffffff811115620004395762000438620001a3565b5b62000445825462000201565b6200045282828562000377565b600060209050601f8311600181146200048a576000841562000475578287015190505b620004818582620003f4565b865550620004f1565b601f1984166200049a8662000236565b60005b82811015620004c4578489015182556001820191506020850194506020810190506200049d565b86831015620004e45784890151620004e0601f891682620003d4565b8355505b6001600288020188555050505b505050505050565b613ece80620005096000396000f3fe608060405234801561001057600080fd5b50600436106101a95760003560e01c8063715018a6116100f9578063a3ee38ae11610097578063c87b56dd11610071578063c87b56dd14610506578063e2b178a014610536578063e985e9c514610554578063f2fde38b14610584576101a9565b8063a3ee38ae1461048a578063b37217a4146104ba578063b88d4fde146104ea576101a9565b806386481d40116100d357806386481d40146104025780638da5cb5b1461043257806395d89b4114610450578063a22cb4651461046e576101a9565b8063715018a6146103be5780637a9e5e4b146103c857806383c4c00d146103e4576101a9565b806323b872dd116101665780634f6ccce7116101405780634f6ccce7146102fe5780636352211e1461032e5780636b8ff5741461035e57806370a082311461038e576101a9565b806323b872dd146102965780632f745c59146102b257806342842e0e146102e2576101a9565b806301ffc9a7146101ae57806306fdde03146101de578063081812fc146101fc578063095ea7b31461022c578063178b6de61461024857806318160ddd14610278575b600080fd5b6101c860048036038101906101c391906126a2565b6105a0565b6040516101d591906126ea565b60405180910390f35b6101e66105b2565b6040516101f39190612795565b60405180910390f35b610216600480360381019061021191906127ed565b610644565b604051610223919061285b565b60405180910390f35b610246600480360381019061024191906128a2565b61068a565b005b610262600480360381019061025d91906128e2565b6107a1565b60405161026f91906129cd565b60405180910390f35b61028061084f565b60405161028d91906129fe565b60405180910390f35b6102b060048036038101906102ab9190612a19565b61085c565b005b6102cc60048036038101906102c791906128a2565b6108bc565b6040516102d991906129fe565b60405180910390f35b6102fc60048036038101906102f79190612a19565b610961565b005b610318600480360381019061031391906127ed565b610981565b60405161032591906129fe565b60405180910390f35b610348600480360381019061034391906127ed565b6109f2565b604051610355919061285b565b60405180910390f35b610378600480360381019061037391906127ed565b610a78565b6040516103859190612795565b60405180910390f35b6103a860048036038101906103a391906128e2565b610b1d565b6040516103b591906129fe565b60405180910390f35b6103c6610bd4565b005b6103e260048036038101906103dd91906128e2565b610be8565b005b6103ec610c34565b6040516103f991906129fe565b60405180910390f35b61041c600480360381019061041791906127ed565b610c3e565b6040516104299190612a88565b60405180910390f35b61043a610c68565b604051610447919061285b565b60405180910390f35b610458610c92565b6040516104659190612795565b60405180910390f35b61048860048036038101906104839190612acf565b610d24565b005b6104a4600480360381019061049f9190612c44565b610d3a565b6040516104b191906129fe565b60405180910390f35b6104d460048036038101906104cf91906127ed565b610f24565b6040516104e19190612a88565b60405180910390f35b61050460048036038101906104ff9190612d70565b610f78565b005b610520600480360381019061051b91906127ed565b610fda565b60405161052d9190612795565b60405180910390f35b61053e611028565b60405161054b919061285b565b60405180910390f35b61056e60048036038101906105699190612df3565b611052565b60405161057b91906126ea565b60405180910390f35b61059e600480360381019061059991906128e2565b6110e6565b005b60006105ab82611169565b9050919050565b6060600080546105c190612e62565b80601f01602080910402602001604051908101604052809291908181526020018280546105ed90612e62565b801561063a5780601f1061060f5761010080835404028352916020019161063a565b820191906000526020600020905b81548152906001019060200180831161061d57829003601f168201915b5050505050905090565b600061064f826111e3565b6004600083815260200190815260200160002060009054906101000a900473ffffffffffffffffffffffffffffffffffffffff169050919050565b6000610695826109f2565b90508073ffffffffffffffffffffffffffffffffffffffff168373ffffffffffffffffffffffffffffffffffffffff1603610705576040517f08c379a00000000000000000000000000000000000000000000000000000000081526004016106fc90612f05565b60405180910390fd5b8073ffffffffffffffffffffffffffffffffffffffff1661072461122e565b73ffffffffffffffffffffffffffffffffffffffff16148061075357506107528161074d61122e565b611052565b5b610792576040517f08c379a000000000000000000000000000000000000000000000000000000000815260040161078990612f97565b60405180910390fd5b61079c8383611236565b505050565b606060006107ae83610b1d565b905060008167ffffffffffffffff8111156107cc576107cb612b19565b5b6040519080825280602002602001820160405280156107fa5781602001602082028036833780820191505090505b50905060005b828110156108445761081285826108bc565b82828151811061082557610824612fb7565b5b602002602001018181525050808061083c90613015565b915050610800565b508092505050919050565b6000600880549050905090565b61086d61086761122e565b826112ef565b6108ac576040517f08c379a00000000000000000000000000000000000000000000000000000000081526004016108a3906130cf565b60405180910390fd5b6108b7838383611384565b505050565b60006108c783610b1d565b8210610908576040517f08c379a00000000000000000000000000000000000000000000000000000000081526004016108ff90613161565b60405180910390fd5b600660008473ffffffffffffffffffffffffffffffffffffffff1673ffffffffffffffffffffffffffffffffffffffff168152602001908152602001600020600083815260200190815260200160002054905092915050565b61097c83838360405180602001604052806000815250610f78565b505050565b600061098b61084f565b82106109cc576040517f08c379a00000000000000000000000000000000000000000000000000000000081526004016109c3906131f3565b60405180910390fd5b600882815481106109e0576109df612fb7565b5b90600052602060002001549050919050565b6000806109fe8361167d565b9050600073ffffffffffffffffffffffffffffffffffffffff168173ffffffffffffffffffffffffffffffffffffffff1603610a6f576040517f08c379a0000000000000000000000000000000000000000000000000000000008152600401610a669061325f565b60405180910390fd5b80915050919050565b6060600e60008381526020019081526020016000208054610a9890612e62565b80601f0160208091040260200160405190810160405280929190818152602001828054610ac490612e62565b8015610b115780601f10610ae657610100808354040283529160200191610b11565b820191906000526020600020905b815481529060010190602001808311610af457829003601f168201915b50505050509050919050565b60008073ffffffffffffffffffffffffffffffffffffffff168273ffffffffffffffffffffffffffffffffffffffff1603610b8d576040517f08c379a0000000000000000000000000000000000000000000000000000000008152600401610b84906132f1565b60405180910390fd5b600360008373ffffffffffffffffffffffffffffffffffffffff1673ffffffffffffffffffffffffffffffffffffffff168152602001908152602001600020549050919050565b610bdc6116ba565b610be66000611738565b565b610bf06116ba565b80600b60006101000a81548173ffffffffffffffffffffffffffffffffffffffff021916908373ffffffffffffffffffffffffffffffffffffffff16021790555050565b6000600f54905090565b6000600d600083815260200190815260200160002060009054906101000a900460ff169050919050565b6000600a60009054906101000a900473ffffffffffffffffffffffffffffffffffffffff16905090565b606060018054610ca190612e62565b80601f0160208091040260200160405190810160405280929190818152602001828054610ccd90612e62565b8015610d1a5780601f10610cef57610100808354040283529160200191610d1a565b820191906000526020600020905b815481529060010190602001808311610cfd57829003601f168201915b5050505050905090565b610d36610d2f61122e565b83836117fe565b5050565b60003373ffffffffffffffffffffffffffffffffffffffff16600b60009054906101000a900473ffffffffffffffffffffffffffffffffffffffff1673ffffffffffffffffffffffffffffffffffffffff161480610dca57503373ffffffffffffffffffffffffffffffffffffffff16610db2610c68565b73ffffffffffffffffffffffffffffffffffffffff16145b610e09576040517f08c379a0000000000000000000000000000000000000000000000000000000008152600401610e009061335d565b60405180910390fd5b600f6000815480929190610e1c90613015565b91905055506000600f549050610e32858261196a565b83600c60008381526020019081526020016000209081610e529190613529565b503073ffffffffffffffffffffffffffffffffffffffff1663b37217a4826040518263ffffffff1660e01b8152600401610e8c91906129fe565b602060405180830381865afa158015610ea9573d6000803e3d6000fd5b505050506040513d601f19601f82011682018060405250810190610ecd9190613627565b600d600083815260200190815260200160002060006101000a81548160ff021916908360ff16021790555082600e60008381526020019081526020016000209081610f189190613529565b50809150509392505050565b600080824333604051602001610f3c939291906136bd565b6040516020818303038152906040528051906020012060001c90506001600582610f669190613729565b610f70919061375a565b915050919050565b610f89610f8361122e565b836112ef565b610fc8576040517f08c379a0000000000000000000000000000000000000000000000000000000008152600401610fbf906130cf565b60405180910390fd5b610fd484848484611988565b50505050565b6060610fe5826111e3565b600c6000838152602001908152602001600020611001836119e4565b604051602001611012929190613899565b6040516020818303038152906040529050919050565b6000600b60009054906101000a900473ffffffffffffffffffffffffffffffffffffffff16905090565b6000600560008473ffffffffffffffffffffffffffffffffffffffff1673ffffffffffffffffffffffffffffffffffffffff16815260200190815260200160002060008373ffffffffffffffffffffffffffffffffffffffff1673ffffffffffffffffffffffffffffffffffffffff16815260200190815260200160002060009054906101000a900460ff16905092915050565b6110ee6116ba565b600073ffffffffffffffffffffffffffffffffffffffff168173ffffffffffffffffffffffffffffffffffffffff160361115d576040517f08c379a00000000000000000000000000000000000000000000000000000000081526004016111549061393a565b60405180910390fd5b61116681611738565b50565b60007f780e9d63000000000000000000000000000000000000000000000000000000007bffffffffffffffffffffffffffffffffffffffffffffffffffffffff1916827bffffffffffffffffffffffffffffffffffffffffffffffffffffffff191614806111dc57506111db82611ab2565b5b9050919050565b6111ec81611b94565b61122b576040517f08c379a00000000000000000000000000000000000000000000000000000000081526004016112229061325f565b60405180910390fd5b50565b600033905090565b816004600083815260200190815260200160002060006101000a81548173ffffffffffffffffffffffffffffffffffffffff021916908373ffffffffffffffffffffffffffffffffffffffff160217905550808273ffffffffffffffffffffffffffffffffffffffff166112a9836109f2565b73ffffffffffffffffffffffffffffffffffffffff167f8c5be1e5ebec7d5bd14f71427d1e84f3dd0314c0f7b2291e5b200ac8c7c3b92560405160405180910390a45050565b6000806112fb836109f2565b90508073ffffffffffffffffffffffffffffffffffffffff168473ffffffffffffffffffffffffffffffffffffffff16148061133d575061133c8185611052565b5b8061137b57508373ffffffffffffffffffffffffffffffffffffffff1661136384610644565b73ffffffffffffffffffffffffffffffffffffffff16145b91505092915050565b8273ffffffffffffffffffffffffffffffffffffffff166113a4826109f2565b73ffffffffffffffffffffffffffffffffffffffff16146113fa576040517f08c379a00000000000000000000000000000000000000000000000000000000081526004016113f1906139cc565b60405180910390fd5b600073ffffffffffffffffffffffffffffffffffffffff168273ffffffffffffffffffffffffffffffffffffffff1603611469576040517f08c379a000000000000000000000000000000000000000000000000000000000815260040161146090613a5e565b60405180910390fd5b6114768383836001611bd5565b8273ffffffffffffffffffffffffffffffffffffffff16611496826109f2565b73ffffffffffffffffffffffffffffffffffffffff16146114ec576040517f08c379a00000000000000000000000000000000000000000000000000000000081526004016114e3906139cc565b60405180910390fd5b6004600082815260200190815260200160002060006101000a81549073ffffffffffffffffffffffffffffffffffffffff02191690556001600360008573ffffffffffffffffffffffffffffffffffffffff1673ffffffffffffffffffffffffffffffffffffffff168152602001908152602001600020600082825403925050819055506001600360008473ffffffffffffffffffffffffffffffffffffffff1673ffffffffffffffffffffffffffffffffffffffff16815260200190815260200160002060008282540192505081905550816002600083815260200190815260200160002060006101000a81548173ffffffffffffffffffffffffffffffffffffffff021916908373ffffffffffffffffffffffffffffffffffffffff160217905550808273ffffffffffffffffffffffffffffffffffffffff168473ffffffffffffffffffffffffffffffffffffffff167fddf252ad1be2c89b69c2b068fc378daa952ba7f163c4a11628f55a4df523b3ef60405160405180910390a46116788383836001611be7565b505050565b60006002600083815260200190815260200160002060009054906101000a900473ffffffffffffffffffffffffffffffffffffffff169050919050565b6116c261122e565b73ffffffffffffffffffffffffffffffffffffffff166116e0610c68565b73ffffffffffffffffffffffffffffffffffffffff1614611736576040517f08c379a000000000000000000000000000000000000000000000000000000000815260040161172d90613aca565b60405180910390fd5b565b6000600a60009054906101000a900473ffffffffffffffffffffffffffffffffffffffff16905081600a60006101000a81548173ffffffffffffffffffffffffffffffffffffffff021916908373ffffffffffffffffffffffffffffffffffffffff1602179055508173ffffffffffffffffffffffffffffffffffffffff168173ffffffffffffffffffffffffffffffffffffffff167f8be0079c531659141344cd1fd0a4f28419497f9722a3daafe3b4186f6b6457e060405160405180910390a35050565b8173ffffffffffffffffffffffffffffffffffffffff168373ffffffffffffffffffffffffffffffffffffffff160361186c576040517f08c379a000000000000000000000000000000000000000000000000000000000815260040161186390613b36565b60405180910390fd5b80600560008573ffffffffffffffffffffffffffffffffffffffff1673ffffffffffffffffffffffffffffffffffffffff16815260200190815260200160002060008473ffffffffffffffffffffffffffffffffffffffff1673ffffffffffffffffffffffffffffffffffffffff16815260200190815260200160002060006101000a81548160ff0219169083151502179055508173ffffffffffffffffffffffffffffffffffffffff168373ffffffffffffffffffffffffffffffffffffffff167f17307eab39ab6107e8899845ad3d59bd9653f200f220920489ca2b5937696c318360405161195d91906126ea565b60405180910390a3505050565b611984828260405180602001604052806000815250611bed565b5050565b611993848484611384565b61199f84848484611c48565b6119de576040517f08c379a00000000000000000000000000000000000000000000000000000000081526004016119d590613bc8565b60405180910390fd5b50505050565b6060600060016119f384611dcf565b01905060008167ffffffffffffffff811115611a1257611a11612b19565b5b6040519080825280601f01601f191660200182016040528015611a445781602001600182028036833780820191505090505b509050600082602001820190505b600115611aa7578080600190039150507f3031323334353637383961626364656600000000000000000000000000000000600a86061a8153600a8581611a9b57611a9a6136fa565b5b04945060008503611a52575b819350505050919050565b60007f80ac58cd000000000000000000000000000000000000000000000000000000007bffffffffffffffffffffffffffffffffffffffffffffffffffffffff1916827bffffffffffffffffffffffffffffffffffffffffffffffffffffffff19161480611b7d57507f5b5e139f000000000000000000000000000000000000000000000000000000007bffffffffffffffffffffffffffffffffffffffffffffffffffffffff1916827bffffffffffffffffffffffffffffffffffffffffffffffffffffffff1916145b80611b8d5750611b8c82611f22565b5b9050919050565b60008073ffffffffffffffffffffffffffffffffffffffff16611bb68361167d565b73ffffffffffffffffffffffffffffffffffffffff1614159050919050565b611be184848484611f8c565b50505050565b50505050565b611bf783836120ea565b611c046000848484611c48565b611c43576040517f08c379a0000000000000000000000000000000000000000000000000000000008152600401611c3a90613bc8565b60405180910390fd5b505050565b6000611c698473ffffffffffffffffffffffffffffffffffffffff16612307565b15611dc2578373ffffffffffffffffffffffffffffffffffffffff1663150b7a02611c9261122e565b8786866040518563ffffffff1660e01b8152600401611cb49493929190613c3d565b6020604051808303816000875af1925050508015611cf057506040513d601f19601f82011682018060405250810190611ced9190613c9e565b60015b611d72573d8060008114611d20576040519150601f19603f3d011682016040523d82523d6000602084013e611d25565b606091505b506000815103611d6a576040517f08c379a0000000000000000000000000000000000000000000000000000000008152600401611d6190613bc8565b60405180910390fd5b805181602001fd5b63150b7a0260e01b7bffffffffffffffffffffffffffffffffffffffffffffffffffffffff1916817bffffffffffffffffffffffffffffffffffffffffffffffffffffffff191614915050611dc7565b600190505b949350505050565b600080600090507a184f03e93ff9f4daa797ed6e38ed64bf6a1f0100000000000000008310611e2d577a184f03e93ff9f4daa797ed6e38ed64bf6a1f0100000000000000008381611e2357611e226136fa565b5b0492506040810190505b6d04ee2d6d415b85acef81000000008310611e6a576d04ee2d6d415b85acef81000000008381611e6057611e5f6136fa565b5b0492506020810190505b662386f26fc100008310611e9957662386f26fc100008381611e8f57611e8e6136fa565b5b0492506010810190505b6305f5e1008310611ec2576305f5e1008381611eb857611eb76136fa565b5b0492506008810190505b6127108310611ee7576127108381611edd57611edc6136fa565b5b0492506004810190505b60648310611f0a5760648381611f0057611eff6136fa565b5b0492506002810190505b600a8310611f19576001810190505b80915050919050565b60007f01ffc9a7000000000000000000000000000000000000000000000000000000007bffffffffffffffffffffffffffffffffffffffffffffffffffffffff1916827bffffffffffffffffffffffffffffffffffffffffffffffffffffffff1916149050919050565b611f988484848461232a565b6001811115611fdc576040517f08c379a0000000000000000000000000000000000000000000000000000000008152600401611fd390613d3d565b60405180910390fd5b6000829050600073ffffffffffffffffffffffffffffffffffffffff168573ffffffffffffffffffffffffffffffffffffffff16036120235761201e81612330565b612062565b8373ffffffffffffffffffffffffffffffffffffffff168573ffffffffffffffffffffffffffffffffffffffff1614612061576120608582612379565b5b5b600073ffffffffffffffffffffffffffffffffffffffff168473ffffffffffffffffffffffffffffffffffffffff16036120a45761209f816124e6565b6120e3565b8473ffffffffffffffffffffffffffffffffffffffff168473ffffffffffffffffffffffffffffffffffffffff16146120e2576120e184826125b7565b5b5b5050505050565b600073ffffffffffffffffffffffffffffffffffffffff168273ffffffffffffffffffffffffffffffffffffffff1603612159576040517f08c379a000000000000000000000000000000000000000000000000000000000815260040161215090613da9565b60405180910390fd5b61216281611b94565b156121a2576040517f08c379a000000000000000000000000000000000000000000000000000000000815260040161219990613e15565b60405180910390fd5b6121b0600083836001611bd5565b6121b981611b94565b156121f9576040517f08c379a00000000000000000000000000000000000000000000000000000000081526004016121f090613e15565b60405180910390fd5b6001600360008473ffffffffffffffffffffffffffffffffffffffff1673ffffffffffffffffffffffffffffffffffffffff16815260200190815260200160002060008282540192505081905550816002600083815260200190815260200160002060006101000a81548173ffffffffffffffffffffffffffffffffffffffff021916908373ffffffffffffffffffffffffffffffffffffffff160217905550808273ffffffffffffffffffffffffffffffffffffffff16600073ffffffffffffffffffffffffffffffffffffffff167fddf252ad1be2c89b69c2b068fc378daa952ba7f163c4a11628f55a4df523b3ef60405160405180910390a4612303600083836001611be7565b5050565b6000808273ffffffffffffffffffffffffffffffffffffffff163b119050919050565b50505050565b6008805490506009600083815260200190815260200160002081905550600881908060018154018082558091505060019003906000526020600020016000909190919091505550565b6000600161238684610b1d565b6123909190613e35565b9050600060076000848152602001908152602001600020549050818114612475576000600660008673ffffffffffffffffffffffffffffffffffffffff1673ffffffffffffffffffffffffffffffffffffffff168152602001908152602001600020600084815260200190815260200160002054905080600660008773ffffffffffffffffffffffffffffffffffffffff1673ffffffffffffffffffffffffffffffffffffffff168152602001908152602001600020600084815260200190815260200160002081905550816007600083815260200190815260200160002081905550505b6007600084815260200190815260200160002060009055600660008573ffffffffffffffffffffffffffffffffffffffff1673ffffffffffffffffffffffffffffffffffffffff16815260200190815260200160002060008381526020019081526020016000206000905550505050565b600060016008805490506124fa9190613e35565b905060006009600084815260200190815260200160002054905060006008838154811061252a57612529612fb7565b5b90600052602060002001549050806008838154811061254c5761254b612fb7565b5b90600052602060002001819055508160096000838152602001908152602001600020819055506009600085815260200190815260200160002060009055600880548061259b5761259a613e69565b5b6001900381819060005260206000200160009055905550505050565b60006125c283610b1d565b905081600660008573ffffffffffffffffffffffffffffffffffffffff1673ffffffffffffffffffffffffffffffffffffffff168152602001908152602001600020600083815260200190815260200160002081905550806007600084815260200190815260200160002081905550505050565b6000604051905090565b600080fd5b600080fd5b60007fffffffff0000000000000000000000000000000000000000000000000000000082169050919050565b61267f8161264a565b811461268a57600080fd5b50565b60008135905061269c81612676565b92915050565b6000602082840312156126b8576126b7612640565b5b60006126c68482850161268d565b91505092915050565b60008115159050919050565b6126e4816126cf565b82525050565b60006020820190506126ff60008301846126db565b92915050565b600081519050919050565b600082825260208201905092915050565b60005b8381101561273f578082015181840152602081019050612724565b60008484015250505050565b6000601f19601f8301169050919050565b600061276782612705565b6127718185612710565b9350612781818560208601612721565b61278a8161274b565b840191505092915050565b600060208201905081810360008301526127af818461275c565b905092915050565b6000819050919050565b6127ca816127b7565b81146127d557600080fd5b50565b6000813590506127e7816127c1565b92915050565b60006020828403121561280357612802612640565b5b6000612811848285016127d8565b91505092915050565b600073ffffffffffffffffffffffffffffffffffffffff82169050919050565b60006128458261281a565b9050919050565b6128558161283a565b82525050565b6000602082019050612870600083018461284c565b92915050565b61287f8161283a565b811461288a57600080fd5b50565b60008135905061289c81612876565b92915050565b600080604083850312156128b9576128b8612640565b5b60006128c78582860161288d565b92505060206128d8858286016127d8565b9150509250929050565b6000602082840312156128f8576128f7612640565b5b60006129068482850161288d565b91505092915050565b600081519050919050565b600082825260208201905092915050565b6000819050602082019050919050565b612944816127b7565b82525050565b6000612956838361293b565b60208301905092915050565b6000602082019050919050565b600061297a8261290f565b612984818561291a565b935061298f8361292b565b8060005b838110156129c05781516129a7888261294a565b97506129b283612962565b925050600181019050612993565b5085935050505092915050565b600060208201905081810360008301526129e7818461296f565b905092915050565b6129f8816127b7565b82525050565b6000602082019050612a1360008301846129ef565b92915050565b600080600060608486031215612a3257612a31612640565b5b6000612a408682870161288d565b9350506020612a518682870161288d565b9250506040612a62868287016127d8565b9150509250925092565b600060ff82169050919050565b612a8281612a6c565b82525050565b6000602082019050612a9d6000830184612a79565b92915050565b612aac816126cf565b8114612ab757600080fd5b50565b600081359050612ac981612aa3565b92915050565b60008060408385031215612ae657612ae5612640565b5b6000612af48582860161288d565b9250506020612b0585828601612aba565b9150509250929050565b600080fd5b600080fd5b7f4e487b7100000000000000000000000000000000000000000000000000000000600052604160045260246000fd5b612b518261274b565b810181811067ffffffffffffffff82111715612b7057612b6f612b19565b5b80604052505050565b6000612b83612636565b9050612b8f8282612b48565b919050565b600067ffffffffffffffff821115612baf57612bae612b19565b5b612bb88261274b565b9050602081019050919050565b82818337600083830152505050565b6000612be7612be284612b94565b612b79565b905082815260208101848484011115612c0357612c02612b14565b5b612c0e848285612bc5565b509392505050565b600082601f830112612c2b57612c2a612b0f565b5b8135612c3b848260208601612bd4565b91505092915050565b600080600060608486031215612c5d57612c5c612640565b5b6000612c6b8682870161288d565b935050602084013567ffffffffffffffff811115612c8c57612c8b612645565b5b612c9886828701612c16565b925050604084013567ffffffffffffffff811115612cb957612cb8612645565b5b612cc586828701612c16565b9150509250925092565b600067ffffffffffffffff821115612cea57612ce9612b19565b5b612cf38261274b565b9050602081019050919050565b6000612d13612d0e84612ccf565b612b79565b905082815260208101848484011115612d2f57612d2e612b14565b5b612d3a848285612bc5565b509392505050565b600082601f830112612d5757612d56612b0f565b5b8135612d67848260208601612d00565b91505092915050565b60008060008060808587031215612d8a57612d89612640565b5b6000612d988782880161288d565b9450506020612da98782880161288d565b9350506040612dba878288016127d8565b925050606085013567ffffffffffffffff811115612ddb57612dda612645565b5b612de787828801612d42565b91505092959194509250565b60008060408385031215612e0a57612e09612640565b5b6000612e188582860161288d565b9250506020612e298582860161288d565b9150509250929050565b7f4e487b7100000000000000000000000000000000000000000000000000000000600052602260045260246000fd5b60006002820490506001821680612e7a57607f821691505b602082108103612e8d57612e8c612e33565b5b50919050565b7f4552433732313a20617070726f76616c20746f2063757272656e74206f776e6560008201527f7200000000000000000000000000000000000000000000000000000000000000602082015250565b6000612eef602183612710565b9150612efa82612e93565b604082019050919050565b60006020820190508181036000830152612f1e81612ee2565b9050919050565b7f4552433732313a20617070726f76652063616c6c6572206973206e6f7420746f60008201527f6b656e206f776e6572206f7220617070726f76656420666f7220616c6c000000602082015250565b6000612f81603d83612710565b9150612f8c82612f25565b604082019050919050565b60006020820190508181036000830152612fb081612f74565b9050919050565b7f4e487b7100000000000000000000000000000000000000000000000000000000600052603260045260246000fd5b7f4e487b7100000000000000000000000000000000000000000000000000000000600052601160045260246000fd5b6000613020826127b7565b91507fffffffffffffffffffffffffffffffffffffffffffffffffffffffffffffffff820361305257613051612fe6565b5b600182019050919050565b7f4552433732313a2063616c6c6572206973206e6f7420746f6b656e206f776e6560008201527f72206f7220617070726f76656400000000000000000000000000000000000000602082015250565b60006130b9602d83612710565b91506130c48261305d565b604082019050919050565b600060208201905081810360008301526130e8816130ac565b9050919050565b7f455243373231456e756d657261626c653a206f776e657220696e646578206f7560008201527f74206f6620626f756e6473000000000000000000000000000000000000000000602082015250565b600061314b602b83612710565b9150613156826130ef565b604082019050919050565b6000602082019050818103600083015261317a8161313e565b9050919050565b7f455243373231456e756d657261626c653a20676c6f62616c20696e646578206f60008201527f7574206f6620626f756e64730000000000000000000000000000000000000000602082015250565b60006131dd602c83612710565b91506131e882613181565b604082019050919050565b6000602082019050818103600083015261320c816131d0565b9050919050565b7f4552433732313a20696e76616c696420746f6b656e2049440000000000000000600082015250565b6000613249601883612710565b915061325482613213565b602082019050919050565b600060208201905081810360008301526132788161323c565b9050919050565b7f4552433732313a2061646472657373207a65726f206973206e6f74206120766160008201527f6c6964206f776e65720000000000000000000000000000000000000000000000602082015250565b60006132db602983612710565b91506132e68261327f565b604082019050919050565b6000602082019050818103600083015261330a816132ce565b9050919050565b7f4f6e6c792074686520617574686f726974792063616e206d696e74204e465473600082015250565b6000613347602083612710565b915061335282613311565b602082019050919050565b600060208201905081810360008301526133768161333a565b9050919050565b60008190508160005260206000209050919050565b60006020601f8301049050919050565b600082821b905092915050565b6000600883026133df7fffffffffffffffffffffffffffffffffffffffffffffffffffffffffffffffff826133a2565b6133e986836133a2565b95508019841693508086168417925050509392505050565b6000819050919050565b600061342661342161341c846127b7565b613401565b6127b7565b9050919050565b6000819050919050565b6134408361340b565b61345461344c8261342d565b8484546133af565b825550505050565b600090565b61346961345c565b613474818484613437565b505050565b5b818110156134985761348d600082613461565b60018101905061347a565b5050565b601f8211156134dd576134ae8161337d565b6134b784613392565b810160208510156134c6578190505b6134da6134d285613392565b830182613479565b50505b505050565b600082821c905092915050565b6000613500600019846008026134e2565b1980831691505092915050565b600061351983836134ef565b9150826002028217905092915050565b61353282612705565b67ffffffffffffffff81111561354b5761354a612b19565b5b6135558254612e62565b61356082828561349c565b600060209050601f8311600181146135935760008415613581578287015190505b61358b858261350d565b8655506135f3565b601f1984166135a18661337d565b60005b828110156135c9578489015182556001820191506020850194506020810190506135a4565b868310156135e657848901516135e2601f8916826134ef565b8355505b6001600288020188555050505b505050505050565b61360481612a6c565b811461360f57600080fd5b50565b600081519050613621816135fb565b92915050565b60006020828403121561363d5761363c612640565b5b600061364b84828501613612565b91505092915050565b6000819050919050565b61366f61366a826127b7565b613654565b82525050565b60008160601b9050919050565b600061368d82613675565b9050919050565b600061369f82613682565b9050919050565b6136b76136b28261283a565b613694565b82525050565b60006136c9828661365e565b6020820191506136d9828561365e565b6020820191506136e982846136a6565b601482019150819050949350505050565b7f4e487b7100000000000000000000000000000000000000000000000000000000600052601260045260246000fd5b6000613734826127b7565b915061373f836127b7565b92508261374f5761374e6136fa565b5b828206905092915050565b6000613765826127b7565b9150613770836127b7565b925082820190508082111561378857613787612fe6565b5b92915050565b600081905092915050565b600081546137a681612e62565b6137b0818661378e565b945060018216600081146137cb57600181146137e057613813565b60ff1983168652811515820286019350613813565b6137e98561337d565b60005b8381101561380b578154818901526001820191506020810190506137ec565b838801955050505b50505092915050565b600061382782612705565b613831818561378e565b9350613841818560208601612721565b80840191505092915050565b7f2e6a736f6e000000000000000000000000000000000000000000000000000000600082015250565b600061388360058361378e565b915061388e8261384d565b600582019050919050565b60006138a58285613799565b91506138b1828461381c565b91506138bc82613876565b91508190509392505050565b7f4f776e61626c653a206e6577206f776e657220697320746865207a65726f206160008201527f6464726573730000000000000000000000000000000000000000000000000000602082015250565b6000613924602683612710565b915061392f826138c8565b604082019050919050565b6000602082019050818103600083015261395381613917565b9050919050565b7f4552433732313a207472616e736665722066726f6d20696e636f72726563742060008201527f6f776e6572000000000000000000000000000000000000000000000000000000602082015250565b60006139b6602583612710565b91506139c18261395a565b604082019050919050565b600060208201905081810360008301526139e5816139a9565b9050919050565b7f4552433732313a207472616e7366657220746f20746865207a65726f2061646460008201527f7265737300000000000000000000000000000000000000000000000000000000602082015250565b6000613a48602483612710565b9150613a53826139ec565b604082019050919050565b60006020820190508181036000830152613a7781613a3b565b9050919050565b7f4f776e61626c653a2063616c6c6572206973206e6f7420746865206f776e6572600082015250565b6000613ab4602083612710565b9150613abf82613a7e565b602082019050919050565b60006020820190508181036000830152613ae381613aa7565b9050919050565b7f4552433732313a20617070726f766520746f2063616c6c657200000000000000600082015250565b6000613b20601983612710565b9150613b2b82613aea565b602082019050919050565b60006020820190508181036000830152613b4f81613b13565b9050919050565b7f4552433732313a207472616e7366657220746f206e6f6e20455243373231526560008201527f63656976657220696d706c656d656e7465720000000000000000000000000000602082015250565b6000613bb2603283612710565b9150613bbd82613b56565b604082019050919050565b60006020820190508181036000830152613be181613ba5565b9050919050565b600081519050919050565b600082825260208201905092915050565b6000613c0f82613be8565b613c198185613bf3565b9350613c29818560208601612721565b613c328161274b565b840191505092915050565b6000608082019050613c52600083018761284c565b613c5f602083018661284c565b613c6c60408301856129ef565b8181036060830152613c7e8184613c04565b905095945050505050565b600081519050613c9881612676565b92915050565b600060208284031215613cb457613cb3612640565b5b6000613cc284828501613c89565b91505092915050565b7f455243373231456e756d657261626c653a20636f6e736563757469766520747260008201527f616e7366657273206e6f7420737570706f727465640000000000000000000000602082015250565b6000613d27603583612710565b9150613d3282613ccb565b604082019050919050565b60006020820190508181036000830152613d5681613d1a565b9050919050565b7f4552433732313a206d696e7420746f20746865207a65726f2061646472657373600082015250565b6000613d93602083612710565b9150613d9e82613d5d565b602082019050919050565b60006020820190508181036000830152613dc281613d86565b9050919050565b7f4552433732313a20746f6b656e20616c7265616479206d696e74656400000000600082015250565b6000613dff601c83612710565b9150613e0a82613dc9565b602082019050919050565b60006020820190508181036000830152613e2e81613df2565b9050919050565b6000613e40826127b7565b9150613e4b836127b7565b9250828203905081811115613e6357613e62612fe6565b5b92915050565b7f4e487b7100000000000000000000000000000000000000000000000000000000600052603160045260246000fdfea26469706673582212207f5ffaf2190ed97142cb7cb2b9eac4f62ced3e6192d13456139363e2015b58ef64736f6c63430008110033",
  "linkReferences": {},
  "deployedLinkReferences": {}
}