{
  "_format": "hh-sol-artifact-1",
  "contractName": "NFTPlayers",
  "sourceName": "contracts/NFTPlayers.sol",
  "abi": [
    {
      "inputs": [],
      "stateMutability": "nonpayable",
      "type": "constructor"
    },
    {
      "anonymous": false,
      "inputs": [
        {
          "indexed": true,
          "internalType": "address",
          "name": "owner",
          "type": "address"
        },
        {
          "indexed": true,
          "internalType": "address",
          "name": "approved",
          "type": "address"
        },
        {
          "indexed": true,
          "internalType": "uint256",
          "name": "tokenId",
          "type": "uint256"
        }
      ],
      "name": "Approval",
      "type": "event"
    },
    {
      "anonymous": false,
      "inputs": [
        {
          "indexed": true,
          "internalType": "address",
          "name": "owner",
          "type": "address"
        },
        {
          "indexed": true,
          "internalType": "address",
          "name": "operator",
          "type": "address"
        },
        {
          "indexed": false,
          "internalType": "bool",
          "name": "approved",
          "type": "bool"
        }
      ],
      "name": "ApprovalForAll",
      "type": "event"
    },
    {
      "anonymous": false,
      "inputs": [
        {
          "indexed": true,
          "internalType": "address",
          "name": "previousOwner",
          "type": "address"
        },
        {
          "indexed": true,
          "internalType": "address",
          "name": "newOwner",
          "type": "address"
        }
      ],
      "name": "OwnershipTransferred",
      "type": "event"
    },
    {
      "anonymous": false,
      "inputs": [
        {
          "indexed": true,
          "internalType": "address",
          "name": "from",
          "type": "address"
        },
        {
          "indexed": true,
          "internalType": "address",
          "name": "to",
          "type": "address"
        },
        {
          "indexed": true,
          "internalType": "uint256",
          "name": "tokenId",
          "type": "uint256"
        }
      ],
      "name": "Transfer",
      "type": "event"
    },
    {
      "inputs": [
        {
          "internalType": "uint256",
          "name": "tokenId",
          "type": "uint256"
        },
        {
          "internalType": "uint256",
          "name": "amount",
          "type": "uint256"
        }
      ],
      "name": "addXp",
      "outputs": [],
      "stateMutability": "nonpayable",
      "type": "function"
    },
    {
      "inputs": [
        {
          "internalType": "address",
          "name": "to",
          "type": "address"
        },
        {
          "internalType": "uint256",
          "name": "tokenId",
          "type": "uint256"
        }
      ],
      "name": "approve",
      "outputs": [],
      "stateMutability": "nonpayable",
      "type": "function"
    },
    {
      "inputs": [
        {
          "internalType": "address",
          "name": "owner",
          "type": "address"
        }
      ],
      "name": "balanceOf",
      "outputs": [
        {
          "internalType": "uint256",
          "name": "",
          "type": "uint256"
        }
      ],
      "stateMutability": "view",
      "type": "function"
    },
    {
      "inputs": [
        {
          "internalType": "uint256",
          "name": "xp",
          "type": "uint256"
        }
      ],
      "name": "calculateLevel",
      "outputs": [
        {
          "internalType": "uint32",
          "name": "",
          "type": "uint32"
        }
      ],
      "stateMutability": "pure",
      "type": "function"
    },
    {
      "inputs": [
        {
          "internalType": "address",
          "name": "owner",
          "type": "address"
        }
      ],
      "name": "getAllTokens",
      "outputs": [
        {
          "internalType": "uint256[]",
          "name": "",
          "type": "uint256[]"
        }
      ],
      "stateMutability": "view",
      "type": "function"
    },
    {
      "inputs": [
        {
          "internalType": "uint256",
          "name": "tokenId",
          "type": "uint256"
        }
      ],
      "name": "getApproved",
      "outputs": [
        {
          "internalType": "address",
          "name": "",
          "type": "address"
        }
      ],
      "stateMutability": "view",
      "type": "function"
    },
    {
      "inputs": [],
      "name": "getAuthority",
      "outputs": [
        {
          "internalType": "address",
          "name": "",
          "type": "address"
        }
      ],
      "stateMutability": "view",
      "type": "function"
    },
    {
      "inputs": [],
      "name": "getLastTokenId",
      "outputs": [
        {
          "internalType": "uint256",
          "name": "",
          "type": "uint256"
        }
      ],
      "stateMutability": "view",
      "type": "function"
    },
    {
      "inputs": [
        {
          "internalType": "uint256",
          "name": "tokenId",
          "type": "uint256"
        }
      ],
      "name": "getLevel",
      "outputs": [
        {
          "internalType": "uint32",
          "name": "",
          "type": "uint32"
        }
      ],
      "stateMutability": "view",
      "type": "function"
    },
    {
      "inputs": [
        {
          "internalType": "uint256",
          "name": "tokenId",
          "type": "uint256"
        }
      ],
      "name": "getName",
      "outputs": [
        {
          "internalType": "string",
          "name": "",
          "type": "string"
        }
      ],
      "stateMutability": "view",
      "type": "function"
    },
    {
      "inputs": [
        {
          "internalType": "uint256",
          "name": "tokenId",
          "type": "uint256"
        }
      ],
      "name": "getRandomNumber",
      "outputs": [
        {
          "internalType": "uint8",
          "name": "",
          "type": "uint8"
        }
      ],
      "stateMutability": "view",
      "type": "function"
    },
    {
      "inputs": [
        {
          "internalType": "uint256",
          "name": "tokenId",
          "type": "uint256"
        }
      ],
      "name": "getXp",
      "outputs": [
        {
          "internalType": "uint256",
          "name": "",
          "type": "uint256"
        }
      ],
      "stateMutability": "view",
      "type": "function"
    },
    {
      "inputs": [
        {
          "internalType": "address",
          "name": "owner",
          "type": "address"
        },
        {
          "internalType": "address",
          "name": "operator",
          "type": "address"
        }
      ],
      "name": "isApprovedForAll",
      "outputs": [
        {
          "internalType": "bool",
          "name": "",
          "type": "bool"
        }
      ],
      "stateMutability": "view",
      "type": "function"
    },
    {
      "inputs": [
        {
          "internalType": "address",
          "name": "collector",
          "type": "address"
        },
        {
          "internalType": "string",
          "name": "_tokenURI",
          "type": "string"
        },
        {
          "internalType": "string",
          "name": "name",
          "type": "string"
        }
      ],
      "name": "mintNFT",
      "outputs": [
        {
          "internalType": "uint256",
          "name": "",
          "type": "uint256"
        }
      ],
      "stateMutability": "nonpayable",
      "type": "function"
    },
    {
      "inputs": [
        {
          "internalType": "address",
          "name": "collector",
          "type": "address"
        },
        {
          "internalType": "string[]",
          "name": "names",
          "type": "string[]"
        },
        {
          "internalType": "string",
          "name": "baseTokenURI",
          "type": "string"
        }
      ],
      "name": "mintNFTs",
      "outputs": [],
      "stateMutability": "nonpayable",
      "type": "function"
    },
    {
      "inputs": [],
      "name": "name",
      "outputs": [
        {
          "internalType": "string",
          "name": "",
          "type": "string"
        }
      ],
      "stateMutability": "view",
      "type": "function"
    },
    {
      "inputs": [],
      "name": "owner",
      "outputs": [
        {
          "internalType": "address",
          "name": "",
          "type": "address"
        }
      ],
      "stateMutability": "view",
      "type": "function"
    },
    {
      "inputs": [
        {
          "internalType": "uint256",
          "name": "tokenId",
          "type": "uint256"
        }
      ],
      "name": "ownerOf",
      "outputs": [
        {
          "internalType": "address",
          "name": "",
          "type": "address"
        }
      ],
      "stateMutability": "view",
      "type": "function"
    },
    {
      "inputs": [],
      "name": "renounceOwnership",
      "outputs": [],
      "stateMutability": "nonpayable",
      "type": "function"
    },
    {
      "inputs": [
        {
          "internalType": "address",
          "name": "from",
          "type": "address"
        },
        {
          "internalType": "address",
          "name": "to",
          "type": "address"
        },
        {
          "internalType": "uint256",
          "name": "tokenId",
          "type": "uint256"
        }
      ],
      "name": "safeTransferFrom",
      "outputs": [],
      "stateMutability": "nonpayable",
      "type": "function"
    },
    {
      "inputs": [
        {
          "internalType": "address",
          "name": "from",
          "type": "address"
        },
        {
          "internalType": "address",
          "name": "to",
          "type": "address"
        },
        {
          "internalType": "uint256",
          "name": "tokenId",
          "type": "uint256"
        },
        {
          "internalType": "bytes",
          "name": "data",
          "type": "bytes"
        }
      ],
      "name": "safeTransferFrom",
      "outputs": [],
      "stateMutability": "nonpayable",
      "type": "function"
    },
    {
      "inputs": [
        {
          "internalType": "address",
          "name": "operator",
          "type": "address"
        },
        {
          "internalType": "bool",
          "name": "approved",
          "type": "bool"
        }
      ],
      "name": "setApprovalForAll",
      "outputs": [],
      "stateMutability": "nonpayable",
      "type": "function"
    },
    {
      "inputs": [
        {
          "internalType": "address",
          "name": "_authority",
          "type": "address"
        }
      ],
      "name": "setAuthority",
      "outputs": [],
      "stateMutability": "nonpayable",
      "type": "function"
    },
    {
      "inputs": [
        {
          "internalType": "bytes4",
          "name": "interfaceId",
          "type": "bytes4"
        }
      ],
      "name": "supportsInterface",
      "outputs": [
        {
          "internalType": "bool",
          "name": "",
          "type": "bool"
        }
      ],
      "stateMutability": "view",
      "type": "function"
    },
    {
      "inputs": [],
      "name": "symbol",
      "outputs": [
        {
          "internalType": "string",
          "name": "",
          "type": "string"
        }
      ],
      "stateMutability": "view",
      "type": "function"
    },
    {
      "inputs": [
        {
          "internalType": "uint256",
          "name": "index",
          "type": "uint256"
        }
      ],
      "name": "tokenByIndex",
      "outputs": [
        {
          "internalType": "uint256",
          "name": "",
          "type": "uint256"
        }
      ],
      "stateMutability": "view",
      "type": "function"
    },
    {
      "inputs": [
        {
          "internalType": "address",
          "name": "owner",
          "type": "address"
        },
        {
          "internalType": "uint256",
          "name": "index",
          "type": "uint256"
        }
      ],
      "name": "tokenOfOwnerByIndex",
      "outputs": [
        {
          "internalType": "uint256",
          "name": "",
          "type": "uint256"
        }
      ],
      "stateMutability": "view",
      "type": "function"
    },
    {
      "inputs": [
        {
          "internalType": "uint256",
          "name": "tokenId",
          "type": "uint256"
        }
      ],
      "name": "tokenURI",
      "outputs": [
        {
          "internalType": "string",
          "name": "",
          "type": "string"
        }
      ],
      "stateMutability": "view",
      "type": "function"
    },
    {
      "inputs": [],
      "name": "totalSupply",
      "outputs": [
        {
          "internalType": "uint256",
          "name": "",
          "type": "uint256"
        }
      ],
      "stateMutability": "view",
      "type": "function"
    },
    {
      "inputs": [
        {
          "internalType": "address",
          "name": "from",
          "type": "address"
        },
        {
          "internalType": "address",
          "name": "to",
          "type": "address"
        },
        {
          "internalType": "uint256",
          "name": "tokenId",
          "type": "uint256"
        }
      ],
      "name": "transferFrom",
      "outputs": [],
      "stateMutability": "nonpayable",
      "type": "function"
    },
    {
      "inputs": [
        {
          "internalType": "address",
          "name": "newOwner",
          "type": "address"
        }
      ],
      "name": "transferOwnership",
      "outputs": [],
      "stateMutability": "nonpayable",
      "type": "function"
    }
  ],
  "bytecode": "0x60806040523480156200001157600080fd5b506040518060400160405280600a81526020017f4e4654506c6179657273000000000000000000000000000000000000000000008152506040518060400160405280600681526020017f4e4f4e46554e000000000000000000000000000000000000000000000000000081525081600090816200008f919062000412565b508060019081620000a1919062000412565b505050620000c4620000b8620000ca60201b60201c565b620000d260201b60201c565b620004f9565b600033905090565b6000600a60009054906101000a900473ffffffffffffffffffffffffffffffffffffffff16905081600a60006101000a81548173ffffffffffffffffffffffffffffffffffffffff021916908373ffffffffffffffffffffffffffffffffffffffff1602179055508173ffffffffffffffffffffffffffffffffffffffff168173ffffffffffffffffffffffffffffffffffffffff167f8be0079c531659141344cd1fd0a4f28419497f9722a3daafe3b4186f6b6457e060405160405180910390a35050565b600081519050919050565b7f4e487b7100000000000000000000000000000000000000000000000000000000600052604160045260246000fd5b7f4e487b7100000000000000000000000000000000000000000000000000000000600052602260045260246000fd5b600060028204905060018216806200021a57607f821691505b60208210810362000230576200022f620001d2565b5b50919050565b60008190508160005260206000209050919050565b60006020601f8301049050919050565b600082821b905092915050565b6000600883026200029a7fffffffffffffffffffffffffffffffffffffffffffffffffffffffffffffffff826200025b565b620002a686836200025b565b95508019841693508086168417925050509392505050565b6000819050919050565b6000819050919050565b6000620002f3620002ed620002e784620002be565b620002c8565b620002be565b9050919050565b6000819050919050565b6200030f83620002d2565b620003276200031e82620002fa565b84845462000268565b825550505050565b600090565b6200033e6200032f565b6200034b81848462000304565b505050565b5b8181101562000373576200036760008262000334565b60018101905062000351565b5050565b601f821115620003c2576200038c8162000236565b62000397846200024b565b81016020851015620003a7578190505b620003bf620003b6856200024b565b83018262000350565b50505b505050565b600082821c905092915050565b6000620003e760001984600802620003c7565b1980831691505092915050565b6000620004028383620003d4565b9150826002028217905092915050565b6200041d8262000198565b67ffffffffffffffff811115620004395762000438620001a3565b5b62000445825462000201565b6200045282828562000377565b600060209050601f8311600181146200048a576000841562000475578287015190505b620004818582620003f4565b865550620004f1565b601f1984166200049a8662000236565b60005b82811015620004c4578489015182556001820191506020850194506020810190506200049d565b86831015620004e45784890151620004e0601f891682620003d4565b8355505b6001600288020188555050505b505050505050565b61444680620005096000396000f3fe608060405234801561001057600080fd5b50600436106101e55760003560e01c80637a9e5e4b1161010f578063b37217a4116100a2578063dce3dc1f11610071578063dce3dc1f146105da578063e2b178a01461060a578063e985e9c514610628578063f2fde38b14610658576101e5565b8063b37217a414610542578063b88d4fde14610572578063c87b56dd1461058e578063dc0ab925146105be576101e5565b806395d89b41116100de57806395d89b41146104bc578063a13e57e9146104da578063a22cb465146104f6578063a3ee38ae14610512576101e5565b80637a9e5e4b1461043457806383c4c00d1461045057806386481d401461046e5780638da5cb5b1461049e576101e5565b80632f745c59116101875780636352211e116101565780636352211e1461039a5780636b8ff574146103ca57806370a08231146103fa578063715018a61461042a576101e5565b80632f745c59146102ee57806342842e0e1461031e5780634f6ccce71461033a57806360eb73e71461036a576101e5565b8063095ea7b3116101c3578063095ea7b314610268578063178b6de61461028457806318160ddd146102b457806323b872dd146102d2576101e5565b806301ffc9a7146101ea57806306fdde031461021a578063081812fc14610238575b600080fd5b61020460048036038101906101ff91906129fa565b610674565b6040516102119190612a42565b60405180910390f35b610222610686565b60405161022f9190612aed565b60405180910390f35b610252600480360381019061024d9190612b45565b610718565b60405161025f9190612bb3565b60405180910390f35b610282600480360381019061027d9190612bfa565b61075e565b005b61029e60048036038101906102999190612c3a565b610875565b6040516102ab9190612d25565b60405180910390f35b6102bc610923565b6040516102c99190612d56565b60405180910390f35b6102ec60048036038101906102e79190612d71565b610930565b005b61030860048036038101906103039190612bfa565b610990565b6040516103159190612d56565b60405180910390f35b61033860048036038101906103339190612d71565b610a35565b005b610354600480360381019061034f9190612b45565b610a55565b6040516103619190612d56565b60405180910390f35b610384600480360381019061037f9190612b45565b610ac6565b6040516103919190612d56565b60405180910390f35b6103b460048036038101906103af9190612b45565b610ae3565b6040516103c19190612bb3565b60405180910390f35b6103e460048036038101906103df9190612b45565b610b69565b6040516103f19190612aed565b60405180910390f35b610414600480360381019061040f9190612c3a565b610c0e565b6040516104219190612d56565b60405180910390f35b610432610cc5565b005b61044e60048036038101906104499190612c3a565b610cd9565b005b610458610d25565b6040516104659190612d56565b60405180910390f35b61048860048036038101906104839190612b45565b610d2f565b6040516104959190612de3565b60405180910390f35b6104a6610d59565b6040516104b39190612bb3565b60405180910390f35b6104c4610d83565b6040516104d19190612aed565b60405180910390f35b6104f460048036038101906104ef9190613019565b610e15565b005b610510600480360381019061050b91906130d0565b610ff3565b005b61052c60048036038101906105279190613110565b611009565b6040516105399190612d56565b60405180910390f35b61055c60048036038101906105579190612b45565b6111c4565b60405161056991906131b7565b60405180910390f35b61058c60048036038101906105879190613273565b611218565b005b6105a860048036038101906105a39190612b45565b61127a565b6040516105b59190612aed565b60405180910390f35b6105d860048036038101906105d391906132f6565b6112c8565b005b6105f460048036038101906105ef9190612b45565b6112f6565b6040516106019190612de3565b60405180910390f35b610612611380565b60405161061f9190612bb3565b60405180910390f35b610642600480360381019061063d9190613336565b6113aa565b60405161064f9190612a42565b60405180910390f35b610672600480360381019061066d9190612c3a565b61143e565b005b600061067f826114c1565b9050919050565b606060008054610695906133a5565b80601f01602080910402602001604051908101604052809291908181526020018280546106c1906133a5565b801561070e5780601f106106e35761010080835404028352916020019161070e565b820191906000526020600020905b8154815290600101906020018083116106f157829003601f168201915b5050505050905090565b60006107238261153b565b6004600083815260200190815260200160002060009054906101000a900473ffffffffffffffffffffffffffffffffffffffff169050919050565b600061076982610ae3565b90508073ffffffffffffffffffffffffffffffffffffffff168373ffffffffffffffffffffffffffffffffffffffff16036107d9576040517f08c379a00000000000000000000000000000000000000000000000000000000081526004016107d090613448565b60405180910390fd5b8073ffffffffffffffffffffffffffffffffffffffff166107f8611586565b73ffffffffffffffffffffffffffffffffffffffff161480610827575061082681610821611586565b6113aa565b5b610866576040517f08c379a000000000000000000000000000000000000000000000000000000000815260040161085d906134da565b60405180910390fd5b610870838361158e565b505050565b6060600061088283610c0e565b905060008167ffffffffffffffff8111156108a05761089f612e03565b5b6040519080825280602002602001820160405280156108ce5781602001602082028036833780820191505090505b50905060005b82811015610918576108e68582610990565b8282815181106108f9576108f86134fa565b5b602002602001018181525050808061091090613558565b9150506108d4565b508092505050919050565b6000600880549050905090565b61094161093b611586565b82611647565b610980576040517f08c379a000000000000000000000000000000000000000000000000000000000815260040161097790613612565b60405180910390fd5b61098b8383836116dc565b505050565b600061099b83610c0e565b82106109dc576040517f08c379a00000000000000000000000000000000000000000000000000000000081526004016109d3906136a4565b60405180910390fd5b600660008473ffffffffffffffffffffffffffffffffffffffff1673ffffffffffffffffffffffffffffffffffffffff168152602001908152602001600020600083815260200190815260200160002054905092915050565b610a5083838360405180602001604052806000815250611218565b505050565b6000610a5f610923565b8210610aa0576040517f08c379a0000000000000000000000000000000000000000000000000000000008152600401610a9790613736565b60405180910390fd5b60088281548110610ab457610ab36134fa565b5b90600052602060002001549050919050565b6000600d6000838152602001908152602001600020549050919050565b600080610aef836119d5565b9050600073ffffffffffffffffffffffffffffffffffffffff168173ffffffffffffffffffffffffffffffffffffffff1603610b60576040517f08c379a0000000000000000000000000000000000000000000000000000000008152600401610b57906137a2565b60405180910390fd5b80915050919050565b6060600e60008381526020019081526020016000208054610b89906133a5565b80601f0160208091040260200160405190810160405280929190818152602001828054610bb5906133a5565b8015610c025780601f10610bd757610100808354040283529160200191610c02565b820191906000526020600020905b815481529060010190602001808311610be557829003601f168201915b50505050509050919050565b60008073ffffffffffffffffffffffffffffffffffffffff168273ffffffffffffffffffffffffffffffffffffffff1603610c7e576040517f08c379a0000000000000000000000000000000000000000000000000000000008152600401610c7590613834565b60405180910390fd5b600360008373ffffffffffffffffffffffffffffffffffffffff1673ffffffffffffffffffffffffffffffffffffffff168152602001908152602001600020549050919050565b610ccd611a12565b610cd76000611a90565b565b610ce1611a12565b80600b60006101000a81548173ffffffffffffffffffffffffffffffffffffffff021916908373ffffffffffffffffffffffffffffffffffffffff16021790555050565b6000600f54905090565b600080600d6000848152602001908152602001600020549050610d51816112f6565b915050919050565b6000600a60009054906101000a900473ffffffffffffffffffffffffffffffffffffffff16905090565b606060018054610d92906133a5565b80601f0160208091040260200160405190810160405280929190818152602001828054610dbe906133a5565b8015610e0b5780601f10610de057610100808354040283529160200191610e0b565b820191906000526020600020905b815481529060010190602001808311610dee57829003601f168201915b5050505050905090565b600080600090505b8351811015610fec57610e2e610923565b9150610e3a8583611b56565b82600c60008481526020019081526020016000209081610e5a9190613a00565b5060003073ffffffffffffffffffffffffffffffffffffffff1663b37217a4846040518263ffffffff1660e01b8152600401610e969190612d56565b602060405180830381865afa158015610eb3573d6000803e3d6000fd5b505050506040513d601f19601f82011682018060405250810190610ed79190613afe565b905060018160ff1603610f02576001600d600085815260200190815260200160002081905550610f9d565b60028160ff1603610f2b576064600d600085815260200190815260200160002081905550610f9c565b60038160ff1603610f555761012c600d600085815260200190815260200160002081905550610f9b565b60048160ff1603610f7f57610258600d600085815260200190815260200160002081905550610f9a565b6103e8600d6000858152602001908152602001600020819055505b5b5b5b848281518110610fb057610faf6134fa565b5b6020026020010151600e60008581526020019081526020016000209081610fd79190613a00565b50508080610fe490613558565b915050610e1d565b5050505050565b611005610ffe611586565b8383611b74565b5050565b6000600f600081548092919061101e90613558565b91905055506000600f5490506110348582611b56565b83600c600083815260200190815260200160002090816110549190613a00565b5060003073ffffffffffffffffffffffffffffffffffffffff1663b37217a4836040518263ffffffff1660e01b81526004016110909190612d56565b602060405180830381865afa1580156110ad573d6000803e3d6000fd5b505050506040513d601f19601f820116820180604052508101906110d19190613afe565b905060018160ff16036110fc576001600d600084815260200190815260200160002081905550611197565b60028160ff1603611125576064600d600084815260200190815260200160002081905550611196565b60038160ff160361114f5761012c600d600084815260200190815260200160002081905550611195565b60048160ff160361117957610258600d600084815260200190815260200160002081905550611194565b6103e8600d6000848152602001908152602001600020819055505b5b5b5b83600e600084815260200190815260200160002090816111b79190613a00565b5081925050509392505050565b6000808243336040516020016111dc93929190613b94565b6040516020818303038152906040528051906020012060001c905060016005826112069190613c00565b6112109190613c31565b915050919050565b611229611223611586565b83611647565b611268576040517f08c379a000000000000000000000000000000000000000000000000000000000815260040161125f90613612565b60405180910390fd5b61127484848484611ce0565b50505050565b60606112858261153b565b600c60008381526020019081526020016000206112a183611d3c565b6040516020016112b2929190613d70565b6040516020818303038152906040529050919050565b80600d600084815260200190815260200160002060008282546112eb9190613c31565b925050819055505050565b6000806001905060005b80841061136957806064836113159190613d9f565b63ffffffff16826113269190613c31565b101561133657819250505061137b565b818061134190613ddc565b9250506064826113519190613d9f565b63ffffffff16816113629190613c31565b9050611300565b6001826113769190613e08565b925050505b919050565b6000600b60009054906101000a900473ffffffffffffffffffffffffffffffffffffffff16905090565b6000600560008473ffffffffffffffffffffffffffffffffffffffff1673ffffffffffffffffffffffffffffffffffffffff16815260200190815260200160002060008373ffffffffffffffffffffffffffffffffffffffff1673ffffffffffffffffffffffffffffffffffffffff16815260200190815260200160002060009054906101000a900460ff16905092915050565b611446611a12565b600073ffffffffffffffffffffffffffffffffffffffff168173ffffffffffffffffffffffffffffffffffffffff16036114b5576040517f08c379a00000000000000000000000000000000000000000000000000000000081526004016114ac90613eb2565b60405180910390fd5b6114be81611a90565b50565b60007f780e9d63000000000000000000000000000000000000000000000000000000007bffffffffffffffffffffffffffffffffffffffffffffffffffffffff1916827bffffffffffffffffffffffffffffffffffffffffffffffffffffffff19161480611534575061153382611e0a565b5b9050919050565b61154481611eec565b611583576040517f08c379a000000000000000000000000000000000000000000000000000000000815260040161157a906137a2565b60405180910390fd5b50565b600033905090565b816004600083815260200190815260200160002060006101000a81548173ffffffffffffffffffffffffffffffffffffffff021916908373ffffffffffffffffffffffffffffffffffffffff160217905550808273ffffffffffffffffffffffffffffffffffffffff1661160183610ae3565b73ffffffffffffffffffffffffffffffffffffffff167f8c5be1e5ebec7d5bd14f71427d1e84f3dd0314c0f7b2291e5b200ac8c7c3b92560405160405180910390a45050565b60008061165383610ae3565b90508073ffffffffffffffffffffffffffffffffffffffff168473ffffffffffffffffffffffffffffffffffffffff161480611695575061169481856113aa565b5b806116d357508373ffffffffffffffffffffffffffffffffffffffff166116bb84610718565b73ffffffffffffffffffffffffffffffffffffffff16145b91505092915050565b8273ffffffffffffffffffffffffffffffffffffffff166116fc82610ae3565b73ffffffffffffffffffffffffffffffffffffffff1614611752576040517f08c379a000000000000000000000000000000000000000000000000000000000815260040161174990613f44565b60405180910390fd5b600073ffffffffffffffffffffffffffffffffffffffff168273ffffffffffffffffffffffffffffffffffffffff16036117c1576040517f08c379a00000000000000000000000000000000000000000000000000000000081526004016117b890613fd6565b60405180910390fd5b6117ce8383836001611f2d565b8273ffffffffffffffffffffffffffffffffffffffff166117ee82610ae3565b73ffffffffffffffffffffffffffffffffffffffff1614611844576040517f08c379a000000000000000000000000000000000000000000000000000000000815260040161183b90613f44565b60405180910390fd5b6004600082815260200190815260200160002060006101000a81549073ffffffffffffffffffffffffffffffffffffffff02191690556001600360008573ffffffffffffffffffffffffffffffffffffffff1673ffffffffffffffffffffffffffffffffffffffff168152602001908152602001600020600082825403925050819055506001600360008473ffffffffffffffffffffffffffffffffffffffff1673ffffffffffffffffffffffffffffffffffffffff16815260200190815260200160002060008282540192505081905550816002600083815260200190815260200160002060006101000a81548173ffffffffffffffffffffffffffffffffffffffff021916908373ffffffffffffffffffffffffffffffffffffffff160217905550808273ffffffffffffffffffffffffffffffffffffffff168473ffffffffffffffffffffffffffffffffffffffff167fddf252ad1be2c89b69c2b068fc378daa952ba7f163c4a11628f55a4df523b3ef60405160405180910390a46119d08383836001611f3f565b505050565b60006002600083815260200190815260200160002060009054906101000a900473ffffffffffffffffffffffffffffffffffffffff169050919050565b611a1a611586565b73ffffffffffffffffffffffffffffffffffffffff16611a38610d59565b73ffffffffffffffffffffffffffffffffffffffff1614611a8e576040517f08c379a0000000000000000000000000000000000000000000000000000000008152600401611a8590614042565b60405180910390fd5b565b6000600a60009054906101000a900473ffffffffffffffffffffffffffffffffffffffff16905081600a60006101000a81548173ffffffffffffffffffffffffffffffffffffffff021916908373ffffffffffffffffffffffffffffffffffffffff1602179055508173ffffffffffffffffffffffffffffffffffffffff168173ffffffffffffffffffffffffffffffffffffffff167f8be0079c531659141344cd1fd0a4f28419497f9722a3daafe3b4186f6b6457e060405160405180910390a35050565b611b70828260405180602001604052806000815250611f45565b5050565b8173ffffffffffffffffffffffffffffffffffffffff168373ffffffffffffffffffffffffffffffffffffffff1603611be2576040517f08c379a0000000000000000000000000000000000000000000000000000000008152600401611bd9906140ae565b60405180910390fd5b80600560008573ffffffffffffffffffffffffffffffffffffffff1673ffffffffffffffffffffffffffffffffffffffff16815260200190815260200160002060008473ffffffffffffffffffffffffffffffffffffffff1673ffffffffffffffffffffffffffffffffffffffff16815260200190815260200160002060006101000a81548160ff0219169083151502179055508173ffffffffffffffffffffffffffffffffffffffff168373ffffffffffffffffffffffffffffffffffffffff167f17307eab39ab6107e8899845ad3d59bd9653f200f220920489ca2b5937696c3183604051611cd39190612a42565b60405180910390a3505050565b611ceb8484846116dc565b611cf784848484611fa0565b611d36576040517f08c379a0000000000000000000000000000000000000000000000000000000008152600401611d2d90614140565b60405180910390fd5b50505050565b606060006001611d4b84612127565b01905060008167ffffffffffffffff811115611d6a57611d69612e03565b5b6040519080825280601f01601f191660200182016040528015611d9c5781602001600182028036833780820191505090505b509050600082602001820190505b600115611dff578080600190039150507f3031323334353637383961626364656600000000000000000000000000000000600a86061a8153600a8581611df357611df2613bd1565b5b04945060008503611daa575b819350505050919050565b60007f80ac58cd000000000000000000000000000000000000000000000000000000007bffffffffffffffffffffffffffffffffffffffffffffffffffffffff1916827bffffffffffffffffffffffffffffffffffffffffffffffffffffffff19161480611ed557507f5b5e139f000000000000000000000000000000000000000000000000000000007bffffffffffffffffffffffffffffffffffffffffffffffffffffffff1916827bffffffffffffffffffffffffffffffffffffffffffffffffffffffff1916145b80611ee55750611ee48261227a565b5b9050919050565b60008073ffffffffffffffffffffffffffffffffffffffff16611f0e836119d5565b73ffffffffffffffffffffffffffffffffffffffff1614159050919050565b611f39848484846122e4565b50505050565b50505050565b611f4f8383612442565b611f5c6000848484611fa0565b611f9b576040517f08c379a0000000000000000000000000000000000000000000000000000000008152600401611f9290614140565b60405180910390fd5b505050565b6000611fc18473ffffffffffffffffffffffffffffffffffffffff1661265f565b1561211a578373ffffffffffffffffffffffffffffffffffffffff1663150b7a02611fea611586565b8786866040518563ffffffff1660e01b815260040161200c94939291906141b5565b6020604051808303816000875af192505050801561204857506040513d601f19601f820116820180604052508101906120459190614216565b60015b6120ca573d8060008114612078576040519150601f19603f3d011682016040523d82523d6000602084013e61207d565b606091505b5060008151036120c2576040517f08c379a00000000000000000000000000000000000000000000000000000000081526004016120b990614140565b60405180910390fd5b805181602001fd5b63150b7a0260e01b7bffffffffffffffffffffffffffffffffffffffffffffffffffffffff1916817bffffffffffffffffffffffffffffffffffffffffffffffffffffffff19161491505061211f565b600190505b949350505050565b600080600090507a184f03e93ff9f4daa797ed6e38ed64bf6a1f0100000000000000008310612185577a184f03e93ff9f4daa797ed6e38ed64bf6a1f010000000000000000838161217b5761217a613bd1565b5b0492506040810190505b6d04ee2d6d415b85acef810000000083106121c2576d04ee2d6d415b85acef810000000083816121b8576121b7613bd1565b5b0492506020810190505b662386f26fc1000083106121f157662386f26fc1000083816121e7576121e6613bd1565b5b0492506010810190505b6305f5e100831061221a576305f5e10083816122105761220f613bd1565b5b0492506008810190505b612710831061223f57612710838161223557612234613bd1565b5b0492506004810190505b60648310612262576064838161225857612257613bd1565b5b0492506002810190505b600a8310612271576001810190505b80915050919050565b60007f01ffc9a7000000000000000000000000000000000000000000000000000000007bffffffffffffffffffffffffffffffffffffffffffffffffffffffff1916827bffffffffffffffffffffffffffffffffffffffffffffffffffffffff1916149050919050565b6122f084848484612682565b6001811115612334576040517f08c379a000000000000000000000000000000000000000000000000000000000815260040161232b906142b5565b60405180910390fd5b6000829050600073ffffffffffffffffffffffffffffffffffffffff168573ffffffffffffffffffffffffffffffffffffffff160361237b5761237681612688565b6123ba565b8373ffffffffffffffffffffffffffffffffffffffff168573ffffffffffffffffffffffffffffffffffffffff16146123b9576123b885826126d1565b5b5b600073ffffffffffffffffffffffffffffffffffffffff168473ffffffffffffffffffffffffffffffffffffffff16036123fc576123f78161283e565b61243b565b8473ffffffffffffffffffffffffffffffffffffffff168473ffffffffffffffffffffffffffffffffffffffff161461243a57612439848261290f565b5b5b5050505050565b600073ffffffffffffffffffffffffffffffffffffffff168273ffffffffffffffffffffffffffffffffffffffff16036124b1576040517f08c379a00000000000000000000000000000000000000000000000000000000081526004016124a890614321565b60405180910390fd5b6124ba81611eec565b156124fa576040517f08c379a00000000000000000000000000000000000000000000000000000000081526004016124f19061438d565b60405180910390fd5b612508600083836001611f2d565b61251181611eec565b15612551576040517f08c379a00000000000000000000000000000000000000000000000000000000081526004016125489061438d565b60405180910390fd5b6001600360008473ffffffffffffffffffffffffffffffffffffffff1673ffffffffffffffffffffffffffffffffffffffff16815260200190815260200160002060008282540192505081905550816002600083815260200190815260200160002060006101000a81548173ffffffffffffffffffffffffffffffffffffffff021916908373ffffffffffffffffffffffffffffffffffffffff160217905550808273ffffffffffffffffffffffffffffffffffffffff16600073ffffffffffffffffffffffffffffffffffffffff167fddf252ad1be2c89b69c2b068fc378daa952ba7f163c4a11628f55a4df523b3ef60405160405180910390a461265b600083836001611f3f565b5050565b6000808273ffffffffffffffffffffffffffffffffffffffff163b119050919050565b50505050565b6008805490506009600083815260200190815260200160002081905550600881908060018154018082558091505060019003906000526020600020016000909190919091505550565b600060016126de84610c0e565b6126e891906143ad565b90506000600760008481526020019081526020016000205490508181146127cd576000600660008673ffffffffffffffffffffffffffffffffffffffff1673ffffffffffffffffffffffffffffffffffffffff168152602001908152602001600020600084815260200190815260200160002054905080600660008773ffffffffffffffffffffffffffffffffffffffff1673ffffffffffffffffffffffffffffffffffffffff168152602001908152602001600020600084815260200190815260200160002081905550816007600083815260200190815260200160002081905550505b6007600084815260200190815260200160002060009055600660008573ffffffffffffffffffffffffffffffffffffffff1673ffffffffffffffffffffffffffffffffffffffff16815260200190815260200160002060008381526020019081526020016000206000905550505050565b6000600160088054905061285291906143ad565b9050600060096000848152602001908152602001600020549050600060088381548110612882576128816134fa565b5b9060005260206000200154905080600883815481106128a4576128a36134fa565b5b9060005260206000200181905550816009600083815260200190815260200160002081905550600960008581526020019081526020016000206000905560088054806128f3576128f26143e1565b5b6001900381819060005260206000200160009055905550505050565b600061291a83610c0e565b905081600660008573ffffffffffffffffffffffffffffffffffffffff1673ffffffffffffffffffffffffffffffffffffffff168152602001908152602001600020600083815260200190815260200160002081905550806007600084815260200190815260200160002081905550505050565b6000604051905090565b600080fd5b600080fd5b60007fffffffff0000000000000000000000000000000000000000000000000000000082169050919050565b6129d7816129a2565b81146129e257600080fd5b50565b6000813590506129f4816129ce565b92915050565b600060208284031215612a1057612a0f612998565b5b6000612a1e848285016129e5565b91505092915050565b60008115159050919050565b612a3c81612a27565b82525050565b6000602082019050612a576000830184612a33565b92915050565b600081519050919050565b600082825260208201905092915050565b60005b83811015612a97578082015181840152602081019050612a7c565b60008484015250505050565b6000601f19601f8301169050919050565b6000612abf82612a5d565b612ac98185612a68565b9350612ad9818560208601612a79565b612ae281612aa3565b840191505092915050565b60006020820190508181036000830152612b078184612ab4565b905092915050565b6000819050919050565b612b2281612b0f565b8114612b2d57600080fd5b50565b600081359050612b3f81612b19565b92915050565b600060208284031215612b5b57612b5a612998565b5b6000612b6984828501612b30565b91505092915050565b600073ffffffffffffffffffffffffffffffffffffffff82169050919050565b6000612b9d82612b72565b9050919050565b612bad81612b92565b82525050565b6000602082019050612bc86000830184612ba4565b92915050565b612bd781612b92565b8114612be257600080fd5b50565b600081359050612bf481612bce565b92915050565b60008060408385031215612c1157612c10612998565b5b6000612c1f85828601612be5565b9250506020612c3085828601612b30565b9150509250929050565b600060208284031215612c5057612c4f612998565b5b6000612c5e84828501612be5565b91505092915050565b600081519050919050565b600082825260208201905092915050565b6000819050602082019050919050565b612c9c81612b0f565b82525050565b6000612cae8383612c93565b60208301905092915050565b6000602082019050919050565b6000612cd282612c67565b612cdc8185612c72565b9350612ce783612c83565b8060005b83811015612d18578151612cff8882612ca2565b9750612d0a83612cba565b925050600181019050612ceb565b5085935050505092915050565b60006020820190508181036000830152612d3f8184612cc7565b905092915050565b612d5081612b0f565b82525050565b6000602082019050612d6b6000830184612d47565b92915050565b600080600060608486031215612d8a57612d89612998565b5b6000612d9886828701612be5565b9350506020612da986828701612be5565b9250506040612dba86828701612b30565b9150509250925092565b600063ffffffff82169050919050565b612ddd81612dc4565b82525050565b6000602082019050612df86000830184612dd4565b92915050565b600080fd5b7f4e487b7100000000000000000000000000000000000000000000000000000000600052604160045260246000fd5b612e3b82612aa3565b810181811067ffffffffffffffff82111715612e5a57612e59612e03565b5b80604052505050565b6000612e6d61298e565b9050612e798282612e32565b919050565b600067ffffffffffffffff821115612e9957612e98612e03565b5b602082029050602081019050919050565b600080fd5b600080fd5b600067ffffffffffffffff821115612ecf57612ece612e03565b5b612ed882612aa3565b9050602081019050919050565b82818337600083830152505050565b6000612f07612f0284612eb4565b612e63565b905082815260208101848484011115612f2357612f22612eaf565b5b612f2e848285612ee5565b509392505050565b600082601f830112612f4b57612f4a612dfe565b5b8135612f5b848260208601612ef4565b91505092915050565b6000612f77612f7284612e7e565b612e63565b90508083825260208201905060208402830185811115612f9a57612f99612eaa565b5b835b81811015612fe157803567ffffffffffffffff811115612fbf57612fbe612dfe565b5b808601612fcc8982612f36565b85526020850194505050602081019050612f9c565b5050509392505050565b600082601f83011261300057612fff612dfe565b5b8135613010848260208601612f64565b91505092915050565b60008060006060848603121561303257613031612998565b5b600061304086828701612be5565b935050602084013567ffffffffffffffff8111156130615761306061299d565b5b61306d86828701612feb565b925050604084013567ffffffffffffffff81111561308e5761308d61299d565b5b61309a86828701612f36565b9150509250925092565b6130ad81612a27565b81146130b857600080fd5b50565b6000813590506130ca816130a4565b92915050565b600080604083850312156130e7576130e6612998565b5b60006130f585828601612be5565b9250506020613106858286016130bb565b9150509250929050565b60008060006060848603121561312957613128612998565b5b600061313786828701612be5565b935050602084013567ffffffffffffffff8111156131585761315761299d565b5b61316486828701612f36565b925050604084013567ffffffffffffffff8111156131855761318461299d565b5b61319186828701612f36565b9150509250925092565b600060ff82169050919050565b6131b18161319b565b82525050565b60006020820190506131cc60008301846131a8565b92915050565b600067ffffffffffffffff8211156131ed576131ec612e03565b5b6131f682612aa3565b9050602081019050919050565b6000613216613211846131d2565b612e63565b90508281526020810184848401111561323257613231612eaf565b5b61323d848285612ee5565b509392505050565b600082601f83011261325a57613259612dfe565b5b813561326a848260208601613203565b91505092915050565b6000806000806080858703121561328d5761328c612998565b5b600061329b87828801612be5565b94505060206132ac87828801612be5565b93505060406132bd87828801612b30565b925050606085013567ffffffffffffffff8111156132de576132dd61299d565b5b6132ea87828801613245565b91505092959194509250565b6000806040838503121561330d5761330c612998565b5b600061331b85828601612b30565b925050602061332c85828601612b30565b9150509250929050565b6000806040838503121561334d5761334c612998565b5b600061335b85828601612be5565b925050602061336c85828601612be5565b9150509250929050565b7f4e487b7100000000000000000000000000000000000000000000000000000000600052602260045260246000fd5b600060028204905060018216806133bd57607f821691505b6020821081036133d0576133cf613376565b5b50919050565b7f4552433732313a20617070726f76616c20746f2063757272656e74206f776e6560008201527f7200000000000000000000000000000000000000000000000000000000000000602082015250565b6000613432602183612a68565b915061343d826133d6565b604082019050919050565b6000602082019050818103600083015261346181613425565b9050919050565b7f4552433732313a20617070726f76652063616c6c6572206973206e6f7420746f60008201527f6b656e206f776e6572206f7220617070726f76656420666f7220616c6c000000602082015250565b60006134c4603d83612a68565b91506134cf82613468565b604082019050919050565b600060208201905081810360008301526134f3816134b7565b9050919050565b7f4e487b7100000000000000000000000000000000000000000000000000000000600052603260045260246000fd5b7f4e487b7100000000000000000000000000000000000000000000000000000000600052601160045260246000fd5b600061356382612b0f565b91507fffffffffffffffffffffffffffffffffffffffffffffffffffffffffffffffff820361359557613594613529565b5b600182019050919050565b7f4552433732313a2063616c6c6572206973206e6f7420746f6b656e206f776e6560008201527f72206f7220617070726f76656400000000000000000000000000000000000000602082015250565b60006135fc602d83612a68565b9150613607826135a0565b604082019050919050565b6000602082019050818103600083015261362b816135ef565b9050919050565b7f455243373231456e756d657261626c653a206f776e657220696e646578206f7560008201527f74206f6620626f756e6473000000000000000000000000000000000000000000602082015250565b600061368e602b83612a68565b915061369982613632565b604082019050919050565b600060208201905081810360008301526136bd81613681565b9050919050565b7f455243373231456e756d657261626c653a20676c6f62616c20696e646578206f60008201527f7574206f6620626f756e64730000000000000000000000000000000000000000602082015250565b6000613720602c83612a68565b915061372b826136c4565b604082019050919050565b6000602082019050818103600083015261374f81613713565b9050919050565b7f4552433732313a20696e76616c696420746f6b656e2049440000000000000000600082015250565b600061378c601883612a68565b915061379782613756565b602082019050919050565b600060208201905081810360008301526137bb8161377f565b9050919050565b7f4552433732313a2061646472657373207a65726f206973206e6f74206120766160008201527f6c6964206f776e65720000000000000000000000000000000000000000000000602082015250565b600061381e602983612a68565b9150613829826137c2565b604082019050919050565b6000602082019050818103600083015261384d81613811565b9050919050565b60008190508160005260206000209050919050565b60006020601f8301049050919050565b600082821b905092915050565b6000600883026138b67fffffffffffffffffffffffffffffffffffffffffffffffffffffffffffffffff82613879565b6138c08683613879565b95508019841693508086168417925050509392505050565b6000819050919050565b60006138fd6138f86138f384612b0f565b6138d8565b612b0f565b9050919050565b6000819050919050565b613917836138e2565b61392b61392382613904565b848454613886565b825550505050565b600090565b613940613933565b61394b81848461390e565b505050565b5b8181101561396f57613964600082613938565b600181019050613951565b5050565b601f8211156139b45761398581613854565b61398e84613869565b8101602085101561399d578190505b6139b16139a985613869565b830182613950565b50505b505050565b600082821c905092915050565b60006139d7600019846008026139b9565b1980831691505092915050565b60006139f083836139c6565b9150826002028217905092915050565b613a0982612a5d565b67ffffffffffffffff811115613a2257613a21612e03565b5b613a2c82546133a5565b613a37828285613973565b600060209050601f831160018114613a6a5760008415613a58578287015190505b613a6285826139e4565b865550613aca565b601f198416613a7886613854565b60005b82811015613aa057848901518255600182019150602085019450602081019050613a7b565b86831015613abd5784890151613ab9601f8916826139c6565b8355505b6001600288020188555050505b505050505050565b613adb8161319b565b8114613ae657600080fd5b50565b600081519050613af881613ad2565b92915050565b600060208284031215613b1457613b13612998565b5b6000613b2284828501613ae9565b91505092915050565b6000819050919050565b613b46613b4182612b0f565b613b2b565b82525050565b60008160601b9050919050565b6000613b6482613b4c565b9050919050565b6000613b7682613b59565b9050919050565b613b8e613b8982612b92565b613b6b565b82525050565b6000613ba08286613b35565b602082019150613bb08285613b35565b602082019150613bc08284613b7d565b601482019150819050949350505050565b7f4e487b7100000000000000000000000000000000000000000000000000000000600052601260045260246000fd5b6000613c0b82612b0f565b9150613c1683612b0f565b925082613c2657613c25613bd1565b5b828206905092915050565b6000613c3c82612b0f565b9150613c4783612b0f565b9250828201905080821115613c5f57613c5e613529565b5b92915050565b600081905092915050565b60008154613c7d816133a5565b613c878186613c65565b94506001821660008114613ca25760018114613cb757613cea565b60ff1983168652811515820286019350613cea565b613cc085613854565b60005b83811015613ce257815481890152600182019150602081019050613cc3565b838801955050505b50505092915050565b6000613cfe82612a5d565b613d088185613c65565b9350613d18818560208601612a79565b80840191505092915050565b7f2e6a736f6e000000000000000000000000000000000000000000000000000000600082015250565b6000613d5a600583613c65565b9150613d6582613d24565b600582019050919050565b6000613d7c8285613c70565b9150613d888284613cf3565b9150613d9382613d4d565b91508190509392505050565b6000613daa82612dc4565b9150613db583612dc4565b9250828202613dc381612dc4565b9150808214613dd557613dd4613529565b5b5092915050565b6000613de782612dc4565b915063ffffffff8203613dfd57613dfc613529565b5b600182019050919050565b6000613e1382612dc4565b9150613e1e83612dc4565b9250828203905063ffffffff811115613e3a57613e39613529565b5b92915050565b7f4f776e61626c653a206e6577206f776e657220697320746865207a65726f206160008201527f6464726573730000000000000000000000000000000000000000000000000000602082015250565b6000613e9c602683612a68565b9150613ea782613e40565b604082019050919050565b60006020820190508181036000830152613ecb81613e8f565b9050919050565b7f4552433732313a207472616e736665722066726f6d20696e636f72726563742060008201527f6f776e6572000000000000000000000000000000000000000000000000000000602082015250565b6000613f2e602583612a68565b9150613f3982613ed2565b604082019050919050565b60006020820190508181036000830152613f5d81613f21565b9050919050565b7f4552433732313a207472616e7366657220746f20746865207a65726f2061646460008201527f7265737300000000000000000000000000000000000000000000000000000000602082015250565b6000613fc0602483612a68565b9150613fcb82613f64565b604082019050919050565b60006020820190508181036000830152613fef81613fb3565b9050919050565b7f4f776e61626c653a2063616c6c6572206973206e6f7420746865206f776e6572600082015250565b600061402c602083612a68565b915061403782613ff6565b602082019050919050565b6000602082019050818103600083015261405b8161401f565b9050919050565b7f4552433732313a20617070726f766520746f2063616c6c657200000000000000600082015250565b6000614098601983612a68565b91506140a382614062565b602082019050919050565b600060208201905081810360008301526140c78161408b565b9050919050565b7f4552433732313a207472616e7366657220746f206e6f6e20455243373231526560008201527f63656976657220696d706c656d656e7465720000000000000000000000000000602082015250565b600061412a603283612a68565b9150614135826140ce565b604082019050919050565b600060208201905081810360008301526141598161411d565b9050919050565b600081519050919050565b600082825260208201905092915050565b600061418782614160565b614191818561416b565b93506141a1818560208601612a79565b6141aa81612aa3565b840191505092915050565b60006080820190506141ca6000830187612ba4565b6141d76020830186612ba4565b6141e46040830185612d47565b81810360608301526141f6818461417c565b905095945050505050565b600081519050614210816129ce565b92915050565b60006020828403121561422c5761422b612998565b5b600061423a84828501614201565b91505092915050565b7f455243373231456e756d657261626c653a20636f6e736563757469766520747260008201527f616e7366657273206e6f7420737570706f727465640000000000000000000000602082015250565b600061429f603583612a68565b91506142aa82614243565b604082019050919050565b600060208201905081810360008301526142ce81614292565b9050919050565b7f4552433732313a206d696e7420746f20746865207a65726f2061646472657373600082015250565b600061430b602083612a68565b9150614316826142d5565b602082019050919050565b6000602082019050818103600083015261433a816142fe565b9050919050565b7f4552433732313a20746f6b656e20616c7265616479206d696e74656400000000600082015250565b6000614377601c83612a68565b915061438282614341565b602082019050919050565b600060208201905081810360008301526143a68161436a565b9050919050565b60006143b882612b0f565b91506143c383612b0f565b92508282039050818111156143db576143da613529565b5b92915050565b7f4e487b7100000000000000000000000000000000000000000000000000000000600052603160045260246000fdfea2646970667358221220b138e4d1d1b85f729726c94ddd48daebd68b835b5569637169864bf6cce0656e64736f6c63430008110033",
  "linkReferences": {},
  "deployedLinkReferences": {}
}