{
  "_format": "hh-sol-artifact-1",
  "contractName": "NFTPlayers",
  "sourceName": "contracts/NFTPlayers.sol",
  "abi": [
    {
      "inputs": [],
      "stateMutability": "nonpayable",
      "type": "constructor"
    },
    {
      "anonymous": false,
      "inputs": [
        {
          "indexed": true,
          "internalType": "address",
          "name": "owner",
          "type": "address"
        },
        {
          "indexed": true,
          "internalType": "address",
          "name": "approved",
          "type": "address"
        },
        {
          "indexed": true,
          "internalType": "uint256",
          "name": "tokenId",
          "type": "uint256"
        }
      ],
      "name": "Approval",
      "type": "event"
    },
    {
      "anonymous": false,
      "inputs": [
        {
          "indexed": true,
          "internalType": "address",
          "name": "owner",
          "type": "address"
        },
        {
          "indexed": true,
          "internalType": "address",
          "name": "operator",
          "type": "address"
        },
        {
          "indexed": false,
          "internalType": "bool",
          "name": "approved",
          "type": "bool"
        }
      ],
      "name": "ApprovalForAll",
      "type": "event"
    },
    {
      "anonymous": false,
      "inputs": [
        {
          "indexed": true,
          "internalType": "address",
          "name": "previousOwner",
          "type": "address"
        },
        {
          "indexed": true,
          "internalType": "address",
          "name": "newOwner",
          "type": "address"
        }
      ],
      "name": "OwnershipTransferred",
      "type": "event"
    },
    {
      "anonymous": false,
      "inputs": [
        {
          "indexed": true,
          "internalType": "address",
          "name": "from",
          "type": "address"
        },
        {
          "indexed": true,
          "internalType": "address",
          "name": "to",
          "type": "address"
        },
        {
          "indexed": true,
          "internalType": "uint256",
          "name": "tokenId",
          "type": "uint256"
        }
      ],
      "name": "Transfer",
      "type": "event"
    },
    {
      "inputs": [
        {
          "internalType": "address",
          "name": "to",
          "type": "address"
        },
        {
          "internalType": "uint256",
          "name": "tokenId",
          "type": "uint256"
        }
      ],
      "name": "approve",
      "outputs": [],
      "stateMutability": "nonpayable",
      "type": "function"
    },
    {
      "inputs": [
        {
          "internalType": "address",
          "name": "owner",
          "type": "address"
        }
      ],
      "name": "balanceOf",
      "outputs": [
        {
          "internalType": "uint256",
          "name": "",
          "type": "uint256"
        }
      ],
      "stateMutability": "view",
      "type": "function"
    },
    {
      "inputs": [
        {
          "internalType": "uint256",
          "name": "tokenId",
          "type": "uint256"
        }
      ],
      "name": "getApproved",
      "outputs": [
        {
          "internalType": "address",
          "name": "",
          "type": "address"
        }
      ],
      "stateMutability": "view",
      "type": "function"
    },
    {
      "inputs": [],
      "name": "getAuthority",
      "outputs": [
        {
          "internalType": "address",
          "name": "",
          "type": "address"
        }
      ],
      "stateMutability": "view",
      "type": "function"
    },
    {
      "inputs": [
        {
          "internalType": "uint256",
          "name": "tokenId",
          "type": "uint256"
        }
      ],
      "name": "getRandomNumber",
      "outputs": [
        {
          "internalType": "uint8",
          "name": "",
          "type": "uint8"
        }
      ],
      "stateMutability": "view",
      "type": "function"
    },
    {
      "inputs": [
        {
          "internalType": "address",
          "name": "owner",
          "type": "address"
        },
        {
          "internalType": "address",
          "name": "operator",
          "type": "address"
        }
      ],
      "name": "isApprovedForAll",
      "outputs": [
        {
          "internalType": "bool",
          "name": "",
          "type": "bool"
        }
      ],
      "stateMutability": "view",
      "type": "function"
    },
    {
      "inputs": [
        {
          "internalType": "address",
          "name": "collector",
          "type": "address"
        },
        {
          "internalType": "uint256",
          "name": "tokenId",
          "type": "uint256"
        },
        {
          "internalType": "string",
          "name": "_tokenURI",
          "type": "string"
        }
      ],
      "name": "mintNFT",
      "outputs": [],
      "stateMutability": "nonpayable",
      "type": "function"
    },
    {
      "inputs": [],
      "name": "name",
      "outputs": [
        {
          "internalType": "string",
          "name": "",
          "type": "string"
        }
      ],
      "stateMutability": "view",
      "type": "function"
    },
    {
      "inputs": [],
      "name": "owner",
      "outputs": [
        {
          "internalType": "address",
          "name": "",
          "type": "address"
        }
      ],
      "stateMutability": "view",
      "type": "function"
    },
    {
      "inputs": [
        {
          "internalType": "uint256",
          "name": "tokenId",
          "type": "uint256"
        }
      ],
      "name": "ownerOf",
      "outputs": [
        {
          "internalType": "address",
          "name": "",
          "type": "address"
        }
      ],
      "stateMutability": "view",
      "type": "function"
    },
    {
      "inputs": [],
      "name": "renounceOwnership",
      "outputs": [],
      "stateMutability": "nonpayable",
      "type": "function"
    },
    {
      "inputs": [
        {
          "internalType": "address",
          "name": "from",
          "type": "address"
        },
        {
          "internalType": "address",
          "name": "to",
          "type": "address"
        },
        {
          "internalType": "uint256",
          "name": "tokenId",
          "type": "uint256"
        }
      ],
      "name": "safeTransferFrom",
      "outputs": [],
      "stateMutability": "nonpayable",
      "type": "function"
    },
    {
      "inputs": [
        {
          "internalType": "address",
          "name": "from",
          "type": "address"
        },
        {
          "internalType": "address",
          "name": "to",
          "type": "address"
        },
        {
          "internalType": "uint256",
          "name": "tokenId",
          "type": "uint256"
        },
        {
          "internalType": "bytes",
          "name": "data",
          "type": "bytes"
        }
      ],
      "name": "safeTransferFrom",
      "outputs": [],
      "stateMutability": "nonpayable",
      "type": "function"
    },
    {
      "inputs": [
        {
          "internalType": "address",
          "name": "operator",
          "type": "address"
        },
        {
          "internalType": "bool",
          "name": "approved",
          "type": "bool"
        }
      ],
      "name": "setApprovalForAll",
      "outputs": [],
      "stateMutability": "nonpayable",
      "type": "function"
    },
    {
      "inputs": [
        {
          "internalType": "address",
          "name": "_authority",
          "type": "address"
        }
      ],
      "name": "setAuthority",
      "outputs": [],
      "stateMutability": "nonpayable",
      "type": "function"
    },
    {
      "inputs": [
        {
          "internalType": "bytes4",
          "name": "interfaceId",
          "type": "bytes4"
        }
      ],
      "name": "supportsInterface",
      "outputs": [
        {
          "internalType": "bool",
          "name": "",
          "type": "bool"
        }
      ],
      "stateMutability": "view",
      "type": "function"
    },
    {
      "inputs": [],
      "name": "symbol",
      "outputs": [
        {
          "internalType": "string",
          "name": "",
          "type": "string"
        }
      ],
      "stateMutability": "view",
      "type": "function"
    },
    {
      "inputs": [
        {
          "internalType": "uint256",
          "name": "tokenId",
          "type": "uint256"
        }
      ],
      "name": "tokenURI",
      "outputs": [
        {
          "internalType": "string",
          "name": "",
          "type": "string"
        }
      ],
      "stateMutability": "view",
      "type": "function"
    },
    {
      "inputs": [
        {
          "internalType": "address",
          "name": "from",
          "type": "address"
        },
        {
          "internalType": "address",
          "name": "to",
          "type": "address"
        },
        {
          "internalType": "uint256",
          "name": "tokenId",
          "type": "uint256"
        }
      ],
      "name": "transferFrom",
      "outputs": [],
      "stateMutability": "nonpayable",
      "type": "function"
    },
    {
      "inputs": [
        {
          "internalType": "address",
          "name": "newOwner",
          "type": "address"
        }
      ],
      "name": "transferOwnership",
      "outputs": [],
      "stateMutability": "nonpayable",
      "type": "function"
    }
  ],
  "bytecode": "0x60806040523480156200001157600080fd5b506040518060400160405280600a81526020017f4e4654506c6179657273000000000000000000000000000000000000000000008152506040518060400160405280600681526020017f4e4f4e46554e000000000000000000000000000000000000000000000000000081525081600090816200008f919062000412565b508060019081620000a1919062000412565b505050620000c4620000b8620000ca60201b60201c565b620000d260201b60201c565b620004f9565b600033905090565b6000600660009054906101000a900473ffffffffffffffffffffffffffffffffffffffff16905081600660006101000a81548173ffffffffffffffffffffffffffffffffffffffff021916908373ffffffffffffffffffffffffffffffffffffffff1602179055508173ffffffffffffffffffffffffffffffffffffffff168173ffffffffffffffffffffffffffffffffffffffff167f8be0079c531659141344cd1fd0a4f28419497f9722a3daafe3b4186f6b6457e060405160405180910390a35050565b600081519050919050565b7f4e487b7100000000000000000000000000000000000000000000000000000000600052604160045260246000fd5b7f4e487b7100000000000000000000000000000000000000000000000000000000600052602260045260246000fd5b600060028204905060018216806200021a57607f821691505b60208210810362000230576200022f620001d2565b5b50919050565b60008190508160005260206000209050919050565b60006020601f8301049050919050565b600082821b905092915050565b6000600883026200029a7fffffffffffffffffffffffffffffffffffffffffffffffffffffffffffffffff826200025b565b620002a686836200025b565b95508019841693508086168417925050509392505050565b6000819050919050565b6000819050919050565b6000620002f3620002ed620002e784620002be565b620002c8565b620002be565b9050919050565b6000819050919050565b6200030f83620002d2565b620003276200031e82620002fa565b84845462000268565b825550505050565b600090565b6200033e6200032f565b6200034b81848462000304565b505050565b5b8181101562000373576200036760008262000334565b60018101905062000351565b5050565b601f821115620003c2576200038c8162000236565b62000397846200024b565b81016020851015620003a7578190505b620003bf620003b6856200024b565b83018262000350565b50505b505050565b600082821c905092915050565b6000620003e760001984600802620003c7565b1980831691505092915050565b6000620004028383620003d4565b9150826002028217905092915050565b6200041d8262000198565b67ffffffffffffffff811115620004395762000438620001a3565b5b62000445825462000201565b6200045282828562000377565b600060209050601f8311600181146200048a576000841562000475578287015190505b620004818582620003f4565b865550620004f1565b601f1984166200049a8662000236565b60005b82811015620004c4578489015182556001820191506020850194506020810190506200049d565b86831015620004e45784890151620004e0601f891682620003d4565b8355505b6001600288020188555050505b505050505050565b61319180620005096000396000f3fe608060405234801561001057600080fd5b506004361061012c5760003560e01c80637a9e5e4b116100ad578063b88d4fde11610071578063b88d4fde1461032d578063c87b56dd14610349578063e2b178a014610379578063e985e9c514610397578063f2fde38b146103c75761012c565b80637a9e5e4b146102895780638da5cb5b146102a557806395d89b41146102c3578063a22cb465146102e1578063b37217a4146102fd5761012c565b806323b872dd116100f457806323b872dd146101e757806342842e0e146102035780636352211e1461021f57806370a082311461024f578063715018a61461027f5761012c565b806301ffc9a71461013157806306fdde0314610161578063081812fc1461017f578063095ea7b3146101af5780631e576912146101cb575b600080fd5b61014b60048036038101906101469190611cf1565b6103e3565b6040516101589190611d39565b60405180910390f35b6101696104c5565b6040516101769190611de4565b60405180910390f35b61019960048036038101906101949190611e3c565b610557565b6040516101a69190611eaa565b60405180910390f35b6101c960048036038101906101c49190611ef1565b61059d565b005b6101e560048036038101906101e09190612066565b6106b4565b005b61020160048036038101906101fc91906120d5565b610856565b005b61021d600480360381019061021891906120d5565b6108b6565b005b61023960048036038101906102349190611e3c565b6108d6565b6040516102469190611eaa565b60405180910390f35b61026960048036038101906102649190612128565b61095c565b6040516102769190612164565b60405180910390f35b610287610a13565b005b6102a3600480360381019061029e9190612128565b610a27565b005b6102ad610a73565b6040516102ba9190611eaa565b60405180910390f35b6102cb610a9d565b6040516102d89190611de4565b60405180910390f35b6102fb60048036038101906102f691906121ab565b610b2f565b005b61031760048036038101906103129190611e3c565b610b45565b6040516103249190612207565b60405180910390f35b610347600480360381019061034291906122c3565b610b99565b005b610363600480360381019061035e9190611e3c565b610bfb565b6040516103709190611de4565b60405180910390f35b610381610c49565b60405161038e9190611eaa565b60405180910390f35b6103b160048036038101906103ac9190612346565b610c73565b6040516103be9190611d39565b60405180910390f35b6103e160048036038101906103dc9190612128565b610d07565b005b60007f80ac58cd000000000000000000000000000000000000000000000000000000007bffffffffffffffffffffffffffffffffffffffffffffffffffffffff1916827bffffffffffffffffffffffffffffffffffffffffffffffffffffffff191614806104ae57507f5b5e139f000000000000000000000000000000000000000000000000000000007bffffffffffffffffffffffffffffffffffffffffffffffffffffffff1916827bffffffffffffffffffffffffffffffffffffffffffffffffffffffff1916145b806104be57506104bd82610d8a565b5b9050919050565b6060600080546104d4906123b5565b80601f0160208091040260200160405190810160405280929190818152602001828054610500906123b5565b801561054d5780601f106105225761010080835404028352916020019161054d565b820191906000526020600020905b81548152906001019060200180831161053057829003601f168201915b5050505050905090565b600061056282610df4565b6004600083815260200190815260200160002060009054906101000a900473ffffffffffffffffffffffffffffffffffffffff169050919050565b60006105a8826108d6565b90508073ffffffffffffffffffffffffffffffffffffffff168373ffffffffffffffffffffffffffffffffffffffff1603610618576040517f08c379a000000000000000000000000000000000000000000000000000000000815260040161060f90612458565b60405180910390fd5b8073ffffffffffffffffffffffffffffffffffffffff16610637610e3f565b73ffffffffffffffffffffffffffffffffffffffff161480610666575061066581610660610e3f565b610c73565b5b6106a5576040517f08c379a000000000000000000000000000000000000000000000000000000000815260040161069c906124ea565b60405180910390fd5b6106af8383610e47565b505050565b3373ffffffffffffffffffffffffffffffffffffffff16600760009054906101000a900473ffffffffffffffffffffffffffffffffffffffff1673ffffffffffffffffffffffffffffffffffffffff16148061074257503373ffffffffffffffffffffffffffffffffffffffff1661072a610a73565b73ffffffffffffffffffffffffffffffffffffffff16145b610781576040517f08c379a000000000000000000000000000000000000000000000000000000000815260040161077890612556565b60405180910390fd5b61078b8383610f00565b806008600084815260200190815260200160002090816107ab9190612722565b503073ffffffffffffffffffffffffffffffffffffffff1663b37217a4836040518263ffffffff1660e01b81526004016107e59190612164565b602060405180830381865afa158015610802573d6000803e3d6000fd5b505050506040513d601f19601f820116820180604052508101906108269190612820565b6009600084815260200190815260200160002060006101000a81548160ff021916908360ff160217905550505050565b610867610861610e3f565b82610f1e565b6108a6576040517f08c379a000000000000000000000000000000000000000000000000000000000815260040161089d906128bf565b60405180910390fd5b6108b1838383610fb3565b505050565b6108d183838360405180602001604052806000815250610b99565b505050565b6000806108e2836112ac565b9050600073ffffffffffffffffffffffffffffffffffffffff168173ffffffffffffffffffffffffffffffffffffffff1603610953576040517f08c379a000000000000000000000000000000000000000000000000000000000815260040161094a9061292b565b60405180910390fd5b80915050919050565b60008073ffffffffffffffffffffffffffffffffffffffff168273ffffffffffffffffffffffffffffffffffffffff16036109cc576040517f08c379a00000000000000000000000000000000000000000000000000000000081526004016109c3906129bd565b60405180910390fd5b600360008373ffffffffffffffffffffffffffffffffffffffff1673ffffffffffffffffffffffffffffffffffffffff168152602001908152602001600020549050919050565b610a1b6112e9565b610a256000611367565b565b610a2f6112e9565b80600760006101000a81548173ffffffffffffffffffffffffffffffffffffffff021916908373ffffffffffffffffffffffffffffffffffffffff16021790555050565b6000600660009054906101000a900473ffffffffffffffffffffffffffffffffffffffff16905090565b606060018054610aac906123b5565b80601f0160208091040260200160405190810160405280929190818152602001828054610ad8906123b5565b8015610b255780601f10610afa57610100808354040283529160200191610b25565b820191906000526020600020905b815481529060010190602001808311610b0857829003601f168201915b5050505050905090565b610b41610b3a610e3f565b838361142d565b5050565b600080824333604051602001610b5d93929190612a46565b6040516020818303038152906040528051906020012060001c90506001600582610b879190612ab2565b610b919190612b12565b915050919050565b610baa610ba4610e3f565b83610f1e565b610be9576040517f08c379a0000000000000000000000000000000000000000000000000000000008152600401610be0906128bf565b60405180910390fd5b610bf584848484611599565b50505050565b6060610c0682610df4565b60086000838152602001908152602001600020610c22836115f5565b604051602001610c33929190612c51565b6040516020818303038152906040529050919050565b6000600760009054906101000a900473ffffffffffffffffffffffffffffffffffffffff16905090565b6000600560008473ffffffffffffffffffffffffffffffffffffffff1673ffffffffffffffffffffffffffffffffffffffff16815260200190815260200160002060008373ffffffffffffffffffffffffffffffffffffffff1673ffffffffffffffffffffffffffffffffffffffff16815260200190815260200160002060009054906101000a900460ff16905092915050565b610d0f6112e9565b600073ffffffffffffffffffffffffffffffffffffffff168173ffffffffffffffffffffffffffffffffffffffff1603610d7e576040517f08c379a0000000000000000000000000000000000000000000000000000000008152600401610d7590612cf2565b60405180910390fd5b610d8781611367565b50565b60007f01ffc9a7000000000000000000000000000000000000000000000000000000007bffffffffffffffffffffffffffffffffffffffffffffffffffffffff1916827bffffffffffffffffffffffffffffffffffffffffffffffffffffffff1916149050919050565b610dfd816116c3565b610e3c576040517f08c379a0000000000000000000000000000000000000000000000000000000008152600401610e339061292b565b60405180910390fd5b50565b600033905090565b816004600083815260200190815260200160002060006101000a81548173ffffffffffffffffffffffffffffffffffffffff021916908373ffffffffffffffffffffffffffffffffffffffff160217905550808273ffffffffffffffffffffffffffffffffffffffff16610eba836108d6565b73ffffffffffffffffffffffffffffffffffffffff167f8c5be1e5ebec7d5bd14f71427d1e84f3dd0314c0f7b2291e5b200ac8c7c3b92560405160405180910390a45050565b610f1a828260405180602001604052806000815250611704565b5050565b600080610f2a836108d6565b90508073ffffffffffffffffffffffffffffffffffffffff168473ffffffffffffffffffffffffffffffffffffffff161480610f6c5750610f6b8185610c73565b5b80610faa57508373ffffffffffffffffffffffffffffffffffffffff16610f9284610557565b73ffffffffffffffffffffffffffffffffffffffff16145b91505092915050565b8273ffffffffffffffffffffffffffffffffffffffff16610fd3826108d6565b73ffffffffffffffffffffffffffffffffffffffff1614611029576040517f08c379a000000000000000000000000000000000000000000000000000000000815260040161102090612d84565b60405180910390fd5b600073ffffffffffffffffffffffffffffffffffffffff168273ffffffffffffffffffffffffffffffffffffffff1603611098576040517f08c379a000000000000000000000000000000000000000000000000000000000815260040161108f90612e16565b60405180910390fd5b6110a5838383600161175f565b8273ffffffffffffffffffffffffffffffffffffffff166110c5826108d6565b73ffffffffffffffffffffffffffffffffffffffff161461111b576040517f08c379a000000000000000000000000000000000000000000000000000000000815260040161111290612d84565b60405180910390fd5b6004600082815260200190815260200160002060006101000a81549073ffffffffffffffffffffffffffffffffffffffff02191690556001600360008573ffffffffffffffffffffffffffffffffffffffff1673ffffffffffffffffffffffffffffffffffffffff168152602001908152602001600020600082825403925050819055506001600360008473ffffffffffffffffffffffffffffffffffffffff1673ffffffffffffffffffffffffffffffffffffffff16815260200190815260200160002060008282540192505081905550816002600083815260200190815260200160002060006101000a81548173ffffffffffffffffffffffffffffffffffffffff021916908373ffffffffffffffffffffffffffffffffffffffff160217905550808273ffffffffffffffffffffffffffffffffffffffff168473ffffffffffffffffffffffffffffffffffffffff167fddf252ad1be2c89b69c2b068fc378daa952ba7f163c4a11628f55a4df523b3ef60405160405180910390a46112a78383836001611765565b505050565b60006002600083815260200190815260200160002060009054906101000a900473ffffffffffffffffffffffffffffffffffffffff169050919050565b6112f1610e3f565b73ffffffffffffffffffffffffffffffffffffffff1661130f610a73565b73ffffffffffffffffffffffffffffffffffffffff1614611365576040517f08c379a000000000000000000000000000000000000000000000000000000000815260040161135c90612e82565b60405180910390fd5b565b6000600660009054906101000a900473ffffffffffffffffffffffffffffffffffffffff16905081600660006101000a81548173ffffffffffffffffffffffffffffffffffffffff021916908373ffffffffffffffffffffffffffffffffffffffff1602179055508173ffffffffffffffffffffffffffffffffffffffff168173ffffffffffffffffffffffffffffffffffffffff167f8be0079c531659141344cd1fd0a4f28419497f9722a3daafe3b4186f6b6457e060405160405180910390a35050565b8173ffffffffffffffffffffffffffffffffffffffff168373ffffffffffffffffffffffffffffffffffffffff160361149b576040517f08c379a000000000000000000000000000000000000000000000000000000000815260040161149290612eee565b60405180910390fd5b80600560008573ffffffffffffffffffffffffffffffffffffffff1673ffffffffffffffffffffffffffffffffffffffff16815260200190815260200160002060008473ffffffffffffffffffffffffffffffffffffffff1673ffffffffffffffffffffffffffffffffffffffff16815260200190815260200160002060006101000a81548160ff0219169083151502179055508173ffffffffffffffffffffffffffffffffffffffff168373ffffffffffffffffffffffffffffffffffffffff167f17307eab39ab6107e8899845ad3d59bd9653f200f220920489ca2b5937696c318360405161158c9190611d39565b60405180910390a3505050565b6115a4848484610fb3565b6115b08484848461176b565b6115ef576040517f08c379a00000000000000000000000000000000000000000000000000000000081526004016115e690612f80565b60405180910390fd5b50505050565b606060006001611604846118f2565b01905060008167ffffffffffffffff81111561162357611622611f3b565b5b6040519080825280601f01601f1916602001820160405280156116555781602001600182028036833780820191505090505b509050600082602001820190505b6001156116b8578080600190039150507f3031323334353637383961626364656600000000000000000000000000000000600a86061a8153600a85816116ac576116ab612a83565b5b04945060008503611663575b819350505050919050565b60008073ffffffffffffffffffffffffffffffffffffffff166116e5836112ac565b73ffffffffffffffffffffffffffffffffffffffff1614159050919050565b61170e8383611a45565b61171b600084848461176b565b61175a576040517f08c379a000000000000000000000000000000000000000000000000000000000815260040161175190612f80565b60405180910390fd5b505050565b50505050565b50505050565b600061178c8473ffffffffffffffffffffffffffffffffffffffff16611c62565b156118e5578373ffffffffffffffffffffffffffffffffffffffff1663150b7a026117b5610e3f565b8786866040518563ffffffff1660e01b81526004016117d79493929190612ff5565b6020604051808303816000875af192505050801561181357506040513d601f19601f820116820180604052508101906118109190613056565b60015b611895573d8060008114611843576040519150601f19603f3d011682016040523d82523d6000602084013e611848565b606091505b50600081510361188d576040517f08c379a000000000000000000000000000000000000000000000000000000000815260040161188490612f80565b60405180910390fd5b805181602001fd5b63150b7a0260e01b7bffffffffffffffffffffffffffffffffffffffffffffffffffffffff1916817bffffffffffffffffffffffffffffffffffffffffffffffffffffffff1916149150506118ea565b600190505b949350505050565b600080600090507a184f03e93ff9f4daa797ed6e38ed64bf6a1f0100000000000000008310611950577a184f03e93ff9f4daa797ed6e38ed64bf6a1f010000000000000000838161194657611945612a83565b5b0492506040810190505b6d04ee2d6d415b85acef8100000000831061198d576d04ee2d6d415b85acef8100000000838161198357611982612a83565b5b0492506020810190505b662386f26fc1000083106119bc57662386f26fc1000083816119b2576119b1612a83565b5b0492506010810190505b6305f5e10083106119e5576305f5e10083816119db576119da612a83565b5b0492506008810190505b6127108310611a0a576127108381611a00576119ff612a83565b5b0492506004810190505b60648310611a2d5760648381611a2357611a22612a83565b5b0492506002810190505b600a8310611a3c576001810190505b80915050919050565b600073ffffffffffffffffffffffffffffffffffffffff168273ffffffffffffffffffffffffffffffffffffffff1603611ab4576040517f08c379a0000000000000000000000000000000000000000000000000000000008152600401611aab906130cf565b60405180910390fd5b611abd816116c3565b15611afd576040517f08c379a0000000000000000000000000000000000000000000000000000000008152600401611af49061313b565b60405180910390fd5b611b0b60008383600161175f565b611b14816116c3565b15611b54576040517f08c379a0000000000000000000000000000000000000000000000000000000008152600401611b4b9061313b565b60405180910390fd5b6001600360008473ffffffffffffffffffffffffffffffffffffffff1673ffffffffffffffffffffffffffffffffffffffff16815260200190815260200160002060008282540192505081905550816002600083815260200190815260200160002060006101000a81548173ffffffffffffffffffffffffffffffffffffffff021916908373ffffffffffffffffffffffffffffffffffffffff160217905550808273ffffffffffffffffffffffffffffffffffffffff16600073ffffffffffffffffffffffffffffffffffffffff167fddf252ad1be2c89b69c2b068fc378daa952ba7f163c4a11628f55a4df523b3ef60405160405180910390a4611c5e600083836001611765565b5050565b6000808273ffffffffffffffffffffffffffffffffffffffff163b119050919050565b6000604051905090565b600080fd5b600080fd5b60007fffffffff0000000000000000000000000000000000000000000000000000000082169050919050565b611cce81611c99565b8114611cd957600080fd5b50565b600081359050611ceb81611cc5565b92915050565b600060208284031215611d0757611d06611c8f565b5b6000611d1584828501611cdc565b91505092915050565b60008115159050919050565b611d3381611d1e565b82525050565b6000602082019050611d4e6000830184611d2a565b92915050565b600081519050919050565b600082825260208201905092915050565b60005b83811015611d8e578082015181840152602081019050611d73565b60008484015250505050565b6000601f19601f8301169050919050565b6000611db682611d54565b611dc08185611d5f565b9350611dd0818560208601611d70565b611dd981611d9a565b840191505092915050565b60006020820190508181036000830152611dfe8184611dab565b905092915050565b6000819050919050565b611e1981611e06565b8114611e2457600080fd5b50565b600081359050611e3681611e10565b92915050565b600060208284031215611e5257611e51611c8f565b5b6000611e6084828501611e27565b91505092915050565b600073ffffffffffffffffffffffffffffffffffffffff82169050919050565b6000611e9482611e69565b9050919050565b611ea481611e89565b82525050565b6000602082019050611ebf6000830184611e9b565b92915050565b611ece81611e89565b8114611ed957600080fd5b50565b600081359050611eeb81611ec5565b92915050565b60008060408385031215611f0857611f07611c8f565b5b6000611f1685828601611edc565b9250506020611f2785828601611e27565b9150509250929050565b600080fd5b600080fd5b7f4e487b7100000000000000000000000000000000000000000000000000000000600052604160045260246000fd5b611f7382611d9a565b810181811067ffffffffffffffff82111715611f9257611f91611f3b565b5b80604052505050565b6000611fa5611c85565b9050611fb18282611f6a565b919050565b600067ffffffffffffffff821115611fd157611fd0611f3b565b5b611fda82611d9a565b9050602081019050919050565b82818337600083830152505050565b600061200961200484611fb6565b611f9b565b90508281526020810184848401111561202557612024611f36565b5b612030848285611fe7565b509392505050565b600082601f83011261204d5761204c611f31565b5b813561205d848260208601611ff6565b91505092915050565b60008060006060848603121561207f5761207e611c8f565b5b600061208d86828701611edc565b935050602061209e86828701611e27565b925050604084013567ffffffffffffffff8111156120bf576120be611c94565b5b6120cb86828701612038565b9150509250925092565b6000806000606084860312156120ee576120ed611c8f565b5b60006120fc86828701611edc565b935050602061210d86828701611edc565b925050604061211e86828701611e27565b9150509250925092565b60006020828403121561213e5761213d611c8f565b5b600061214c84828501611edc565b91505092915050565b61215e81611e06565b82525050565b60006020820190506121796000830184612155565b92915050565b61218881611d1e565b811461219357600080fd5b50565b6000813590506121a58161217f565b92915050565b600080604083850312156121c2576121c1611c8f565b5b60006121d085828601611edc565b92505060206121e185828601612196565b9150509250929050565b600060ff82169050919050565b612201816121eb565b82525050565b600060208201905061221c60008301846121f8565b92915050565b600067ffffffffffffffff82111561223d5761223c611f3b565b5b61224682611d9a565b9050602081019050919050565b600061226661226184612222565b611f9b565b90508281526020810184848401111561228257612281611f36565b5b61228d848285611fe7565b509392505050565b600082601f8301126122aa576122a9611f31565b5b81356122ba848260208601612253565b91505092915050565b600080600080608085870312156122dd576122dc611c8f565b5b60006122eb87828801611edc565b94505060206122fc87828801611edc565b935050604061230d87828801611e27565b925050606085013567ffffffffffffffff81111561232e5761232d611c94565b5b61233a87828801612295565b91505092959194509250565b6000806040838503121561235d5761235c611c8f565b5b600061236b85828601611edc565b925050602061237c85828601611edc565b9150509250929050565b7f4e487b7100000000000000000000000000000000000000000000000000000000600052602260045260246000fd5b600060028204905060018216806123cd57607f821691505b6020821081036123e0576123df612386565b5b50919050565b7f4552433732313a20617070726f76616c20746f2063757272656e74206f776e6560008201527f7200000000000000000000000000000000000000000000000000000000000000602082015250565b6000612442602183611d5f565b915061244d826123e6565b604082019050919050565b6000602082019050818103600083015261247181612435565b9050919050565b7f4552433732313a20617070726f76652063616c6c6572206973206e6f7420746f60008201527f6b656e206f776e6572206f7220617070726f76656420666f7220616c6c000000602082015250565b60006124d4603d83611d5f565b91506124df82612478565b604082019050919050565b60006020820190508181036000830152612503816124c7565b9050919050565b7f4f6e6c792074686520617574686f726974792063616e206d696e74204e465473600082015250565b6000612540602083611d5f565b915061254b8261250a565b602082019050919050565b6000602082019050818103600083015261256f81612533565b9050919050565b60008190508160005260206000209050919050565b60006020601f8301049050919050565b600082821b905092915050565b6000600883026125d87fffffffffffffffffffffffffffffffffffffffffffffffffffffffffffffffff8261259b565b6125e2868361259b565b95508019841693508086168417925050509392505050565b6000819050919050565b600061261f61261a61261584611e06565b6125fa565b611e06565b9050919050565b6000819050919050565b61263983612604565b61264d61264582612626565b8484546125a8565b825550505050565b600090565b612662612655565b61266d818484612630565b505050565b5b818110156126915761268660008261265a565b600181019050612673565b5050565b601f8211156126d6576126a781612576565b6126b08461258b565b810160208510156126bf578190505b6126d36126cb8561258b565b830182612672565b50505b505050565b600082821c905092915050565b60006126f9600019846008026126db565b1980831691505092915050565b600061271283836126e8565b9150826002028217905092915050565b61272b82611d54565b67ffffffffffffffff81111561274457612743611f3b565b5b61274e82546123b5565b612759828285612695565b600060209050601f83116001811461278c576000841561277a578287015190505b6127848582612706565b8655506127ec565b601f19841661279a86612576565b60005b828110156127c25784890151825560018201915060208501945060208101905061279d565b868310156127df57848901516127db601f8916826126e8565b8355505b6001600288020188555050505b505050505050565b6127fd816121eb565b811461280857600080fd5b50565b60008151905061281a816127f4565b92915050565b60006020828403121561283657612835611c8f565b5b60006128448482850161280b565b91505092915050565b7f4552433732313a2063616c6c6572206973206e6f7420746f6b656e206f776e6560008201527f72206f7220617070726f76656400000000000000000000000000000000000000602082015250565b60006128a9602d83611d5f565b91506128b48261284d565b604082019050919050565b600060208201905081810360008301526128d88161289c565b9050919050565b7f4552433732313a20696e76616c696420746f6b656e2049440000000000000000600082015250565b6000612915601883611d5f565b9150612920826128df565b602082019050919050565b6000602082019050818103600083015261294481612908565b9050919050565b7f4552433732313a2061646472657373207a65726f206973206e6f74206120766160008201527f6c6964206f776e65720000000000000000000000000000000000000000000000602082015250565b60006129a7602983611d5f565b91506129b28261294b565b604082019050919050565b600060208201905081810360008301526129d68161299a565b9050919050565b6000819050919050565b6129f86129f382611e06565b6129dd565b82525050565b60008160601b9050919050565b6000612a16826129fe565b9050919050565b6000612a2882612a0b565b9050919050565b612a40612a3b82611e89565b612a1d565b82525050565b6000612a5282866129e7565b602082019150612a6282856129e7565b602082019150612a728284612a2f565b601482019150819050949350505050565b7f4e487b7100000000000000000000000000000000000000000000000000000000600052601260045260246000fd5b6000612abd82611e06565b9150612ac883611e06565b925082612ad857612ad7612a83565b5b828206905092915050565b7f4e487b7100000000000000000000000000000000000000000000000000000000600052601160045260246000fd5b6000612b1d82611e06565b9150612b2883611e06565b9250828201905080821115612b4057612b3f612ae3565b5b92915050565b600081905092915050565b60008154612b5e816123b5565b612b688186612b46565b94506001821660008114612b835760018114612b9857612bcb565b60ff1983168652811515820286019350612bcb565b612ba185612576565b60005b83811015612bc357815481890152600182019150602081019050612ba4565b838801955050505b50505092915050565b6000612bdf82611d54565b612be98185612b46565b9350612bf9818560208601611d70565b80840191505092915050565b7f2e6a736f6e000000000000000000000000000000000000000000000000000000600082015250565b6000612c3b600583612b46565b9150612c4682612c05565b600582019050919050565b6000612c5d8285612b51565b9150612c698284612bd4565b9150612c7482612c2e565b91508190509392505050565b7f4f776e61626c653a206e6577206f776e657220697320746865207a65726f206160008201527f6464726573730000000000000000000000000000000000000000000000000000602082015250565b6000612cdc602683611d5f565b9150612ce782612c80565b604082019050919050565b60006020820190508181036000830152612d0b81612ccf565b9050919050565b7f4552433732313a207472616e736665722066726f6d20696e636f72726563742060008201527f6f776e6572000000000000000000000000000000000000000000000000000000602082015250565b6000612d6e602583611d5f565b9150612d7982612d12565b604082019050919050565b60006020820190508181036000830152612d9d81612d61565b9050919050565b7f4552433732313a207472616e7366657220746f20746865207a65726f2061646460008201527f7265737300000000000000000000000000000000000000000000000000000000602082015250565b6000612e00602483611d5f565b9150612e0b82612da4565b604082019050919050565b60006020820190508181036000830152612e2f81612df3565b9050919050565b7f4f776e61626c653a2063616c6c6572206973206e6f7420746865206f776e6572600082015250565b6000612e6c602083611d5f565b9150612e7782612e36565b602082019050919050565b60006020820190508181036000830152612e9b81612e5f565b9050919050565b7f4552433732313a20617070726f766520746f2063616c6c657200000000000000600082015250565b6000612ed8601983611d5f565b9150612ee382612ea2565b602082019050919050565b60006020820190508181036000830152612f0781612ecb565b9050919050565b7f4552433732313a207472616e7366657220746f206e6f6e20455243373231526560008201527f63656976657220696d706c656d656e7465720000000000000000000000000000602082015250565b6000612f6a603283611d5f565b9150612f7582612f0e565b604082019050919050565b60006020820190508181036000830152612f9981612f5d565b9050919050565b600081519050919050565b600082825260208201905092915050565b6000612fc782612fa0565b612fd18185612fab565b9350612fe1818560208601611d70565b612fea81611d9a565b840191505092915050565b600060808201905061300a6000830187611e9b565b6130176020830186611e9b565b6130246040830185612155565b81810360608301526130368184612fbc565b905095945050505050565b60008151905061305081611cc5565b92915050565b60006020828403121561306c5761306b611c8f565b5b600061307a84828501613041565b91505092915050565b7f4552433732313a206d696e7420746f20746865207a65726f2061646472657373600082015250565b60006130b9602083611d5f565b91506130c482613083565b602082019050919050565b600060208201905081810360008301526130e8816130ac565b9050919050565b7f4552433732313a20746f6b656e20616c7265616479206d696e74656400000000600082015250565b6000613125601c83611d5f565b9150613130826130ef565b602082019050919050565b6000602082019050818103600083015261315481613118565b905091905056fea264697066735822122039e92224eb5414d3fddba37fa7aeffb1e72c1bacd87dcf105c022b330699bb4664736f6c63430008110033",
  "linkReferences": {},
  "deployedLinkReferences": {}
}