{"abi":[{"type":"function","name":"handleNotice","inputs":[{"name":"payloadHash","type":"bytes32","internalType":"bytes32"},{"name":"notice","type":"bytes","internalType":"bytes"}],"outputs":[],"stateMutability":"nonpayable"},{"type":"function","name":"nftContract","inputs":[],"outputs":[{"name":"","type":"address","internalType":"contract INFTPlayers"}],"stateMutability":"view"},{"type":"function","name":"nonodoHandleNotice","inputs":[{"name":"payloadHash","type":"bytes32","internalType":"bytes32"},{"name":"notice","type":"bytes","internalType":"bytes"}],"outputs":[],"stateMutability":"nonpayable"},{"type":"function","name":"setNFTPlayersContract","inputs":[{"name":"nftAddress","type":"address","internalType":"address"}],"outputs":[],"stateMutability":"nonpayable"},{"type":"event","name":"ResultReceived","inputs":[{"name":"payloadHash","type":"bytes32","indexed":false,"internalType":"bytes32"},{"name":"output","type":"bytes","indexed":false,"internalType":"bytes"}],"anonymous":false}],"bytecode":{"object":"0x6080604052348015600e575f5ffd5b5061046b8061001c5f395ff3fe608060405234801561000f575f5ffd5b506004361061004a575f3560e01c806306553cf31461004e578063a3bc94661461007f578063a77d99c814610092578063d56d229d146100a5575b5f5ffd5b61007d61005c3660046101f0565b5f80546001600160a01b0319166001600160a01b0392909216919091179055565b005b61007d61008d366004610262565b6100d3565b61007d6100a0366004610262565b6101e2565b5f546100b7906001600160a01b031681565b6040516001600160a01b03909116815260200160405180910390f35b5f5f828060200190518101906100e99190610380565b90925090505f5b82518110156101a2575f5483516001600160a01b039091169063dc0ab92590859084908110610121576101216103e5565b602002602001015184848151811061013b5761013b6103e5565b60200260200101516040518363ffffffff1660e01b8152600401610169929190918252602082015260400190565b5f604051808303815f87803b158015610180575f5ffd5b505af1158015610192573d5f5f3e3d5ffd5b5050600190920191506100f09050565b507f11ee75453d1327abdfe4f7a8ad4821587837391f365bef110620811d7a2fa59184846040516101d49291906103f9565b60405180910390a150505050565b6101ec82826100d3565b5050565b5f60208284031215610200575f5ffd5b81356001600160a01b0381168114610216575f5ffd5b9392505050565b634e487b7160e01b5f52604160045260245ffd5b604051601f8201601f1916810167ffffffffffffffff8111828210171561025a5761025a61021d565b604052919050565b5f5f60408385031215610273575f5ffd5b82359150602083013567ffffffffffffffff811115610290575f5ffd5b8301601f810185136102a0575f5ffd5b803567ffffffffffffffff8111156102ba576102ba61021d565b6102cd601f8201601f1916602001610231565b8181528660208385010111156102e1575f5ffd5b816020840160208301375f602083830101528093505050509250929050565b5f82601f83011261030f575f5ffd5b815167ffffffffffffffff8111156103295761032961021d565b8060051b61033960208201610231565b91825260208185018101929081019086841115610354575f5ffd5b6020860192505b8383101561037657825182526020928301929091019061035b565b9695505050505050565b5f5f60408385031215610391575f5ffd5b825167ffffffffffffffff8111156103a7575f5ffd5b6103b385828601610300565b925050602083015167ffffffffffffffff8111156103cf575f5ffd5b6103db85828601610300565b9150509250929050565b634e487b7160e01b5f52603260045260245ffd5b828152604060208201525f82518060408401528060208501606085015e5f606082850101526060601f19601f830116840101915050939250505056fea26469706673582212200568fb8c24aeadc3bb0c85a82ec99d3a246fb3b40a89cefd83e98271539a14b664736f6c634300081b0033","linkReferences":{}},"methodIdentifiers":{"handleNotice(bytes32,bytes)":"a3bc9466","nftContract()":"d56d229d","nonodoHandleNotice(bytes32,bytes)":"a77d99c8","setNFTPlayersContract(address)":"06553cf3"},"id":0}