{"abi":[{"type":"constructor","inputs":[],"stateMutability":"nonpayable"},{"type":"function","name":"addXp","inputs":[{"name":"tokenId","type":"uint256","internalType":"uint256"},{"name":"amount","type":"uint256","internalType":"uint256"}],"outputs":[],"stateMutability":"nonpayable"},{"type":"function","name":"approve","inputs":[{"name":"to","type":"address","internalType":"address"},{"name":"tokenId","type":"uint256","internalType":"uint256"}],"outputs":[],"stateMutability":"nonpayable"},{"type":"function","name":"balanceOf","inputs":[{"name":"owner","type":"address","internalType":"address"}],"outputs":[{"name":"","type":"uint256","internalType":"uint256"}],"stateMutability":"view"},{"type":"function","name":"calculateLevel","inputs":[{"name":"xp","type":"uint256","internalType":"uint256"}],"outputs":[{"name":"","type":"uint32","internalType":"uint32"}],"stateMutability":"pure"},{"type":"function","name":"getAllTokens","inputs":[{"name":"owner","type":"address","internalType":"address"}],"outputs":[{"name":"","type":"uint256[]","internalType":"uint256[]"}],"stateMutability":"view"},{"type":"function","name":"getApproved","inputs":[{"name":"tokenId","type":"uint256","internalType":"uint256"}],"outputs":[{"name":"","type":"address","internalType":"address"}],"stateMutability":"view"},{"type":"function","name":"getAuthority","inputs":[],"outputs":[{"name":"","type":"address","internalType":"address"}],"stateMutability":"view"},{"type":"function","name":"getLastTokenId","inputs":[],"outputs":[{"name":"","type":"uint256","internalType":"uint256"}],"stateMutability":"view"},{"type":"function","name":"getLevel","inputs":[{"name":"tokenId","type":"uint256","internalType":"uint256"}],"outputs":[{"name":"","type":"uint32","internalType":"uint32"}],"stateMutability":"view"},{"type":"function","name":"getName","inputs":[{"name":"tokenId","type":"uint256","internalType":"uint256"}],"outputs":[{"name":"","type":"string","internalType":"string"}],"stateMutability":"view"},{"type":"function","name":"getRandomNumber","inputs":[{"name":"tokenId","type":"uint256","internalType":"uint256"}],"outputs":[{"name":"","type":"uint8","internalType":"uint8"}],"stateMutability":"view"},{"type":"function","name":"getXp","inputs":[{"name":"tokenId","type":"uint256","internalType":"uint256"}],"outputs":[{"name":"","type":"uint256","internalType":"uint256"}],"stateMutability":"view"},{"type":"function","name":"isApprovedForAll","inputs":[{"name":"owner","type":"address","internalType":"address"},{"name":"operator","type":"address","internalType":"address"}],"outputs":[{"name":"","type":"bool","internalType":"bool"}],"stateMutability":"view"},{"type":"function","name":"mintNFT","inputs":[{"name":"collector","type":"address","internalType":"address"},{"name":"_tokenURI","type":"string","internalType":"string"},{"name":"name","type":"string","internalType":"string"}],"outputs":[{"name":"","type":"uint256","internalType":"uint256"}],"stateMutability":"nonpayable"},{"type":"function","name":"mintNFTs","inputs":[{"name":"collector","type":"address","internalType":"address"},{"name":"names","type":"string[]","internalType":"string[]"},{"name":"baseTokenURI","type":"string","internalType":"string"}],"outputs":[],"stateMutability":"nonpayable"},{"type":"function","name":"name","inputs":[],"outputs":[{"name":"","type":"string","internalType":"string"}],"stateMutability":"view"},{"type":"function","name":"owner","inputs":[],"outputs":[{"name":"","type":"address","internalType":"address"}],"stateMutability":"view"},{"type":"function","name":"ownerOf","inputs":[{"name":"tokenId","type":"uint256","internalType":"uint256"}],"outputs":[{"name":"","type":"address","internalType":"address"}],"stateMutability":"view"},{"type":"function","name":"renounceOwnership","inputs":[],"outputs":[],"stateMutability":"nonpayable"},{"type":"function","name":"safeTransferFrom","inputs":[{"name":"from","type":"address","internalType":"address"},{"name":"to","type":"address","internalType":"address"},{"name":"tokenId","type":"uint256","internalType":"uint256"}],"outputs":[],"stateMutability":"nonpayable"},{"type":"function","name":"safeTransferFrom","inputs":[{"name":"from","type":"address","internalType":"address"},{"name":"to","type":"address","internalType":"address"},{"name":"tokenId","type":"uint256","internalType":"uint256"},{"name":"data","type":"bytes","internalType":"bytes"}],"outputs":[],"stateMutability":"nonpayable"},{"type":"function","name":"setApprovalForAll","inputs":[{"name":"operator","type":"address","internalType":"address"},{"name":"approved","type":"bool","internalType":"bool"}],"outputs":[],"stateMutability":"nonpayable"},{"type":"function","name":"setAuthority","inputs":[{"name":"_authority","type":"address","internalType":"address"}],"outputs":[],"stateMutability":"nonpayable"},{"type":"function","name":"supportsInterface","inputs":[{"name":"interfaceId","type":"bytes4","internalType":"bytes4"}],"outputs":[{"name":"","type":"bool","internalType":"bool"}],"stateMutability":"view"},{"type":"function","name":"symbol","inputs":[],"outputs":[{"name":"","type":"string","internalType":"string"}],"stateMutability":"view"},{"type":"function","name":"tokenByIndex","inputs":[{"name":"index","type":"uint256","internalType":"uint256"}],"outputs":[{"name":"","type":"uint256","internalType":"uint256"}],"stateMutability":"view"},{"type":"function","name":"tokenOfOwnerByIndex","inputs":[{"name":"owner","type":"address","internalType":"address"},{"name":"index","type":"uint256","internalType":"uint256"}],"outputs":[{"name":"","type":"uint256","internalType":"uint256"}],"stateMutability":"view"},{"type":"function","name":"tokenURI","inputs":[{"name":"tokenId","type":"uint256","internalType":"uint256"}],"outputs":[{"name":"","type":"string","internalType":"string"}],"stateMutability":"view"},{"type":"function","name":"totalSupply","inputs":[],"outputs":[{"name":"","type":"uint256","internalType":"uint256"}],"stateMutability":"view"},{"type":"function","name":"transferFrom","inputs":[{"name":"from","type":"address","internalType":"address"},{"name":"to","type":"address","internalType":"address"},{"name":"tokenId","type":"uint256","internalType":"uint256"}],"outputs":[],"stateMutability":"nonpayable"},{"type":"function","name":"transferOwnership","inputs":[{"name":"newOwner","type":"address","internalType":"address"}],"outputs":[],"stateMutability":"nonpayable"},{"type":"event","name":"Approval","inputs":[{"name":"owner","type":"address","indexed":true,"internalType":"address"},{"name":"approved","type":"address","indexed":true,"internalType":"address"},{"name":"tokenId","type":"uint256","indexed":true,"internalType":"uint256"}],"anonymous":false},{"type":"event","name":"ApprovalForAll","inputs":[{"name":"owner","type":"address","indexed":true,"internalType":"address"},{"name":"operator","type":"address","indexed":true,"internalType":"address"},{"name":"approved","type":"bool","indexed":false,"internalType":"bool"}],"anonymous":false},{"type":"event","name":"OwnershipTransferred","inputs":[{"name":"previousOwner","type":"address","indexed":true,"internalType":"address"},{"name":"newOwner","type":"address","indexed":true,"internalType":"address"}],"anonymous":false},{"type":"event","name":"Transfer","inputs":[{"name":"from","type":"address","indexed":true,"internalType":"address"},{"name":"to","type":"address","indexed":true,"internalType":"address"},{"name":"tokenId","type":"uint256","indexed":true,"internalType":"uint256"}],"anonymous":false}],"bytecode":{"object":"0x608060405234801561000f575f5ffd5b506040518060400160405280600a8152602001694e4654506c617965727360b01b815250604051806040016040528060068152602001652727a7232aa760d11b815250815f90816100609190610178565b50600161006d8282610178565b50505061008661008161008b60201b60201c565b61008f565b610232565b3390565b600a80546001600160a01b038381166001600160a01b0319831681179093556040519116919082907f8be0079c531659141344cd1fd0a4f28419497f9722a3daafe3b4186f6b6457e0905f90a35050565b634e487b7160e01b5f52604160045260245ffd5b600181811c9082168061010857607f821691505b60208210810361012657634e487b7160e01b5f52602260045260245ffd5b50919050565b601f82111561017357805f5260205f20601f840160051c810160208510156101515750805b601f840160051c820191505b81811015610170575f815560010161015d565b50505b505050565b81516001600160401b03811115610191576101916100e0565b6101a58161019f84546100f4565b8461012c565b6020601f8211600181146101d7575f83156101c05750848201515b5f19600385901b1c1916600184901b178455610170565b5f84815260208120601f198516915b8281101561020657878501518255602094850194600190920191016101e6565b508482101561022357868401515f19600387901b60f8161c191681555b50505050600190811b01905550565b6123e48061023f5f395ff3fe608060405234801561000f575f5ffd5b50600436106101dc575f3560e01c80637a9e5e4b11610109578063b37217a41161009e578063dce3dc1f1161006e578063dce3dc1f1461042e578063e2b178a014610441578063e985e9c514610452578063f2fde38b1461048d575f5ffd5b8063b37217a4146103d0578063b88d4fde146103f5578063c87b56dd14610408578063dc0ab9251461041b575f5ffd5b806395d89b41116100d957806395d89b411461038f578063a13e57e914610397578063a22cb465146103aa578063a3ee38ae146103bd575f5ffd5b80637a9e5e4b1461033b57806383c4c00d1461034e57806386481d40146103565780638da5cb5b1461037e575f5ffd5b80632f745c591161017f5780636352211e1161014f5780636352211e146102fa5780636b8ff5741461030d57806370a0823114610320578063715018a614610333575f5ffd5b80632f745c59146102a257806342842e0e146102b55780634f6ccce7146102c857806360eb73e7146102db575f5ffd5b8063095ea7b3116101ba578063095ea7b314610248578063178b6de61461025d57806318160ddd1461027d57806323b872dd1461028f575f5ffd5b806301ffc9a7146101e057806306fdde0314610208578063081812fc1461021d575b5f5ffd5b6101f36101ee366004611b31565b6104a0565b60405190151581526020015b60405180910390f35b6102106104b0565b6040516101ff9190611b7a565b61023061022b366004611b8c565b61053f565b6040516001600160a01b0390911681526020016101ff565b61025b610256366004611bbe565b610564565b005b61027061026b366004611be6565b61067d565b6040516101ff9190611bff565b6008545b6040519081526020016101ff565b61025b61029d366004611c36565b610712565b6102816102b0366004611bbe565b610743565b61025b6102c3366004611c36565b6107d7565b6102816102d6366004611b8c565b6107f1565b6102816102e9366004611b8c565b5f908152600d602052604090205490565b610230610308366004611b8c565b610881565b61021061031b366004611b8c565b6108e0565b61028161032e366004611be6565b61097f565b61025b610a03565b61025b610349366004611be6565b610a16565b600f54610281565b610369610364366004611b8c565b610a40565b60405163ffffffff90911681526020016101ff565b600a546001600160a01b0316610230565b610210610a5e565b61025b6103a5366004611d2c565b610a6d565b61025b6103b8366004611e33565b610be3565b6102816103cb366004611e6c565b610bf2565b6103e36103de366004611b8c565b610d49565b60405160ff90911681526020016101ff565b61025b610403366004611eca565b610db3565b610210610416366004611b8c565b610deb565b61025b610429366004611f41565b610e33565b61036961043c366004611b8c565b610e59565b600b546001600160a01b0316610230565b6101f3610460366004611f61565b6001600160a01b039182165f90815260056020908152604080832093909416825291909152205460ff1690565b61025b61049b366004611be6565b610ed1565b5f6104aa82610f4a565b92915050565b60605f80546104be90611f92565b80601f01602080910402602001604051908101604052809291908181526020018280546104ea90611f92565b80156105355780601f1061050c57610100808354040283529160200191610535565b820191905f5260205f20905b81548152906001019060200180831161051857829003601f168201915b5050505050905090565b5f61054982610f6e565b505f908152600460205260409020546001600160a01b031690565b5f61056e82610881565b9050806001600160a01b0316836001600160a01b0316036105e05760405162461bcd60e51b815260206004820152602160248201527f4552433732313a20617070726f76616c20746f2063757272656e74206f776e656044820152603960f91b60648201526084015b60405180910390fd5b336001600160a01b03821614806105fc57506105fc8133610460565b61066e5760405162461bcd60e51b815260206004820152603d60248201527f4552433732313a20617070726f76652063616c6c6572206973206e6f7420746f60448201527f6b656e206f776e6572206f7220617070726f76656420666f7220616c6c00000060648201526084016105d7565b6106788383610fcc565b505050565b60605f6106898361097f565b90505f8167ffffffffffffffff8111156106a5576106a5611c70565b6040519080825280602002602001820160405280156106ce578160200160208202803683370190505b5090505f5b8281101561070a576106e58582610743565b8282815181106106f7576106f7611fca565b60209081029190910101526001016106d3565b509392505050565b61071c3382611039565b6107385760405162461bcd60e51b81526004016105d790611fde565b6106788383836110b5565b5f61074d8361097f565b82106107af5760405162461bcd60e51b815260206004820152602b60248201527f455243373231456e756d657261626c653a206f776e657220696e646578206f7560448201526a74206f6620626f756e647360a81b60648201526084016105d7565b506001600160a01b03919091165f908152600660209081526040808320938352929052205490565b61067883838360405180602001604052805f815250610db3565b5f6107fb60085490565b821061085e5760405162461bcd60e51b815260206004820152602c60248201527f455243373231456e756d657261626c653a20676c6f62616c20696e646578206f60448201526b7574206f6620626f756e647360a01b60648201526084016105d7565b6008828154811061087157610871611fca565b905f5260205f2001549050919050565b5f818152600260205260408120546001600160a01b0316806104aa5760405162461bcd60e51b8152602060048201526018602482015277115490cdcc8c4e881a5b9d985b1a59081d1bdad95b88125160421b60448201526064016105d7565b5f818152600e602052604090208054606091906108fc90611f92565b80601f016020809104026020016040519081016040528092919081815260200182805461092890611f92565b80156109735780601f1061094a57610100808354040283529160200191610973565b820191905f5260205f20905b81548152906001019060200180831161095657829003601f168201915b50505050509050919050565b5f6001600160a01b0382166109e85760405162461bcd60e51b815260206004820152602960248201527f4552433732313a2061646472657373207a65726f206973206e6f7420612076616044820152683634b21037bbb732b960b91b60648201526084016105d7565b506001600160a01b03165f9081526003602052604090205490565b610a0b611224565b610a145f61127e565b565b610a1e611224565b600b80546001600160a01b0319166001600160a01b0392909216919091179055565b5f818152600d6020526040812054610a5781610e59565b9392505050565b6060600180546104be90611f92565b5f805b8351811015610bdc576008549150610a8885836112cf565b5f828152600c60205260409020610a9f848261206f565b50604051632cdc85e960e21b8152600481018390525f90309063b37217a490602401602060405180830381865afa158015610adc573d5f5f3e3d5ffd5b505050506040513d601f19601f82011682018060405250810190610b00919061212a565b90508060ff16600103610b23575f838152600d6020526040902060019055610b9b565b8060ff16600203610b44575f838152600d6020526040902060649055610b9b565b8060ff16600303610b66575f838152600d6020526040902061012c9055610b9b565b8060ff16600403610b88575f838152600d602052604090206102589055610b9b565b5f838152600d602052604090206103e890555b848281518110610bad57610bad611fca565b6020026020010151600e5f8581526020019081526020015f209081610bd2919061206f565b5050600101610a70565b5050505050565b610bee3383836112e8565b5050565b600f80545f9182610c028361215e565b9091555050600f54610c1485826112cf565b5f818152600c60205260409020610c2b858261206f565b50604051632cdc85e960e21b8152600481018290525f90309063b37217a490602401602060405180830381865afa158015610c68573d5f5f3e3d5ffd5b505050506040513d601f19601f82011682018060405250810190610c8c919061212a565b90508060ff16600103610caf575f828152600d6020526040902060019055610d27565b8060ff16600203610cd0575f828152600d6020526040902060649055610d27565b8060ff16600303610cf2575f828152600d6020526040902061012c9055610d27565b8060ff16600403610d14575f828152600d602052604090206102589055610d27565b5f828152600d602052604090206103e890555b5f828152600e60205260409020610d3e858261206f565b509095945050505050565b5f5f824333604051602001610d8393929190928352602083019190915260601b6bffffffffffffffffffffffff1916604082015260540190565b60408051601f1981840301815291905280516020909101209050610da8600582612176565b610a57906001612195565b610dbd3383611039565b610dd95760405162461bcd60e51b81526004016105d790611fde565b610de5848484846113b5565b50505050565b6060610df682610f6e565b5f828152600c60205260409020610e0c836113e8565b604051602001610e1d9291906121a8565b6040516020818303038152906040529050919050565b5f828152600d602052604081208054839290610e50908490612195565b90915550505050565b5f6001815b808410610ebe5780610e71836064612233565b610e819063ffffffff1683612195565b1015610e8e575092915050565b81610e9881612259565b9250610ea79050826064612233565b610eb79063ffffffff1682612195565b9050610e5e565b610ec960018361227d565b949350505050565b610ed9611224565b6001600160a01b038116610f3e5760405162461bcd60e51b815260206004820152602660248201527f4f776e61626c653a206e6577206f776e657220697320746865207a65726f206160448201526564647265737360d01b60648201526084016105d7565b610f478161127e565b50565b5f6001600160e01b0319821663780e9d6360e01b14806104aa57506104aa82611478565b5f818152600260205260409020546001600160a01b0316610f475760405162461bcd60e51b8152602060048201526018602482015277115490cdcc8c4e881a5b9d985b1a59081d1bdad95b88125160421b60448201526064016105d7565b5f81815260046020526040902080546001600160a01b0319166001600160a01b038416908117909155819061100082610881565b6001600160a01b03167f8c5be1e5ebec7d5bd14f71427d1e84f3dd0314c0f7b2291e5b200ac8c7c3b92560405160405180910390a45050565b5f5f61104483610881565b9050806001600160a01b0316846001600160a01b0316148061108a57506001600160a01b038082165f9081526005602090815260408083209388168352929052205460ff165b80610ec95750836001600160a01b03166110a38461053f565b6001600160a01b031614949350505050565b826001600160a01b03166110c882610881565b6001600160a01b0316146110ee5760405162461bcd60e51b81526004016105d790612299565b6001600160a01b0382166111505760405162461bcd60e51b8152602060048201526024808201527f4552433732313a207472616e7366657220746f20746865207a65726f206164646044820152637265737360e01b60648201526084016105d7565b61115d83838360016114c7565b826001600160a01b031661117082610881565b6001600160a01b0316146111965760405162461bcd60e51b81526004016105d790612299565b5f81815260046020908152604080832080546001600160a01b03199081169091556001600160a01b038781168086526003855283862080545f1901905590871680865283862080546001019055868652600290945282852080549092168417909155905184937fddf252ad1be2c89b69c2b068fc378daa952ba7f163c4a11628f55a4df523b3ef91a4505050565b600a546001600160a01b03163314610a145760405162461bcd60e51b815260206004820181905260248201527f4f776e61626c653a2063616c6c6572206973206e6f7420746865206f776e657260448201526064016105d7565b600a80546001600160a01b038381166001600160a01b0319831681179093556040519116919082907f8be0079c531659141344cd1fd0a4f28419497f9722a3daafe3b4186f6b6457e0905f90a35050565b610bee828260405180602001604052805f8152506114d3565b816001600160a01b0316836001600160a01b0316036113495760405162461bcd60e51b815260206004820152601960248201527f4552433732313a20617070726f766520746f2063616c6c65720000000000000060448201526064016105d7565b6001600160a01b038381165f81815260056020908152604080832094871680845294825291829020805460ff191686151590811790915591519182527f17307eab39ab6107e8899845ad3d59bd9653f200f220920489ca2b5937696c31910160405180910390a3505050565b6113c08484846110b5565b6113cc84848484611505565b610de55760405162461bcd60e51b81526004016105d7906122de565b60605f6113f483611602565b60010190505f8167ffffffffffffffff81111561141357611413611c70565b6040519080825280601f01601f19166020018201604052801561143d576020820181803683370190505b5090508181016020015b5f19016f181899199a1a9b1b9c1cb0b131b232b360811b600a86061a8153600a850494508461144757509392505050565b5f6001600160e01b031982166380ac58cd60e01b14806114a857506001600160e01b03198216635b5e139f60e01b145b806104aa57506301ffc9a760e01b6001600160e01b03198316146104aa565b610de5848484846116d9565b6114dd8383611805565b6114e95f848484611505565b6106785760405162461bcd60e51b81526004016105d7906122de565b5f6001600160a01b0384163b156115f757604051630a85bd0160e11b81526001600160a01b0385169063150b7a0290611548903390899088908890600401612330565b6020604051808303815f875af1925050508015611582575060408051601f3d908101601f1916820190925261157f9181019061236c565b60015b6115dd573d8080156115af576040519150601f19603f3d011682016040523d82523d5f602084013e6115b4565b606091505b5080515f036115d55760405162461bcd60e51b81526004016105d7906122de565b805181602001fd5b6001600160e01b031916630a85bd0160e11b149050610ec9565b506001949350505050565b5f8072184f03e93ff9f4daa797ed6e38ed64bf6a1f0160401b83106116405772184f03e93ff9f4daa797ed6e38ed64bf6a1f0160401b830492506040015b6d04ee2d6d415b85acef8100000000831061166c576d04ee2d6d415b85acef8100000000830492506020015b662386f26fc10000831061168a57662386f26fc10000830492506010015b6305f5e10083106116a2576305f5e100830492506008015b61271083106116b657612710830492506004015b606483106116c8576064830492506002015b600a83106104aa5760010192915050565b60018111156117485760405162461bcd60e51b815260206004820152603560248201527f455243373231456e756d657261626c653a20636f6e7365637574697665207472604482015274185b9cd9995c9cc81b9bdd081cdd5c1c1bdc9d1959605a1b60648201526084016105d7565b816001600160a01b0385166117a35761179e81600880545f838152600960205260408120829055600182018355919091527ff3f7a9fe364faab93b216da50a3214154f22a0a2b415b23a84c8169e8b636ee30155565b6117c6565b836001600160a01b0316856001600160a01b0316146117c6576117c6858261199a565b6001600160a01b0384166117e2576117dd81611a33565b610bdc565b846001600160a01b0316846001600160a01b031614610bdc57610bdc8482611ada565b6001600160a01b03821661185b5760405162461bcd60e51b815260206004820181905260248201527f4552433732313a206d696e7420746f20746865207a65726f206164647265737360448201526064016105d7565b5f818152600260205260409020546001600160a01b0316156118bf5760405162461bcd60e51b815260206004820152601c60248201527f4552433732313a20746f6b656e20616c7265616479206d696e7465640000000060448201526064016105d7565b6118cc5f838360016114c7565b5f818152600260205260409020546001600160a01b0316156119305760405162461bcd60e51b815260206004820152601c60248201527f4552433732313a20746f6b656e20616c7265616479206d696e7465640000000060448201526064016105d7565b6001600160a01b0382165f81815260036020908152604080832080546001019055848352600290915280822080546001600160a01b0319168417905551839291907fddf252ad1be2c89b69c2b068fc378daa952ba7f163c4a11628f55a4df523b3ef908290a45050565b5f60016119a68461097f565b6119b09190612387565b5f83815260076020526040902054909150808214611a01576001600160a01b0384165f9081526006602090815260408083208584528252808320548484528184208190558352600790915290208190555b505f9182526007602090815260408084208490556001600160a01b039094168352600681528383209183525290812055565b6008545f90611a4490600190612387565b5f8381526009602052604081205460088054939450909284908110611a6b57611a6b611fca565b905f5260205f20015490508060088381548110611a8a57611a8a611fca565b5f918252602080832090910192909255828152600990915260408082208490558582528120556008805480611ac157611ac161239a565b600190038181905f5260205f20015f9055905550505050565b5f611ae48361097f565b6001600160a01b039093165f908152600660209081526040808320868452825280832085905593825260079052919091209190915550565b6001600160e01b031981168114610f47575f5ffd5b5f60208284031215611b41575f5ffd5b8135610a5781611b1c565b5f81518084528060208401602086015e5f602082860101526020601f19601f83011685010191505092915050565b602081525f610a576020830184611b4c565b5f60208284031215611b9c575f5ffd5b5035919050565b80356001600160a01b0381168114611bb9575f5ffd5b919050565b5f5f60408385031215611bcf575f5ffd5b611bd883611ba3565b946020939093013593505050565b5f60208284031215611bf6575f5ffd5b610a5782611ba3565b602080825282518282018190525f918401906040840190835b81811015610d3e578351835260209384019390920191600101611c18565b5f5f5f60608486031215611c48575f5ffd5b611c5184611ba3565b9250611c5f60208501611ba3565b929592945050506040919091013590565b634e487b7160e01b5f52604160045260245ffd5b604051601f8201601f1916810167ffffffffffffffff81118282101715611cad57611cad611c70565b604052919050565b5f5f67ffffffffffffffff841115611ccf57611ccf611c70565b50601f8301601f1916602001611ce481611c84565b915050828152838383011115611cf8575f5ffd5b828260208301375f602084830101529392505050565b5f82601f830112611d1d575f5ffd5b610a5783833560208501611cb5565b5f5f5f60608486031215611d3e575f5ffd5b611d4784611ba3565b9250602084013567ffffffffffffffff811115611d62575f5ffd5b8401601f81018613611d72575f5ffd5b803567ffffffffffffffff811115611d8c57611d8c611c70565b8060051b611d9c60208201611c84565b91825260208184018101929081019089841115611db7575f5ffd5b6020850192505b83831015611dfd57823567ffffffffffffffff811115611ddc575f5ffd5b611deb8b602083890101611d0e565b83525060209283019290910190611dbe565b95505050506040850135905067ffffffffffffffff811115611e1d575f5ffd5b611e2986828701611d0e565b9150509250925092565b5f5f60408385031215611e44575f5ffd5b611e4d83611ba3565b915060208301358015158114611e61575f5ffd5b809150509250929050565b5f5f5f60608486031215611e7e575f5ffd5b611e8784611ba3565b9250602084013567ffffffffffffffff811115611ea2575f5ffd5b611eae86828701611d0e565b925050604084013567ffffffffffffffff811115611e1d575f5ffd5b5f5f5f5f60808587031215611edd575f5ffd5b611ee685611ba3565b9350611ef460208601611ba3565b925060408501359150606085013567ffffffffffffffff811115611f16575f5ffd5b8501601f81018713611f26575f5ffd5b611f3587823560208401611cb5565b91505092959194509250565b5f5f60408385031215611f52575f5ffd5b50508035926020909101359150565b5f5f60408385031215611f72575f5ffd5b611f7b83611ba3565b9150611f8960208401611ba3565b90509250929050565b600181811c90821680611fa657607f821691505b602082108103611fc457634e487b7160e01b5f52602260045260245ffd5b50919050565b634e487b7160e01b5f52603260045260245ffd5b6020808252602d908201527f4552433732313a2063616c6c6572206973206e6f7420746f6b656e206f776e6560408201526c1c881bdc88185c1c1c9bdd9959609a1b606082015260800190565b601f82111561067857805f5260205f20601f840160051c810160208510156120505750805b601f840160051c820191505b81811015610bdc575f815560010161205c565b815167ffffffffffffffff81111561208957612089611c70565b61209d816120978454611f92565b8461202b565b6020601f8211600181146120cf575f83156120b85750848201515b5f19600385901b1c1916600184901b178455610bdc565b5f84815260208120601f198516915b828110156120fe57878501518255602094850194600190920191016120de565b508482101561211b57868401515f19600387901b60f8161c191681555b50505050600190811b01905550565b5f6020828403121561213a575f5ffd5b815160ff81168114610a57575f5ffd5b634e487b7160e01b5f52601160045260245ffd5b5f6001820161216f5761216f61214a565b5060010190565b5f8261219057634e487b7160e01b5f52601260045260245ffd5b500690565b808201808211156104aa576104aa61214a565b5f5f84546121b581611f92565b6001821680156121cc57600181146121e15761220e565b60ff198316865281151582028601935061220e565b875f5260205f205f5b83811015612206578154888201526001909101906020016121ea565b505081860193505b50505083518060208601835e64173539b7b760d91b9101908152600501949350505050565b63ffffffff81811683821602908116908181146122525761225261214a565b5092915050565b5f63ffffffff821663ffffffff81036122745761227461214a565b60010192915050565b63ffffffff82811682821603908111156104aa576104aa61214a565b60208082526025908201527f4552433732313a207472616e736665722066726f6d20696e636f72726563742060408201526437bbb732b960d91b606082015260800190565b60208082526032908201527f4552433732313a207472616e7366657220746f206e6f6e20455243373231526560408201527131b2b4bb32b91034b6b83632b6b2b73a32b960711b606082015260800190565b6001600160a01b03858116825284166020820152604081018390526080606082018190525f9061236290830184611b4c565b9695505050505050565b5f6020828403121561237c575f5ffd5b8151610a5781611b1c565b818103818111156104aa576104aa61214a565b634e487b7160e01b5f52603160045260245ffdfea2646970667358221220092ee2296c996dabb917485dda3b67c5475c12018ec7fe499c1e103be9f122b364736f6c634300081b0033","linkReferences":{}},"methodIdentifiers":{"addXp(uint256,uint256)":"dc0ab925","approve(address,uint256)":"095ea7b3","balanceOf(address)":"70a08231","calculateLevel(uint256)":"dce3dc1f","getAllTokens(address)":"178b6de6","getApproved(uint256)":"081812fc","getAuthority()":"e2b178a0","getLastTokenId()":"83c4c00d","getLevel(uint256)":"86481d40","getName(uint256)":"6b8ff574","getRandomNumber(uint256)":"b37217a4","getXp(uint256)":"60eb73e7","isApprovedForAll(address,address)":"e985e9c5","mintNFT(address,string,string)":"a3ee38ae","mintNFTs(address,string[],string)":"a13e57e9","name()":"06fdde03","owner()":"8da5cb5b","ownerOf(uint256)":"6352211e","renounceOwnership()":"715018a6","safeTransferFrom(address,address,uint256)":"42842e0e","safeTransferFrom(address,address,uint256,bytes)":"b88d4fde","setApprovalForAll(address,bool)":"a22cb465","setAuthority(address)":"7a9e5e4b","supportsInterface(bytes4)":"01ffc9a7","symbol()":"95d89b41","tokenByIndex(uint256)":"4f6ccce7","tokenOfOwnerByIndex(address,uint256)":"2f745c59","tokenURI(uint256)":"c87b56dd","totalSupply()":"18160ddd","transferFrom(address,address,uint256)":"23b872dd","transferOwnership(address)":"f2fde38b"},"id":1}